:020000040800F2
:1000000078BE0120DD67000811050008F302000832
:10001000130500081505000817050008000000007A
:1000200000000000000000000000000019050008AA
:100030001B050008000000001D0500081F05000842
:100040004B630008F7670008F7670008F7670008C8
:10005000F7670008F7670008F7670008F767000808
:10006000F7670008F7670008F7670008F7670008F8
:10007000F7670008F7670008F7670008F7670008E8
:10008000F7670008F7670008F7670008F7670008D8
:10009000F7670008F7670008F7670008F7670008C8
:1000A000F7670008F7670008F7670008F7670008B8
:1000B000F76700085F5D0008BDFD0208F7670008EC
:1000C000F7670008F7670008F7670008F767000898
:1000D000F7670008256600083B670008630A030805
:1000E000F7670008F7670008F7670008F767000878
:1000F000F7670008F7670008F7670008F767000868
:10010000F7670008F7670008F7670008F767000857
:10011000F7670008F7670008F7670008D3FD0208D3
:10012000F7670008F7670008F7670008F767000837
:10013000F7670008F7670008F7670008F767000827
:10014000F7670008F7670008F7670008F767000817
:10015000F7670008F7670008F7670008F767000807
:10016000F7670008F7670008F7670008F7670008F7
:10017000F7670008F7670008F7670008F7670008E7
:10018000F7670008F7670008DFF810D031F0CCFD02
:10019000004800475D020008AFF3008078BE0120F0
:1001A00030BF72B6704762B6704780F308887047F8
:1001B0006846704710B54FF4A06006F021FBA820F8
:1001C00006F0E4F84FF47A3006F0DBF900F066FA56
:1001D00000F0D0FF04F0A6FD2FF0C8F82FF0E3F8F0
:1001E00000F089FA532140F2CF7005F061FD05F06F
:1001F000C7FD04F09CFFAF48AD49AF4A416090F89D
:100200003010927941F0800102F00102114380F830
:100210003010012000F0EEFD0AF087FC08F02BF909
:1002200008F0A0F906F053F813214CF251302FF0EA
:1002300051F80A214CF250302FF01DF92FF02EF812
:100240004FF4165006F038F9532140F2E7302FF002
:10025000BCF89A490020C1F8980210BDFFF7AAFF28
:10026000974C2068400004D4012141F288302FF0DF
:1002700060FE206840F08070206030F09DFA01241C
:10028000904D002601202EF0ECFAC08808B16C8455
:1002900000E06E840021012008F010F923F072FFC5
:1002A000052006F0B4F8EDE7FEB50D4606460A2433
:1002B00030220721684630F0CEFD30208DF8000056
:1002C00058208DF8010068465DB105F00F02641EEC
:1002D000092A01DD373200E030322D090255002CA9
:1002E000F2DC0098306001987060BDF80800308141
:1002F000FEBD86B0FFF75CFF724F083F3860786044
:10030000D0E9051270A031F02BFFDFF8CCA1DAF8AC
:1003100000000AF1040B20F40071CBF800106749CB
:100320000020C1F88402C1F880026C490880FF20D7
:10033000002100904FF4F0734FF44872084604F027
:10034000B2FA67A01826CDE900601E2164234FF49D
:10035000FA72084604F0BDFC02A83968FFF7A4FF52
:1003600002ADCDE90065502164239622084604F0D1
:10037000B0FC02A83968FFF797FFCDE90065642358
:1003800096227821502004F0A4FC0024A8464FF0C7
:100390007809C4EB041109EB4105A9B202232246F6
:1003A0003220009604F00FFC786850F8241002A860
:1003B000FFF77AFFCDE90068A9B2642396225020A6
:1003C00004F087FC641C0A2CE3D30024B846C4EB79
:1003D0000410782707EB4005A9B2022304F10A02B2
:1003E000FA20009604F0EFFBD8F8040000EB84003C
:1003F000816A02A8FFF758FF02A8CDE90060A9B200
:10040000642396224FF48C7004F063FC641C0A2C65
:10041000DDD3B1464646DFF8E4800024C4EB041186
:10042000782000EB41054F46A9B2022304F11402E3
:100430004FF4E170CDF8009004F0C5FB706800EB5C
:100440008400016D02A8FFF72FFF02A8CDE900701C
:10045000A9B2642396224FF4F07004F03AFC641CB5
:100460000A2CDBD3444620888006FCD5DAF800202D
:100470004FF40071DAF80000914320F4007001435A
:10048000CBF800107068D0E905120FA031F068FEBB
:10049000A188706800EB81014A68A18850F821109A
:1004A00017A031F05DFE208820F020002080DAE7E0
:1004B0009351000868000020000400200000414221
:1004C00074380240080000200D0A30582578202C8E
:1004D000305825780000000010140240000C004045
:1004E000486172644661756C742048616E646C6525
:1004F0007220535020524547000000000010014078
:100500000D0A44522030582578202C305825780088
:100510007047FEE7FEE7FEE7704770477047704799
:100520000CB50022544900920192086840F48030D2
:1005300008604FF4A043086800F400300190009870
:10054000401C0090019810B900989842F3D10868B7
:10055000800334D50120019047484030026842F0C2
:10056000805202604548026842F4404202604248BC
:10057000083002680260026842F4004202600268C9
:1005800042F4A0520260031F3D4A1A600A6842F01A
:1005900080720A600A689201FCD53A4940F20572FD
:1005A0000A60016821F003010160016841F0020165
:1005B00001600168C1F381010229FAD10CBD0192E9
:1005C0000CBD314810B5016841F4700101602A4842
:1005D000016841F001010160274A002108321160E1
:1005E00002682A4B1A400260031D294A1A600268F9
:1005F00022F48022026020480C300160FFF790FF57
:1006000021494FF000608039086010BD70B51A4D67
:10061000083528681F4B204910F00C0004D05E10EC
:10062000042803D0082803D00B601BE00E6019E0FB
:10063000114A121D1068C0F38054106800F03F008A
:1006400014B1B6FBF0F001E0B3FBF0F013681268F0
:10065000C3F388135843C2F30142521C5200B0FB4B
:10066000F2F0086028680C4AC0F30310121D105CF9
:100670000A68C2400A6070BD003802400070004045
:1006800008544007003C024088ED00E0FFFFF6FE02
:10069000103000240024F400480000202DE9FC4123
:1006A0000121222006F097FD01208DF8040000268C
:1006B0008DF8066003218DF805101D4F4FF4C065BD
:1006C0008DF8070000956946384606F05DF98DF80B
:1006D0000760184E4FF4E05400946946304606F027
:1006E00053F92146304606F0B6F92946384606F059
:1006F000B0F9BDE8FC811CB50121042006F06BFDBA
:100700006820009001208DF8040000218DF806106B
:1007100003218DF80510084C8DF807006946204626
:1007200006F032F96821204606F095F91CBD00005C
:1007300000140240000402400008024001B5BDF868
:100740000000ADF80000BDF800004FF0D841A1F85E
:100750007E0008BD01B5BDF80000ADF80000BDF891
:1007600000004FF0D841A1F8800008BD08B54FF057
:10077000D840B0F88000ADF80000BDF8000008BD1A
:100780004FF0D84222F87E0F5180704710B5FFF726
:10079000D5FF052005F00DFEBDE81040E6E7FE4858
:1007A0004FF0D8410089A1F87E0070474FF0D84142
:1007B000A1F880007047C0F34511C20AC00200EBE7
:1007C0004110104480B27047401EC0B2FCD2704746
:1007D000F0B5F14E0C460246050AB1883046A1F547
:1007E000134340894FEA142C413B1AD0A1F5A6438C
:1007F000103B16D0B646B3793688A1F5D047B61A65
:10080000761E043F17D07746A1F5C85EBEF1630E91
:1008100025D0A1F5A04EBEF5A26E57D0012B6FD00A
:100820006FE0FFF78BFF2846FFF794FFD0B2FFF78A
:1008300091FFB0890CE07546012B00D1B2B2FFF7F1
:100840007DFF100AFFF786FFD0B2FFF783FFA8896C
:10085000FFF774FF6046FFF77DFFE0B225E03BB392
:10086000FFF76CFF2846FFF775FFD0B2FFF772FF66
:100870003888401EC0F30F20FFF76CFF3878401E09
:10088000C0B2FFF767FFB889FFF758FF6046FFF770
:1008900061FFE0B2FFF75EFF7888401EC0F30F20D3
:1008A000FFF758FFB878401EC0B2BDE8F04051E7EE
:1008B000B2B2FFF743FF0020FFF74CFF0020FFF725
:1008C00049FF100AFFF746FFD0B2DAE7FFF736FF1D
:1008D0002846FFF73FFF7889401C80B2FFF72EFFC4
:1008E000D0B2FFF737FFB889FFF728FF6046FFF760
:1008F00031FFB889401C80B2FFF720FFADE7FFE76A
:10090000B2B21146FFF73CFFB8892146BDE8F0407E
:1009100036E72DE9F041A04E002425463288824278
:1009200002D972888A4202D80020BDE8F081FFF720
:100930004FFFB08849F2413841F6631C45F210324E
:1009400045F21057404507D0A0F5D041043903D0F7
:10095000904201D0604501D12E2005E0B84202D17D
:100960004FF4385000E02220FFF7E8FEB088A0F5F1
:100970001341203903D10220401EC0B2FCD2FFF740
:10098000F5FEB1886145D0D00220401EC0B2FCD235
:10099000FFF7ECFE0146B088C446604503D09042A4
:1009A00001D0B8420BD10220401EC0B2FCD2FFF7EA
:1009B000DDFE0546C8B24FF6FF7303EA0024B08897
:1009C000A0F51343253B1DD0A0F58A43353B19D034
:1009D000A0F58A43313B15D0A0F53543053B11D036
:1009E000A0F54543053B0DD0604503D0904201D0B2
:1009F000B84209D1C80AC002A10A40EA411040EA3F
:100A0000D52092E7084690E7BDE8F0410846D2E6D7
:100A100061488088A0F51341413913D0A0F5D04139
:100A200004390FD0A0F5A64110390BD0A0F5C8515C
:100A3000633907D0A0F5AA41103905D040F27311EF
:100A400007209DE6292001E04FF4245076E6524825
:100A50008088A0F51341413912D0A0F5D041043966
:100A60000ED0A0F5A64110390AD0A0F5C8516339BF
:100A700006D0A0F5AA41103904D0002107207FE656
:100A8000282001E04FF4205058E6F0B5424C0023F6
:100A90002146A279898846F6040741F66315012AA2
:100AA00001D02AB11DE0B9421BD0A94202D118E001
:100AB000A94216D1082814D2DFE800F00406080A7B
:100AC0000C0E101206200CE007200AE0042008E0BB
:100AD000052006E0012004E0002002E0032000E001
:100AE0000220A1F5134C45F2103245F21056BCF12C
:100AF000410C07D0B94205D0914203D0B14201D098
:100B0000A9427CD1082812D2DFE800F011040608BF
:100B10000A0C0E1080230AE0402308E0C02306E000
:100B2000202304E0602302E0A02300E0E023B142A0
:100B300002D14FF4585000E03620914205D0B14226
:100B400003D0A94201D043F00803B94201D143F0D8
:100B500002031946FFF714FEA288AA420AD098069B
:100B60002088618802D5884202D303E0884201D9F7
:100B7000218060806089B24245D1FFF7DFFD00200F
:100B8000FFF7E8FD6089401C80B2FFF7D7FD002029
:100B9000FFF7E0FD608901E000040020801C80B2C6
:100BA000FFF7CCFD2088401EC0F30F20FFF7D2FDD9
:100BB0006089C01C80B2FFF7C1FD2078401EC0B222
:100BC000FFF7C8FDA089FFF7B9FD0020FFF7C2FDC0
:100BD000A089401C80B2FFF7B1FD0020FFF7BAFDED
:100BE000A089801C80B2FFF7A9FD6088401EC0F379
:100BF0000F20FFF7AFFDA089C01C80B200E02AE003
:100C0000FFF79CFD21E0FFF799FD0020FFF7A2FD13
:100C10000020FFF79FFD2088401EC0F30F20FFF744
:100C200099FD2078401EC0B2FFF794FDA089FFF720
:100C300085FD0020FFF78EFD0020FFF78BFD60880B
:100C4000401EC0F30F20FFF785FDA078BDE8F040FF
:100C5000401EC0B27EE5082812D2DFE800F004068C
:100C600008110A0C0E1030230AE0102308E020239C
:100C700006E0382304E0282302E0182300E00823DC
:100C8000BDE8F040032043F4805179E500B5FFF75B
:100C90009FFDFFF784FDFE484FF0D8410088A1F882
:100CA000800000BD2DE9F041FA4D90460C46024609
:100CB000060AA9882846A1F5134340894FEA142C57
:100CC000413B17D0A1F5A643103B13D0A1F5AA4391
:100CD000103B13D02E46A1F5C857B3793688B61A03
:100CE000761E633F23D0A1F5D047043F3AD0012BB5
:100CF0004DD04DE0FFF722FD304639E0FFF71EFDF5
:100D00003046FFF727FD6889401C80B2FFF716FDCB
:100D1000D0B2FFF71FFDA889FFF710FD6046FFF76F
:100D200019FDA889401C80B2FFF708FD2BE003B92C
:100D3000B2B2FFF703FD160A3046FFF70BFDD0B243
:100D4000FFF708FD3046FFF705FDD0B2FFF702FDC3
:100D5000A889FFF7F3FC6046FFF7FCFCE0B2FFF761
:100D6000F9FC0DE0012B00D1B2B2FFF7E7FC100A4D
:100D7000FFF7F0FCD0B2FFF7EDFCA889FFF7DEFC2F
:100D80006046FFF7E7FCE0B2FFF7E4FC07E0B2B231
:100D90001146FFF7F5FCA8892146FFF7F1FC4FF05B
:100DA000D840298920F87E1FA0F80280BDE510B543
:100DB0000246BE20FFF7C2FC0520FFF7CBFC104621
:100DC00030F090F99FEDB41B53EC112B30F098F8F4
:100DD00030F0B4F980B2FFF7BDFC0120FFF7BAFC98
:100DE000FF20FFF7B7FC0020FFF7B4FCBDE8104080
:100DF0000020AFE42DE9F04FA6492A232B2489884F
:100E000045F2105A4FF4305B4FF4285E4FF44875AA
:100E10004FF0F00C49F241394FF4A07745F210360B
:100E20004FF4F07280B19B484FF00108494580F8BB
:100E300006800780A0F802C001D0B1423ED12C2527
:100E400005814381848157E092484FF0000849456D
:100E500080F80680A0F800C0478006D0A1F5D04CED
:100E6000BCF1040C01D0B1420CD12C250581438189
:100E7000A1F5D0438481043B01D0B14244D1078025
:100E8000428041E0514507D1A0F808B0A0F80AE03F
:100E90004FF42C5181810EE0A1F5C856633E06D077
:100EA0002221018120214181212181812CE02C21DD
:100EB0000181448183810280458025E0A1F5D04CE9
:100EC000BCF1040C09D051450BD1A0F808B0A0F832
:100ED0000AE04FF42C53838120E02C2505814481C6
:100EE00009E0A1F5C85CBCF1630C11D02223038199
:100EF0002123438120238381A1F5D043043B01D0EA
:100F0000B14201D102804780BDE8F04F0020BCE52E
:100F10004FF02C0CA0F808C04381848105804280EA
:100F2000EAE72DE9FE4F0446104401EB0308DFF821
:100F30006491401EA8F1010887B2B9F80400C8F313
:100F4000072302930B0A0093A3185B1EC3F3072326
:100F500001934B460D465B89A0F513411FFA88F6B5
:100F60004FEA142B413910D0A0F5A64110390CD00E
:100F7000A0F5D041043908D099F806A041F6631CC9
:100F8000BAF1010F1ED160451CD14A461846FFF741
:100F9000D5FB5846FFF7DEFBE0B2FFF7DBFB01981D
:100FA000FFF7D8FBF8B2FFF7D5FB9089FFF7C6FB38
:100FB0000098FFF7CFFBE8B2FFF7CCFB0298FFF7F2
:100FC000C9FB95E033496045098825D1881A001B83
:100FD00084B24E461FFA88F71846FFF7AFFB200A87
:100FE000FFF7B8FBE0B2FFF7B5FB2244521EC2F395
:100FF0000F20FFF7AFFBD0B2FFF7ACFBB089FFF7D4
:101000009DFB0098FFF7A6FBE8B2FFF7A3FB380AA9
:10101000FFF7A0FBF8B26CE0A0F5A04C4A46BCF587
:10102000A26C23D0BAF1010F67D03B4620462F4671
:10103000502201464FF051094FF052084FF0530C27
:101040001046FFF79DFB19464846FFF799FB3946C6
:101050004046FFF795FB31466046FFF791FB03B032
:1010600029462046BDE8F04FFFF7B2BB1846FFF710
:1010700065FB5846FFF76EFB5089401C80B2FFF7B6
:101080005DFBE0B2FFF766FB5089801C80B207E091
:101090005C00002000040020666666666666044008
:1010A000FFF74CFB0198FFF755FB5089C01C80B23D
:1010B000FFF744FBF8B2FFF74DFB9089FFF73EFBCB
:1010C0000098FFF747FB9089401C80B2FFF736FB82
:1010D000E8B2FFF73FFB9089801C80B2FFF72EFB40
:1010E0000298FFF737FB9089C01C80B2FFF726FB00
:1010F000F0B2BDE8FE4FFFF72DBBCA1B521E091B05
:101100003346491E284697B28EB291E72DE9F04347
:10111000FF4F0646002438887D884543B888A0F5EF
:10112000D041043902D1B879012808D000210846FD
:10113000FFF74EFBFFF733FB4FF0D84016E00020DF
:10114000B8714FF02A09A7F80A904FF02B08A7F8BA
:101150000C800146FFF73CFB0120B871A7F80A801C
:10116000A7F80C90E6E7A0F88060641CAC42FAD3C4
:10117000BDE8F0832DE9F04FA1B0002401217A20D1
:101180001F9406F028F80121084606F038F80120DF
:101190008DF804008DF8064002208DF8050001202E
:1011A0004FF4004A8DF80700CDF800A06946D948F1
:1011B00005F0EAFB4CF23370009002208DF8040039
:1011C0008DF8064003208DF8050001208DF80700FA
:1011D0006946D14805F0D8FB4FF680700090022098
:1011E0008DF804008DF8064003208DF805000120DD
:1011F000CA4D8DF807006946284605F0C5FBA814BE
:10120000009002208DF804008DF8064003208DF830
:1012100005000120C24E8DF807006946304605F0F2
:10122000B3FBA814009002208DF804008DF806404E
:1012300003208DF805000120BA4F8DF8070069469C
:10124000384605F0A1FB0C220021B34805F010FC44
:101250000C220121B04805F00BFC0C220421AE4801
:1012600005F006FC0C220521AB4805F001FC0C2220
:101270000821A94805F0FCFB0C220921A64805F02D
:10128000F7FB0C220A21A44805F0F2FB0C220E21E8
:10129000A14805F0EDFB0C220F219F4805F0E8FB6B
:1012A0000C220721284605F0E3FB0C2208212846E2
:1012B00005F0DEFB0C220921284605F0D9FB0C22A3
:1012C0000A21284605F0D4FB0C220B21284605F004
:1012D000CFFB0C221146284605F0CAFB0C220D213B
:1012E000284605F0C5FB0C220E21284605F0C0FB60
:1012F0000C220F21284605F0BBFB0C22114630467C
:1013000005F0B6FB0C221146384605F0B1FB0F2064
:10131000CDE911043C20CDE913041594092016945D
:10132000CDE917400820CDE919401B941C940620F4
:10133000CDE902041D941E941020CDE904400694CA
:101340000002CDE90A40089407948000CDE90C40E2
:10135000099411A8CDE90E4018A8109002A805F034
:10136000C0FB0121062005F035FC322005F04FF8C6
:1013700001210020FFF704FA322005F048F8002090
:10138000FFF704FADFF888C14FF020494FF6FF78E5
:10139000ACF8040049F2413545F2103645F21054DC
:1013A00041F6631246F60407FF2804D3404502D0F5
:1013B000B0F5134F73D1D320FFF7C0F9FFF7D6F97B
:1013C000ACF80400FFF7D2F9ACF80400FFF7CEF94F
:1013D00008EA0020ACF80400FFF7C8F9BCF80410D4
:1013E0000843ACF80400A84274D0BF20FFF7A6F968
:1013F000FFF7BCF9ACF80400FFF7B8F9ACF804004B
:10140000FFF7B4F9ACF80400FFF7B0F908EA0020E0
:10141000ACF80400FFF7AAF9BCF804100843ACF8D4
:101420000400B84256D0D420FFF788F9FFF79EF9A0
:10143000ACF80400FFF79AF9ACF80400FFF796F94E
:1014400008EA0020ACF80400FFF790F9BCF804109B
:101450000843ACF80400B0423CD04FF45A40FFF7C8
:101460006DF9FFF783F9ACF804004FF45B40FFF728
:1014700065F9FFF77BF908EA0020ACF804004FF4A7
:101480005C40FFF75BF9FFF771F9BCF80410084303
:10149000ACF80400504503D1ACF8044023E019E057
:1014A000A04217D0A120FFF749F9FFF75FF9ACF888
:1014B0000400FFF75BF908EA0020ACF80400FFF72E
:1014C00055F9BCF804100843A0F5AE41ACF804008F
:1014D00061392ED080B2A84205D0B04203D0A042DC
:1014E00001D0904228D1D9F81C11484621F00F01B3
:1014F000C9F81C11D9F81C1121F47061C9F81C112C
:10150000D9F81C1141F00301C9F81C110CE00000CE
:101510000004002000040240000C024000100240C1
:101520000014024000180240D9F81C1141F4007167
:101530001FE0ACF80420D6E7B84203D0A0F545413F
:10154000053918D1D9F81C11484621F00F01C9F806
:101550001C11D9F81C1121F47061C9F81C11D9F8BB
:101560001C1141F00A01C9F81C11D9F81C1141F4F1
:101570004061C0F81C11BCF80400A8427ED1CF2005
:10158000FFF7DCF80020FFF7E5F8C120FFF7E2F8ED
:101590003020FFF7DFF8ED20FFF7D0F86420FFF7E9
:1015A000D9F80320FFF7D6F81220FFF7D3F88120EF
:1015B000FFF7D0F8E820FFF7C1F88520FFF7CAF859
:1015C0001020FFF7C7F87A20FFF7C4F8CB20FFF709
:1015D000B5F83920FFF7BEF82C20FFF7BBF8002044
:1015E000FFF7B8F83420FFF7B5F80220FFF7B2F89C
:1015F000F720FFF7A3F82020FFF7ACF8EA20FFF769
:101600009DF80020FFF7A6F80020FFF7A3F8C02000
:10161000FFF794F81B20FFF79DF8C120FFF78EF825
:101620000120FFF797F8C520FFF788F83020FFF773
:1016300091F83020FFF78EF8C720FFF77FF8B7202A
:10164000FFF788F83620FFF779F84820FFF782F88F
:101650003A20FFF773F85520FFF77CF8B120FFF729
:101660006DF80020FFF776F81A20FFF773F8B62020
:10167000FFF764F80A20FFF76DF800E090E0A22081
:10168000FFF768F8F220FFF759F80020FFF762F83B
:101690002620FFF753F80120FFF75CF8E020FFF762
:1016A0004DF80F20FFF756F82A20FFF753F82820AF
:1016B000FFF750F80820FFF74DF80E20FFF74AF823
:1016C0000820FFF747F85420FFF744F8A920FFF758
:1016D00041F84320FFF73EF80A20FFF73BF80F20C0
:1016E000FFF738F80020FFF735F80020FFF732F851
:1016F0000020FFF72FF80020FFF72CF8E120FFF77C
:101700001DF80020FFF726F81520FFF723F8172013
:10171000FFF720F80720FFF71DF81120FFF71AF850
:101720000620FFF717F82B20FFF714F85620FFF7D5
:1017300011F83C20FFF70EF80520FFF70BF81020FA
:10174000FFF708F80F20FFF705F83F20FFF702F832
:101750003F20FEF7FFFF0F20FEF7FCFF2B20FEF7D8
:10176000EDFF0020FEF7F6FF0020FEF7F3FF01205B
:10177000FEF7F0FF3F20FEF7EDFF2A20FEF7DEFF29
:101780000020FEF7E7FF0020FEF7E4FF0020FEF751
:10179000E1FFEF20FEF7DEFF1120FEF7CFFFA5E00F
:1017A000B8427CD11120FEF7C9FF142004F02FFEAF
:1017B000D020FEF7C3FF0720FEF7CCFF4220FEF744
:1017C000C9FF1D20FEF7C6FFD120FEF7B7FF00209E
:1017D000FEF7C0FF1A20FEF7BDFF0920FEF7BAFF93
:1017E000D220FEF7ABFF0120FEF7B4FF2220FEF768
:1017F000B1FFC020FEF7A2FF1020FEF7ABFF3B2099
:10180000FEF7A8FF0020FEF7A5FF0220FEF7A2FFCB
:101810001120FEF79FFFC520FEF790FF0320FEF783
:1018200099FFC820FEF78AFF0020FEF793FF2520CE
:10183000FEF790FF2120FEF78DFF0520FEF78AFFBF
:101840000020FEF787FF0A20FEF784FF6520FEF7E1
:1018500081FF2520FEF77EFF7720FEF77BFF5020DB
:10186000FEF778FF0F20FEF775FF0020FEF772FFEE
:10187000F820FEF763FF0120FEF76CFFFE20FEF765
:101880005DFF0020FEF766FF0220FEF763FF2020C9
:10189000FEF754FF3620FEF751FF082000E02BE052
:1018A000FEF758FF3A20FEF749FF5520FEF752FF9A
:1018B0002B20FEF743FF0020FEF74CFF0020FEF731
:1018C00049FF0120FEF746FF3F20FEF743FF2A2095
:1018D000FEF734FF0020FEF73DFF0020FEF73AFF41
:1018E0000120FEF737FFDF20FEF734FF782004F0F9
:1018F0008EFD292001F0FBBEB0427CD1ED20FEF729
:101900001DFF0120FEF726FFFE20FEF723FFEE203D
:10191000FEF714FFDE20FEF71DFF2120FEF71AFF61
:10192000F120FEF70BFF0120FEF714FFDF20FEF78A
:1019300005FF1020FEF70EFFC420FEF7FFFE8F20EC
:10194000FEF708FFC620FEF7F9FE0020FEF702FFB3
:10195000E220FEF7FFFEE220FEF7FCFEE220FEF7AB
:10196000F9FEBF20FEF7EAFEAA20FEF7F3FEB02044
:10197000FEF7E4FE0D20FEF7EDFE0020FEF7EAFE86
:101980000D20FEF7E7FE0020FEF7E4FE1120FEF733
:10199000E1FE0020FEF7DEFE1920FEF7DBFE002050
:1019A000FEF7D8FE2120FEF7D5FE0020FEF7D2FE7E
:1019B0002D20FEF7CFFE0020FEF7CCFE3D20FEF7E7
:1019C000C9FE0020FEF7C6FE5D20FEF7C3FE002024
:1019D000FEF7C0FE5D20FEF7BDFE0020FEF7BAFE5A
:1019E000B120FEF7ABFE8020FEF7B4FE0020FEF72C
:1019F000B1FE8B2000E0FCE3FEF7ACFE0020FEF71A
:101A0000A9FE9620FEF7A6FE0020FEF7A3FEB22058
:101A1000FEF794FE0020FEF79DFE0020FEF79AFEE2
:101A20000220FEF797FE0020FEF794FE0320FEF74B
:101A300091FE0020FEF78EFEB320FEF77FFE002011
:101A4000FEF788FE0020FEF785FE0020FEF782FEEE
:101A50000020FEF77FFE0020FEF77CFE0020FEF750
:101A600079FE0020FEF776FE0020FEF773FE0020D0
:101A7000FEF770FE0020FEF76DFE0020FEF76AFE06
:101A80000020FEF767FE0020FEF764FE0020FEF750
:101A900061FE0020FEF75EFE0020FEF75BFE0020E8
:101AA000FEF758FE0020FEF755FE0020FEF752FE1E
:101AB0000020FEF74FFE0020FEF74CFE0020FEF750
:101AC00049FE0020FEF746FE0020FEF743FEB4204C
:101AD000FEF734FE8B20FEF73DFE0020FEF73AFEB7
:101AE0009620FEF737FE0020FEF734FEA120FEF719
:101AF00031FE0020FEF72EFEB520FEF71FFE02206D
:101B0000FEF728FE0020FEF725FE0320FEF722FE4A
:101B10000020FEF71FFE0420FEF71CFE0020FEF74B
:101B200019FEB620FEF70AFE0020FEF713FE002085
:101B3000FEF710FEB720FEF701FE0020FEF70AFEBA
:101B40000020FEF707FE3F20FEF704FE0020FEF710
:101B500001FE5E20FEF7FEFD0020FEF7FBFD642087
:101B6000FEF7F8FD0020FEF7F5FD8C20FEF7F2FDF4
:101B70000020FEF7EFFDAC20FEF7ECFD0020FEF7A5
:101B8000E9FDDC20FEF7E6FD0020FEF7E3FD702016
:101B9000FEF7E0FD0020FEF7DDFD9020FEF7DAFD08
:101BA0000020FEF7D7FDEB20FEF7D4FD0020FEF766
:101BB000D1FDDC20FEF7CEFD0020FEF7CBFDB820E6
:101BC000FEF7BCFD0020FEF7C5FD0020FEF7C2FDBC
:101BD0000020FEF7BFFD0020FEF7BCFD0020FEF751
:101BE000B9FD0020FEF7B6FD0020FEF7B3FD002092
:101BF000FEF7B0FDBA20FEF7A1FD2420FEF7AAFDF6
:101C00000020FEF7A7FD0020FEF7A4FD0020FEF750
:101C1000A1FDC120FEF792FD2020FEF79BFD0020D4
:101C2000FEF798FD5420FEF795FD0020FEF792FD8B
:101C3000FF20FEF78FFD0020FEF78CFDC220FEF78F
:101C40007DFD0A20FEF786FD0020FEF783FD0420BF
:101C5000FEF780FD0020FEF77DFDC320FEF76EFD40
:101C60003C20FEF777FD0020FEF774FD3A20FEF7DA
:101C700071FD0020FEF76EFD3920FEF76BFD0020A0
:101C8000FEF768FD3720FEF765FD0020FEF762FDD8
:101C90003C20FEF75FFD0020FEF75CFD3620FEF7DE
:101CA00059FD0020FEF756FD3220FEF753FD0020BF
:101CB000FEF750FD2F20FEF74DFD0020FEF74AFDF8
:101CC0002C20FEF747FD0020FEF744FD2920FEF7FB
:101CD00041FD0020FEF73EFD2620FEF73BFD0020E3
:101CE000FEF738FD2420FEF735FD0020FEF732FD1B
:101CF0002420FEF72FFD0020FEF72CFD2320FEF709
:101D000029FD0020FEF726FD3C20FEF723FD0020E4
:101D1000FEF720FD3620FEF71DFD0020FEF71AFD20
:101D20003220FEF717FD0020FEF714FD2F20FEF7EE
:101D300011FD0020FEF70EFD2C20FEF70BFD00200C
:101D4000FEF708FD2920FEF705FD0020FEF702FD45
:101D50002620FEF7FFFC0020FEF7FCFC2420FEF707
:101D6000F9FC0020FEF7F6FC2420FEF7F3FC00202F
:101D7000FEF7F0FC2320FEF7EDFC0020FEF7EAFC66
:101D8000C420FEF7DBFC6220FEF7E4FC0020FEF737
:101D9000E1FC0520FEF7DEFC0020FEF7DBFC8420E2
:101DA000FEF7D8FC0020FEF7D5FCF020FEF7D2FCB1
:101DB0000020FEF7CFFC1820FEF7CCFC0020FEF739
:101DC000C9FCA420FEF7C6FC0020FEF7C3FC1820C7
:101DD000FEF7C0FC0020FEF7BDFC5020FEF7BAFC69
:101DE0000020FEF7B7FC0C20FEF7B4FC0020FEF745
:101DF000B1FC1720FEF7AEFC0020FEF7ABFC9520EF
:101E0000FEF7A8FC0020FEF7A5FCF320FEF7A2FCDD
:101E10000020FEF79FFCE620FEF79CFC0020FEF76A
:101E200099FCC520FEF78AFC3220FEF793FC0020C7
:101E3000FEF790FC4420FEF78DFC0020FEF78AFCA4
:101E40006520FEF787FC0020FEF784FC7620FEF775
:101E500081FC0020FEF77EFC8820FEF77BFC002042
:101E6000FEF778FCC620FEF769FC2020FEF772FC26
:101E70000020FEF76FFC1720FEF76CFC0020FEF739
:101E800069FC0120FEF766FC0020FEF763FCC7201A
:101E9000FEF754FC0020FEF75DFC0020FEF75AFC24
:101EA0000020FEF757FC0020FEF754FCC820FEF788
:101EB00045FC0020FEF74EFC0020FEF74BFC002006
:101EC000FEF748FC0020FEF745FCC920FEF736FC73
:101ED0000020FEF73FFC0020FEF73CFC0020FEF750
:101EE00039FC0020FEF736FC0020FEF733FC002012
:101EF000FEF730FC0020FEF72DFC0020FEF72AFC48
:101F00000020FEF727FC0020FEF724FC0020FEF74F
:101F100021FC0020FEF71EFC0020FEF71BFC002029
:101F2000FEF718FC0020FEF715FC0020FEF712FC5F
:101F3000E020FEF703FC1620FEF70CFC0020FEF765
:101F400009FC1C20FEF706FC0020FEF703FC212004
:101F5000FEF700FC0020FEF7FDFB3620FEF7FAFB43
:101F60000020FEF7F7FB4620FEF7F4FB0020FEF70B
:101F7000F1FB5220FEF7EEFB0020FEF7EBFB6420A6
:101F8000FEF7E8FB0020FEF7E5FB7A20FEF7E2FB18
:101F90000020FEF7DFFB8B20FEF7DCFB0020FEF7C6
:101FA000D9FB9920FEF7D6FB0020FEF7D3FBA82033
:101FB000FEF7D0FB0020FEF7CDFBB920FEF7CAFBF1
:101FC0000020FEF7C7FBC420FEF7C4FB0020FEF78D
:101FD000C1FBCA20FEF7BEFB0020FEF7BBFBD220F0
:101FE000FEF7B8FB0020FEF7B5FBD920FEF7B2FBE9
:101FF0000020FEF7AFFBE020FEF7ACFB0020FEF771
:10200000A9FBF320FEF7A6FB0020FEF7A3FBE120CF
:10201000FEF794FB1620FEF79DFB0020FEF79AFBCF
:102020001C20FEF797FB0020FEF794FB2220FEF712
:1020300091FB0020FEF78EFB3620FEF78BFB002085
:10204000FEF788FB4520FEF785FB0020FEF782FBAC
:102050005220FEF77FFB0020FEF77CFB6420FEF79A
:1020600079FB0020FEF776FB7A20FEF773FB002059
:10207000FEF770FB8B20FEF76DFB0020FEF76AFB7E
:102080009920FEF767FB0020FEF764FBA820FEF70F
:1020900061FB0020FEF75EFBB920FEF75BFB002032
:1020A000FEF758FBC420FEF755FB0020FEF752FB5D
:1020B000CA20FEF74FFB0020FEF74CFBD220FEF7B4
:1020C00049FB0020FEF746FBD820FEF743FB00202B
:1020D000FEF740FBE020FEF73DFB0020FEF73AFB59
:1020E000F320FEF737FB0020FEF734FBE220FEF77B
:1020F00025FB0520FEF72EFB0020FEF72BFB0B2017
:10210000FEF728FB0020FEF725FB1B20FEF722FB35
:102110000020FEF71FFB3420FEF71CFB0020FEF71B
:1021200019FB4420FEF716FB0020FEF713FB4F209F
:10213000FEF710FB0020FEF70DFB6120FEF70AFB07
:102140000020FEF707FB7920FEF704FB0020FEF7D6
:1021500001FB8820FEF7FEFA0020FEF7FBFA97202D
:10216000FEF7F8FA0020FEF7F5FAA620FEF7F2FADD
:102170000020FEF7EFFAB720FEF7ECFA0020FEF79A
:10218000E9FAC220FEF7E6FA0020FEF7E3FAC720DC
:10219000FEF7E0FA0020FEF7DDFAD120FEF7DAFACA
:1021A0000020FEF7D7FAD620FEF7D4FA0020FEF77B
:1021B000D1FADD20FEF7CEFA0020FEF7CBFAF320AD
:1021C000FEF7C8FA0020FEF7C5FAE320FEF7B6FADC
:1021D0000520FEF7BFFA0020FEF7BCFA0A20FEF742
:1021E000B9FA0020FEF7B6FA1C20FEF7B3FA002079
:1021F00000E0FDE2FEF7AEFA3320FEF7ABFA002076
:10220000FEF7A8FA4420FEF7A5FA0020FEF7A2FA8E
:102210005020FEF79FFA0020FEF79CFA6220FEF79E
:1022200099FA0020FEF796FA7820FEF793FA00203C
:10223000FEF790FA8820FEF78DFA0020FEF78AFA62
:102240009720FEF787FA0020FEF784FAA620FEF713
:1022500081FA0020FEF77EFAB720FEF77BFA002015
:10226000FEF778FAC220FEF775FA0020FEF772FA40
:10227000C720FEF76FFA0020FEF76CFAD120FEF7B8
:1022800069FA0020FEF766FAD520FEF763FA00200F
:10229000FEF760FADD20FEF75DFA0020FEF75AFA3D
:1022A000F320FEF757FA0020FEF754FAE420FEF779
:1022B00045FA0120FEF74EFA0020FEF74BFA012006
:1022C000FEF748FA0020FEF745FA0220FEF742FA30
:1022D0000020FEF73FFA2A20FEF73CFA0020FEF726
:1022E00039FA3C20FEF736FA0020FEF733FA4B208D
:1022F000FEF730FA0020FEF72DFA5D20FEF72AFAED
:102300000020FEF727FA7420FEF724FA0020FEF7DB
:1023100021FA8420FEF71EFA0020FEF71BFA932014
:10232000FEF718FA0020FEF715FAA220FEF712FABF
:102330000020FEF70FFAB320FEF70CFA0020FEF79C
:1023400009FABE20FEF706FA0020FEF703FAC420C1
:10235000FEF700FA0020FEF7FDF9CD20FEF7FAF9AE
:102360000020FEF7F7F9D320FEF7F4F90020FEF77E
:10237000F1F9DD20FEF7EEF90020FEF7EBF9F3208E
:10238000FEF7E8F90020FEF7E5F9E520FEF7D6F9BB
:102390000020FEF7DFF90020FEF7DCF90020FEF751
:1023A000D9F90020FEF7D6F90220FEF7D3F9002074
:1023B000FEF7D0F92920FEF7CDF90020FEF7CAF983
:1023C0003C20FEF7C7F90020FEF7C4F94B20FEF7CA
:1023D000C1F90020FEF7BEF95D20FEF7BBF9002031
:1023E000FEF7B8F97420FEF7B5F90020FEF7B2F950
:1023F0008420FEF7AFF90020FEF7ACF99320FEF73A
:10240000A9F90020FEF7A6F9A220FEF7A3F9002003
:10241000FEF7A0F9B320FEF79DF90020FEF79AF928
:10242000BE20FEF797F90020FEF794F9C420FEF7CE
:1024300091F90020FEF78EF9CD20FEF78BF90020F0
:10244000FEF788F9D320FEF785F90020FEF782F920
:10245000DC20FEF77FF90020FEF77CF9F320FEF781
:1024600079F90020FEF776F9E620FEF767F91120EA
:10247000FEF770F90020FEF76DF93420FEF76AF9D7
:102480000020FEF767F95620FEF764F90020FEF7FA
:1024900061F97620FEF75EF90020FEF75BF9772000
:1024A000FEF758F90020FEF755F96620FEF752F9BD
:1024B0000020FEF74FF98820FEF74CF90020FEF7C8
:1024C00049F99920FEF746F90020FEF743F9BB20B1
:1024D000FEF740F90020FEF73DF99920FEF73AF9A2
:1024E0000020FEF737F96620FEF734F90020FEF7EA
:1024F00031F95520FEF72EF90020FEF72BF9552073
:10250000FEF728F90020FEF725F94520FEF722F90D
:102510000020FEF71FF94320FEF71CF90020FEF70C
:1025200019F94420FEF716F90020FEF713F9E72009
:10253000FEF704F93220FEF70DF90020FEF70AF944
:102540005520FEF707F90020FEF704F97620FEF784
:1025500001F90020FEF7FEF86620FEF7FBF80020E8
:10256000FEF7F8F86720FEF7F5F80020FEF7F2F81E
:102570006720FEF7EFF80020FEF7ECF88720FEF763
:10258000E9F80020FEF7E6F89920FEF7E3F80020CE
:10259000FEF7E0F8BB20FEF7DDF80020FEF7DAF8E2
:1025A0009920FEF7D7F80020FEF7D4F87720FEF741
:1025B000D1F80020FEF7CEF84420FEF7CBF800203B
:1025C000FEF7C8F85620FEF7C5F80020FEF7C2F85F
:1025D0002320FEF7BFF80020FEF7BCF83320FEF7FB
:1025E000B9F80020FEF7B6F84520FEF7B3F8002052
:1025F000FEF7B0F8E820FEF7A1F80020FEF7AAF8F1
:102600000020FEF7A7F89920FEF7A4F80020FEF7B7
:10261000A1F88720FEF79EF80020FEF79BF888209F
:10262000FEF798F80020FEF795F87720FEF792F86D
:102630000020FEF78FF86620FEF78CF80020FEF7EA
:1026400089F88820FEF786F80020FEF783F8AA2094
:10265000FEF780F80020FEF77DF8BB20FEF77AF841
:102660000020FEF777F89920FEF774F80020FEF7B7
:1026700071F86620FEF76EF80020FEF76BF8552023
:10268000FEF768F80020FEF765F85520FEF762F8BF
:102690000020FEF75FF84420FEF75CF80020FEF70C
:1026A00059F84420FEF756F80020FEF753F855205D
:1026B000FEF750F80020FEF74DF8E920FEF73EF84F
:1026C000AA20FEF747F80020FEF744F80020FEF7A6
:1026D00041F80020FEF73EF80020FEF72FF8AA2070
:1026E000FEF738F8CF20FEF729F80020FEF732F881
:1026F0000020FEF72FF80020FEF72CF80020FEF750
:1027000029F80020FEF726F80020FEF723F8002025
:10271000FEF720F80020FEF71DF80020FEF71AF85B
:102720000020FEF717F80020FEF714F80020FEF74F
:1027300011F80020FEF70EF80020FEF70BF800203D
:10274000FEF708F80020FEF705F80020FEF702F873
:10275000F020FDF7F3FF0020FDF7FCFF5020FDF710
:10276000F9FF0020FDF7F6FF0020FDF7F3FF002042
:10277000FDF7F0FFF320FDF7E1FF0020FDF7EAFF92
:10278000F920FDF7DBFF0620FDF7E4FF1020FDF741
:10279000E1FF2920FDF7DEFF0020FDF7DBFF3A20F7
:1027A000FDF7CCFF5520FDF7D5FF1120FDF7C6FF43
:1027B000642003F02CFE2920FDF7C0FF3520FDF733
:1027C000BDFF0020FDF7C6FF5120FDF7B7FFFF203A
:1027D000FDF7C0FF5320FDF7B1FF2C20FDF7BAFF36
:1027E0005520FDF7ABFF8220FDF7B4FF2C20FDE361
:1027F000A0427CD14FF4704355211846FDF7C0FF2D
:102800004FF20104AA212046FDF7BAFF651C5221B0
:102810002846FDF7B5FFA61C08213046FDF7B0FF9E
:10282000E71C01213846FDF7ABFF0D214FF4304086
:10283000FDF7A6FF0D214BF20100FDF7A1FF0D21D1
:102840004BF20200FDF79CFF4FF4364C34216046FA
:10285000FDF796FF34214BF20160FDF791FF342123
:102860004BF20260FDF78CFF4FF431490D214846D1
:10287000FDF786FF4BF2011A0D215046FDF780FF50
:102880000D214BF20210FDF77BFF4FF4374B342143
:102890005846FDF775FF34214BF20170FDF770FFCC
:1028A00034214BF20270FDF76BFF00214FF43240F0
:1028B000FDF766FF00214BF20120FDF761FF0021CB
:1028C0004BF20220FDF75CFF24214FF43840FDF766
:1028D00057FF24214BF60100FDF752FF24214BF650
:1028E0000200FDF74DFF01214FF43F4000E0FCE303
:1028F000FDF746FF0F214FF43340FDF741FF0F2155
:102900004BF20130FDF73CFF0F214BF20230FDF797
:1029100037FF34214FF43940FDF732FF34214BF6B5
:102920000110FDF72DFF34214BF60210FDF728FFB3
:1029300008214FF43540FDF723FF08214BF20150E9
:10294000FDF71EFF08214BF20250FDF719FF03218E
:102950004FF44240FDF714FF24214FF43A40FDF7B5
:102960000FFF24214BF60120FDF70AFF24214BF62F
:102970000220FDF705FF00214FF43C40FDF700FF6A
:1029800078214BF60140FDF7FBFE00214BF602409B
:10299000FDF7F6FE00214FF43D40FDF7F1FE7821F2
:1029A0004BF60150FDF7ECFE00214BF60250FDF70F
:1029B000E7FE00214FF43E40FDF7E2FE64214BF6B6
:1029C0000160FDF7DDFE00214FF45140FDF7D8FE18
:1029D00033214DF20110FDF7D3FE00214DF202101C
:1029E000FDF7CEFE34214DF20310FDF7C9FE0021A4
:1029F0004DF20410FDF7C4FE3A214DF20510FDF72B
:102A0000BFFE00214DF20610FDF7BAFE4A214DF23D
:102A10000710FDF7B5FE00214DF20810FDF7B0FEDE
:102A20005C214DF20910FDF7ABFE00214DF20A10BA
:102A3000FDF7A6FE81214DF20B10FDF7A1FE00214E
:102A40004DF20C10FDF79CFEA6214DF20D10FDF786
:102A500097FE00214DF20E10FDF792FEE5214DF29A
:102A60000F10FDF78DFE01214DF21010FDF788FECD
:102A700013214DF21110FDF783FE01214DF21210CA
:102A8000FDF77EFE54214DF21310FDF779FE012172
:102A90004DF21410FDF774FE82214DF21510FDF772
:102AA0006FFE01214DF21610FDF76AFECA214DF2AC
:102AB0001710FDF765FE02214DF21810FDF760FEBC
:102AC00000214DF21910FDF75BFE02214DF21A10A4
:102AD000FDF756FE01214DF21B10FDF751FE0221BC
:102AE0004DF21C10FDF74CFE34214DF21D10FDF788
:102AF00047FE02214DF21E10FDF742FE67214DF206
:102B00001F10FDF73DFE02214DF22010FDF738FEAB
:102B100084214DF22110FDF733FE02214DF22210E7
:102B2000FDF72EFEA4214DF22310FDF729FE022110
:102B30004DF22410FDF724FEB7214DF22510FDF7CC
:102B40001FFE02214DF22610FDF71AFECF214DF295
:102B50002710FDF715FE02214DF22810FDF710FE9B
:102B6000DE214DF22910FDF70BFE02214DF22A1055
:102B7000FDF706FEF2214DF22B10FDF701FE0221BA
:102B80004DF22C10FDF7FCFDFE214DF22D10FDF74E
:102B9000F7FD03214DF22E10FDF7F2FD10214DF24D
:102BA0002F10FDF7EDFD03214DF23010FDF7E8FD8C
:102BB00033214DF23110FDF7E3FD03214DF23210C8
:102BC000FDF7DEFD6D214DF23310FDF7D9FD00213B
:102BD0004FF45240FDF7D4FD33214DF20120FDF7B3
:102BE000CFFD00214DF20220FDF7CAFD34214DF248
:102BF0000320FDF7C5FD00214DF20420FDF7C0FDC7
:102C00003A214DF20520FDF7BBFD00214DF20620D3
:102C1000FDF7B6FD4A214DF20720FDF7B1FD002179
:102C20004DF20820FDF7ACFD5C214DF20920FDF7C7
:102C3000A7FD00214DF20A20FDF7A2FD81214DF2F2
:102C40000B20FDF79DFD00214DF20C20FDF798FDB6
:102C5000A6214DF20D20FDF793FD00214DF20E202F
:102C6000FDF78EFDE5214DF20F20FDF789FD0121D5
:102C70004DF21020FDF784FD13214DF21120FDF7D8
:102C80007FFD01214DF21220FDF77AFD54214DF216
:102C90001320FDF775FD01214DF21420FDF770FDA5
:102CA00082214DF21520FDF76BFD01214DF216201A
:102CB000FDF766FDCA214DF21720FDF761FD0221E7
:102CC0004DF21820FDF75CFD00214DF21920FDF7B3
:102CD00057FD02214DF21A20FDF752FD01214DF260
:102CE0001B20FDF74DFD02214DF21C20FDF748FD94
:102CF00034214DF21D20FDF743FD02214DF21E202F
:102D0000FDF73EFD67214DF21F20FDF739FD022141
:102D10004DF22020FDF734FD84214DF22120FDF7F6
:102D20002FFD02214DF22220FDF72AFDA4214DF2B4
:102D30002320FDF725FD02214DF22420FDF720FD83
:102D4000B7214DF22520FDF71BFD02214DF2262073
:102D5000FDF716FDCF214DF22720FDF711FD0221D1
:102D60004DF22820FDF70CFDDE214DF22920FDF764
:102D700007FD02214DF22A20FDF702FDF2214DF25E
:102D80002B20FDF7FDFC02214DF22C20FDF7F8FC75
:102D9000FE214DF22D20FDF7F3FC03214DF22E20F4
:102DA000FDF7EEFC10214DF22F20FDF7E9FC032189
:102DB0004DF23020FDF7E4FC33214DF23120FDF7D8
:102DC000DFFC03214DF23220FDF7DAFC6D214DF2DC
:102DD0003320FDF7D5FC00214FF45340FDF7D0FC24
:102DE00033214DF20130FDF7CBFC00214DF20230D2
:102DF000FDF7C6FC34214DF20330FDF7C1FC002184
:102E00004DF20430FDF7BCFC3A214DF20530FDF7E0
:102E1000B7FC00214DF20630FDF7B2FC4A214DF21D
:102E20000730FDF7ADFC00214DF20830FDF7A8FC9E
:102E30005C214DF20930FDF7A3FC00214DF20A3070
:102E4000FDF79EFC81214DF20B30FDF799FC00212E
:102E50004DF20C30FDF794FCA6214DF20D30FDF73C
:102E60008FFC00214DF20E30FDF78AFCE5214DF27A
:102E70000F30FDF785FC01214DF21030FDF780FC8D
:102E800013214DF21130FDF77BFC01214DF2123080
:102E9000FDF776FC54214DF21330FDF771FC012152
:102EA0004DF21430FDF76CFC82214DF21530FDF728
:102EB00067FC01214DF21630FDF762FCCA214DF28C
:102EC0001730FDF75DFC02214DF21830FDF758FC7C
:102ED00000214DF21930FDF753FC02214DF21A305A
:102EE000FDF74EFC01214DF21B30FDF749FC02219C
:102EF0004DF21C30FDF744FC34214DF21D30FDF73E
:102F00003FFC02214DF21E30FDF73AFC67214DF2E5
:102F10001F30FDF735FC02214DF22030FDF730FC6B
:102F200084214DF22130FDF72BFC02214DF222309D
:102F3000FDF726FCA4214DF22330FDF721FC0221F0
:102F40004DF22430FDF71CFCB7214DF22530FDF782
:102F500017FC02214DF22630FDF712FCCF214DF275
:102F60002730FDF70DFC02214DF22830FDF708FC5B
:102F7000DE214DF22930FDF703FC02214DF22A300B
:102F8000FDF7FEFBF2214DF22B30FDF7F9FB02219C
:102F90004DF22C30FDF7F4FBFE214DF22D30FDF704
:102FA000EFFB03214DF22E30FDF7EAFB10214DF22D
:102FB0002F30FDF7E5FB03214DF23030FDF7E0FB4C
:102FC00033214DF23130FDF7DBFB03214DF232307E
:102FD000FDF7D6FB6D214DF23330FDF7D1FB00211B
:102FE0004FF45440FDF7CCFB332100E07FE34DF27A
:102FF0000140FDF7C5FB00214DF20240FDF7C0FB8B
:1030000034214DF20340FDF7BBFB00214DF204409B
:10301000FDF7B6FB3A214DF20540FDF7B1FB00216B
:103020004DF20640FDF7ACFB4A214DF20740FDF79B
:10303000A7FB00214DF20840FDF7A2FB5C214DF2F9
:103040000940FDF79DFB00214DF20A40FDF798FB7A
:1030500081214DF20B40FDF793FB00214DF20C4016
:10306000FDF78EFBA6214DF20D40FDF789FB0021F7
:103070004DF20E40FDF784FBE5214DF20F40FDF7C8
:103080007FFB01214DF21040FDF77AFB13214DF239
:103090001140FDF775FB01214DF21240FDF770FB69
:1030A00054214DF21340FDF76BFB01214DF214400A
:1030B000FDF766FB82214DF21540FDF761FB012112
:1030C0004DF21640FDF75CFBCA214DF21740FDF7AB
:1030D00057FB02214DF21840FDF752FB00214DF243
:1030E0001940FDF74DFB022100E003E34DF21A40C9
:1030F000FDF746FB01214DF21B40FDF741FB02218C
:103100004DF21C40FDF73CFB34214DF21D40FDF714
:1031100037FB02214DF21E40FDF732FB67214DF2D5
:103120001F40FDF72DFB02214DF22040FDF728FB4B
:1031300084214DF22140FDF723FB02214DF2224074
:10314000FDF71EFBA4214DF22340FDF719FB0221E0
:103150004DF22440FDF714FBB7214DF22540FDF759
:103160000FFB02214DF22640FDF70AFBCF214DF265
:103170002740FDF705FB02214DF22840FDF700FB3B
:10318000DE214DF22940FDF7FBFA02214DF22A40E3
:10319000FDF7F6FAF2214DF22B40FDF7F1FA02218C
:1031A0004DF22C40FDF7ECFAFE214DF22D40FDF7DB
:1031B000E7FA03214DF22E40FDF7E2FA10214DF21D
:1031C0002F40FDF7DDFA03214DF23040FDF7D8FA2C
:1031D00033214DF23140FDF7D3FA03214DF2324055
:1031E000FDF7CEFA6D214DF23340FDF7C9FA00210B
:1031F0004FF45540FDF7C4FA33214DF20150FDF76D
:10320000BFFA00214DF20250FDF7BAFA34214DF217
:103210000350FDF7B5FA00214DF20450FDF7B0FA66
:103220003A214DF20550FDF7ABFA00214DF2065060
:10323000FDF7A6FA4A214DF20750FDF7A1FA002149
:103240004DF20850FDF79CFA5C214DF20950FDF754
:1032500097FA00214DF20A50FDF792FA81214DF2C2
:103260000B50FDF78DFA00214DF20C50FDF788FA56
:10327000A6214DF20D50FDF783FA00214DF20E50BC
:10328000FDF77EFAE5214DF20F50FDF779FA0121A5
:103290004DF21050FDF774FA13214DF21150FDF765
:1032A0006FFA01214DF21250FDF76AFA54214DF2E6
:1032B0001350FDF765FA01214DF21450FDF760FA45
:1032C00082214DF21550FDF75BFA01214DF21650A7
:1032D000FDF756FACA214DF21750FDF751FA0221B7
:1032E0004DF21850FDF74CFA00214DF21950FDF740
:1032F00047FA02214DF21A50FDF742FA01214DF230
:103300001B50FDF73DFA02214DF21C50FDF738FA33
:1033100034214DF21D50FDF733FA02214DF21E50BB
:10332000FDF72EFA67214DF21F50FDF729FA022111
:103330004DF22050FDF724FA84214DF22150FDF783
:103340001FFA02214DF22250FDF71AFAA4214DF284
:103350002350FDF715FA02214DF22450FDF710FA23
:10336000B7214DF22550FDF70BFA02214DF2265000
:10337000FDF706FACF214DF22750FDF701FA0221A1
:103380004DF22850FDF7FCF9DE214DF22950FDF7F2
:10339000F7F902214DF22A50FDF7F2F9F2214DF230
:1033A0002B50FDF7EDF902214DF22C50FDF7E8F915
:1033B000FE214DF22D50FDF7E3F903214DF22E5081
:1033C000FDF7DEF910214DF22F50FDF7D9F9032159
:1033D0004DF23050FDF7D4F933214DF23150FDF765
:1033E000CFF903214DF23250FDF7CAF96D214DF2AC
:1033F0003350FDF7C5F900214FF45640FDF7C0F9F1
:1034000033214DF20160FDF7BBF900214DF202605E
:10341000FDF7B6F934214DF20360FDF7B1F9002153
:103420004DF20460FDF7ACF93A214DF20560FDF76D
:10343000A7F900214DF20660FDF7A2F94A214DF2ED
:103440000760FDF79DF900214DF20860FDF798F93E
:103450005C214DF20960FDF793F900214DF20A60FD
:10346000FDF78EF981214DF20B60FDF789F90021FE
:103470004DF20C60FDF784F9A6214DF20D60FDF7C9
:103480007FF900214DF20E60FDF77AF9E5214DF24A
:103490000F60FDF775F901214DF21060FDF770F92D
:1034A00013214DF21160FDF76BF901214DF212600D
:1034B000FDF766F954214DF21360FDF761F9012122
:1034C0004DF21460FDF75CF982214DF21560FDF7B5
:1034D00057F901214DF21660FDF752F9CA214DF25C
:1034E0001760FDF74DF902214DF21860FDF748F91C
:1034F00000214DF21960FDF743F902214DF21A60E7
:10350000FDF73EF901214DF21B60FDF739F902216B
:103510004DF21C60FDF734F934214DF21D60FDF7CA
:103520002FF902214DF21E60FDF72AF967214DF2B5
:103530001F60FDF725F902214DF22060FDF720F90B
:1035400084214DF22160FDF71BF902214DF222602A
:10355000FDF716F9A4214DF22360FDF711F90221C0
:103560004DF22460FDF70CF9B7214DF22560FDF70F
:1035700007F902214DF22660FDF702F9CF214DF245
:103580002760FDF7FDF802214DF22860FDF7F8F8FD
:10359000DE214DF22960FDF7F3F802214DF22A6099
:1035A000FDF7EEF8F2214DF22B60FDF7E9F802216C
:1035B0004DF22C60FDF7E4F8FE214DF22D60FDF791
:1035C000DFF803214DF22E60FDF7DAF810214DF2FD
:1035D0002F60FDF7D5F803214DF23060FDF7D0F8EC
:1035E00033214DF23160FDF7CBF803214DF232600B
:1035F000FDF7C6F86D214DF23360FDF7C1F8552196
:103600001846FDF7BDF8AA212046FDF7B9F852216A
:103610002846FDF7B5F808213046FDF7B1F800213E
:103620003846FDF7ADF8CC214846FDF7A9F8002152
:103630005046FDF7A5F805216046FDF7A1F8702179
:103640005846FDF79DF870214BF20170FDF798F890
:1036500001214FF43840FDF793F803214BF60100A8
:10366000FDF78EF803214BF60200FDF789F80321E0
:103670004BF60300FDF784F802214FF43C40FDF7C0
:103680007FF800214BF60140FDF77AF800214BF658
:103690000240FDF775F8D0214FF44940FDF770F86E
:1036A00002214CF60110FDF76BF850214CF6021088
:1036B000FDF766F850214CF60310FDF761F8502134
:1036C0004CF60410FDF75CF800214FF45450FDF760
:1036D00057F855214FF46850FDF752F84FF48850D1
:1036E000FDF72CF8782002F064FE4FF42450FDF72B
:1036F00025F8FEE0A0F513414FF480744FF4E06725
:1037000040F2022A40F23F1B4FF4274625397DD074
:10371000FD1DA0F51341283979D0A0F513414FF4D0
:1037200088794FF41C56203972D0A0F513413139F5
:103730006FD0A0F5A84108396CD0A0F5A8514FF47E
:103740004079053967D0A0F5354105397ED0A0F51F
:10375000454105397BD0A0F58A41313978D0A0F5B3
:103760008A41353975D09042C3D1E220FCF7E6FF9B
:103770001D20FCF7EFFF0220FCF7ECFF0420FCF714
:10378000E9FF642002F015FEE020FCF7D7FF0120DE
:10379000FCF7E0FF0A2002F03AFEE020FCF7CEFF43
:1037A0000320FCF7D7FF0C2002F031FE0120FCF7CC
:1037B000C5FF0A2002F02BFEE620FCF7BFFF2F20FA
:1037C000FCF7C8FFFF20FCF7C5FFFF20FCF7C2FF96
:1037D000B020FCF7B3FF2020FCF7BCFF0020FCF773
:1037E000B9FF0320FCF7B6FF40F21F30FCF7B2FF31
:1037F0000120FCF7AFFF40F2DF10FCF7ABFF002029
:10380000FCF7A8FFB420FCF799FF05E07EE048E153
:10381000FFE1A5E279E3FDE30420FCF79BFF40F222
:103820001F40FCF797FF0020FCF794FF2E20FCF7C9
:1038300091FF0020FCF78EFF0020FCF78BFF00209B
:10384000FCF788FF0020FCF785FF03E0FAE3FAE3CA
:10385000FAE3FAE3B620FCF771FF0220FCF77AFFE7
:103860004FF40370FCF776FF0020FCF773FF17207E
:10387000FCF770FF1520FCF76DFF0020FCF76AFFD6
:103880000020FCF767FFF020FCF758FF0320FCF74F
:1038900061FF2920FCF752FFD020FCF74FFF0020EA
:1038A000FCF758FFBE20FCF749FF0520FCF752FF4C
:1038B000FE20FCF74FFF0120FCF74CFF0020FCF737
:1038C00049FF0020FCF746FF0020FCF743FFB8202B
:1038D000FCF734FF0320FCF73DFF0120FCF73AFF23
:1038E000BA20FCF72BFF0120FCF734FF6420FDF722
:1038F0005EFA0020FDF77EFAFE490120C1F8BC0205
:103900004046FDF703FC21B0BDE8F08F47F6F0011B
:10391000E520FCF735FF21460120FCF731FF394651
:103920000220FCF72DFF41F230010320FCF728FFB5
:1039300000210420FCF724FF51460820FCF720FF5B
:1039400000210920FCF71CFF00210A20FCF718FFCA
:1039500000210C20FCF714FF00210D20FCF710FFC4
:1039600000210F20FCF70CFF00211020FCF708FFBE
:1039700007211120FCF704FF00211220FCF700FFB3
:1039800000211320FCF7FCFE00210720FCF7F8FEC5
:1039900041F290611020FCF7F3FE40F22721112044
:1039A000FCF7EEFE9D211220FCF7EAFE4FF4C85111
:1039B0001320FCF7E5FE25212920FCF7E1FE0D216F
:1039C0002B20FCF7DDFE07213020FCF7D9FE40F26A
:1039D00003313120FCF7D4FE03213220FCF7D0FE66
:1039E00040F206213520FCF7CBFE08213620FCF7FB
:1039F000C7FE40F206413720FCF7C2FE4FF441718A
:103A00003820FCF7BDFE07213920FCF7B9FE40F253
:103A100002613C20FCF7B4FE08213D20FCF7B0FE1B
:103A200000215020FCF7ACFEEF215120FCF7A8FE4E
:103A300000215220FCF7A4FE59465320FCF7A0FEBB
:103A400031466020FCF79CFE01216120FCF798FEC6
:103A500000216A20FCF794FE00218020FCF790FEF4
:103A600000218120FCF78CFE00218220FCF788FEDB
:103A700000218320FCF784FE00218420FCF780FED7
:103A800000218520FCF77CFE10219020FCF778FEB9
:103A90004FF4C0619220FCF773FE40F2331107200F
:103AA000FEE341F28F01EC20FCF76AFE41F2342183
:103AB000EF20FCF765FE21460120FCF761FE394648
:103AC0000220FCF75DFE41F230010320FCF758FEB6
:103AD00000210420FCF754FE51460820FCF750FE5C
:103AE00000210920FCF74CFE00210A20FCF748FECB
:103AF00001210C20FCF744FE00210D20FCF740FEC4
:103B000000210F20FCF73CFE00211020FCF738FEBE
:103B100007211120FCF734FE00211220FCF730FEB3
:103B200000211320FCF72CFE01210720FCF728FEC2
:103B3000322002F06CFC41F290411020FCF720FE94
:103B400040F227211120FCF71BFE322002F05FFC1F
:103B50008A211220FCF714FE322002F058FC4FF4A8
:103B6000D0511320FCF70CFE06212920FCF708FE9B
:103B70000D212B20FCF704FE322002F048FC00212E
:103B80002020FCF7FDFD00212120FCF7F9FD32206B
:103B900002F03DFC00213020FCF7F2FD40F2046110
:103BA0003120FCF7EDFD40F205313220FCF7E8FD55
:103BB00000213520FCF7E4FD40F609413620FCF7F2
:103BC000DFFD4FF401713720FCF7DAFD40F20131DF
:103BD0003820FCF7D5FD29463920FCF7D1FD00211E
:103BE0003C20FCF7CDFD40F60A213D20FCF7C8FD46
:103BF000322002F00CFC00215020FCF7C1FDEF2127
:103C00005120FCF7BDFD00215220FCF7B9FD5946BB
:103C10004CE100210846FCF7B3FD21460120FCF7EA
:103C2000AFFD39460220FCF7ABFD41F23001032025
:103C3000FCF7A6FD00210420FCF7A2FD5146082058
:103C4000FCF79EFD00210920FCF79AFD00210A20C7
:103C5000FCF796FD01210C20FCF792FD00210D20C0
:103C6000FCF78EFD00210F20FCF78AFD322002F0C8
:103C7000CEFB40F201110720FCF782FD322002F05A
:103C8000C6FB4FF486511020FCF77AFD0721112066
:103C9000FCF776FD4B4649461220FCF771FD4FF4C8
:103CA00030611320FCF76CFD00212920FCF768FD32
:103CB00044F210012B20FCF763FD00215020FCF79B
:103CC0005FFDEF215120FCF75BFD00215220FCF746
:103CD00057FD59465320FCF753FD31466020FCF751
:103CE0004FFD01216120FCF74BFD00216A20FCF70C
:103CF00047FD01E00080404200218020FCF740FDAC
:103D000000218120FCF73CFD00218220FCF738FDDA
:103D100000218320FCF734FD00218420FCF730FDD6
:103D200000218520FCF72CFD10219020FCF728FDB8
:103D300000219220FCF724FD01219320FCF720FDB7
:103D400019469520FCF71CFD00219720FCF718FD73
:103D500000219820FCF714FD40F2731107207CE34A
:103D600041F21401E720FCF70BFD21460120FCF78E
:103D700007FD4FF400710220FCF702FD41F238010B
:103D80000320FCF7FDFC51460820FCF7F9FC00215C
:103D90000920FCF7F5FC00210A20FCF7F1FC0021CA
:103DA0000C20FCF7EDFC00210D20FCF7E9FC0021C4
:103DB0000F20FCF7E5FC00211020FCF7E1FC0721B7
:103DC0001120FCF7DDFC00211220FCF7D9FC0021BA
:103DD0001320FCF7D5FCC82002F019FB41F29061DA
:103DE0001020FCF7CDFC40F227211120FCF7C8FC85
:103DF000322002F00CFB0C211220FCF7C1FC322017
:103E000002F005FB4FF400611320FCF7B9FC11210F
:103E10002920FCF7B5FC0B212B20FCF7B1FC32204C
:103E200002F0F5FA00212020FCF7AAFC5B46594677
:103E30002120FCF7A5FC00213020FCF7A1FC4FF469
:103E4000837421463120FCF79BFC00213220FCF7D3
:103E500097FC4FF401713520FCF792FC41F20A61A6
:103E60003620FCF78DFC29463720FCF789FC2146DB
:103E70003820FCF785FC29463920FCF781FC40F20C
:103E800002413C20FCF77CFC40F60F413D20FCF752
:103E900077FC00215020FCF773FCEF215120FCF748
:103EA0006FFC00215220FCF76BFC19465320FCF7F5
:103EB00067FC31466020FCF763FC01216120FCF7C0
:103EC0005FFC00216A20FCF75BFC00218020FCF7EE
:103ED00057FC00218120FCF753FC00218220FCF7D5
:103EE0004FFC00218320FCF74BFC00218420FCF7D1
:103EF00047FC00218520FCF743FC10219020FCF7B3
:103F00003FFC4FF4C0619220FEE321460120FCF704
:103F100037FC39460220FCF733FC41F23001032024
:103F2000FCF72EFC00210420FCF72AFC40F20721BC
:103F30000820FCF725FC00210920FCF721FC0021CA
:103F40000A20FCF71DFC00210C20FCF719FC0021C5
:103F50000D20FCF715FC00210F20FCF711FC1420AC
:103F600002F055FA41F2B0611020FCF709FC012182
:103F70001120FCF705FC01211720FCF701FC4FF490
:103F80009C711220FCF7FCFB4FF400611320FCF73E
:103F9000F7FB09212920FCF7F3FB09212A20FCF774
:103FA000EFFB0021A420FCF7EBFB00215020FCF7E5
:103FB000E7FBEF215120FCF7E3FB00215220FCF747
:103FC000DFFB59465320FCF7DBFB31466020FCF752
:103FD000D7FB01216120FCF7D3FB00216A20FCF70D
:103FE000CFFB00218020FCF7CBFB00218120FCF7D8
:103FF000C7FB00218220FCF7C3FB00218320FCF7D4
:10400000BFFB00218420FCF7BBFB00218520FCF7CF
:10401000B7FB00E01AE013219020FCF7B1FB002170
:104020009220FCF7ADFB03219320FCF7A9FB494646
:104030009520FCF7A5FB40F273110720FCF7A0FBCD
:1040400032200BE10EE109E2D0E285E300210720F6
:10405000FCF796FB322002F0DAF94FF48E71122051
:10406000FCF78EFB0121A420FCF78AFB0F2108201E
:10407000FCF786FB08210A20FCF782FB08210D20B3
:10408000FCF77EFB2B4629463020FCF779FB072105
:104090003120FCF775FB40F203613220FCF770FB26
:1040A0003D4639463320FCF76BFB51463420FCF784
:1040B00067FB02213520FCF763FB41F60F713620C8
:1040C000FCF75EFB19463720FCF75AFB002138202D
:1040D000FCF756FB00213920FCF752FB19463A2029
:1040E000FCF74EFB00213B20FCF74AFB07213C205C
:1040F000FCF746FB00213D20FCF742FB322002F09A
:1041000086F901210720FCF73BFB01211720FCF772
:1041100037FB322002F07BF94FF4BD511020FCF741
:104120002FFB40F217211120FCF72AFB4FF48F716F
:104130001220FCF725FB4FF470611320FCF720FBE5
:1041400000212A20FCF71CFB0A212920FCF718FB80
:104150004FF49F711220FCF713FB00215020FCF755
:104160000FFBEF215120FCF70BFB00215220FCF745
:1041700007FB59465320FCF703FB31466020FCF750
:10418000FFFA01216120FCF7FBFA00216A20FCF70D
:10419000F7FA00218020FCF7F3FA00218120FCF7D8
:1041A000EFFA00218220FCF7EBFA00218320FCF7D4
:1041B000E7FA00218420FCF7E3FA00218520FCF7D0
:1041C000DFFA13219020FCF7DBFA49469220FCF736
:1041D000D7FA05219320FCF7D3FA00219520FCF7AC
:1041E000CFFA00219720FCF7CBFA00219820FCF7AA
:1041F000C7FA21460120FCF7C3FA29460220FCF742
:10420000BFFA41F238010320FCF7BAFA002104207A
:10421000FCF7B6FA00210C20FCF7B2FA00210F20BF
:10422000FCF7AEFA00212020FCF7AAFA0021212099
:10423000FCF7A6FA21210720FCF7A2FA142002F0CD
:10424000E6F861210720FCF79BFA142002F0DFF862
:1042500040F273110720FCF793FA142002F0D7F80C
:10426000FFF747BB00210846FCF78AFA0021084601
:10427000FCF786FA00210846FCF782FA002108467E
:10428000FCF77EFA0121A420FCF77AFA142002F050
:10429000BEF831466020FCF773FA5546514600E0FF
:1042A000D7E00820FCF76CFA4FF405713020FCF7DA
:1042B00067FA43F215713120FCF762FA40F20461AB
:1042C0003220FCF75DFA40F616613320FCF758FA0D
:1042D00042F211213420FCF753FA4FF4A851352053
:1042E000FCF74EFA48F207513620FCF749FA41F242
:1042F00007413720FCF744FA41F203413820FCF72C
:104300003FFA20213920FCF73BFA1A219020FCF7D4
:1043100037FA00211020FCF733FA07211120FCF7AF
:104320002FFA00211220FCF72BFA00211320FCF7B2
:1043300027FA142002F06BF84FF4E6611020FCF726
:104340001FFA40F237111120FCF71AFA142002F07C
:104350005EF84FF4DC711220FCF712FA142002F020
:1043600056F84FF470611320FCF70AFA80212A20D6
:10437000FCF706FA48212920FCF702FA142002F083
:1043800046F821460120FCF7FBF939460220FCF7EC
:10439000F7F941F238010320FCF7F2F92946082029
:1043A000FCF7EEF900210A20FCF7EAF900210C20C5
:1043B000FCF7E6F900210D20FCF7E2F930210E2090
:1043C000FCF7DEF900215020FCF7DAF9EF2151204B
:1043D000FCF7D6F900215220FCF7D2F959465320B8
:1043E000FCF7CEF931466020FCF7CAF901216120C3
:1043F000FCF7C6F900216A20FCF7C2F911219020D0
:10440000FCF7BEF94FF4C0619220FCF7B9F940F215
:1044100002419320FCF7B4F902219420FCF7B0F993
:10442000142001F0F4FF01210720FCF7A9F9142062
:1044300001F0EDFF61210720FCF7A2F940F27311B2
:104440000720FCF79DF900212020FCF799F90021B5
:104450002120FCF795F9222100207AE1002108466D
:10446000FCF78EF900210846FCF78AF9142001F0C8
:10447000CEFF00210846FCF783F900210846FCF72F
:104480007FF900210846FCF77BF900210846FCF77C
:1044900077F90121A420FCF773F9142001F0B7FF8C
:1044A00031466020FCF76CF940F606010820FCF765
:1044B00067F940F2037319463020FCF761F90121D6
:1044C0003120FCF75DF904213220FCF759F94FF453
:1044D00081713320FCF754F94D4649463420FCF7EE
:1044E0004FF940F203113520FCF74AF91F2136201D
:1044F000FCF746F919463720FCF742F9012138202C
:10450000FCF73EF904213920FCF73AF915219020F7
:10451000FCF736F94FF482611020FCF731F940F2D4
:1045200047211120FCF72CF94FF4DE711220FCF723
:1045300027F94FF460611320FCF722F9782001F08D
:1045400066FF21460120FCF71BF94FF400710220A1
:10455000FCF716F941F230010320FCF711F90821AC
:104560000A20FCF70DF900210C20FCF709F92021A5
:104570000E20FCF705F900210F20FCF701F90021BE
:104580002020FCF7FDF800212120FCF7F9F83D215F
:104590002A20FCF7F5F8142001F039FF2D212920FD
:1045A000FCF7EEF800215020FCF7EAF84DF2EF019D
:1045B0005120FCF7E5F800215220FCF7E1F85946BC
:1045C0005320FCF7DDF800216120FCF7D9F8002129
:1045D0006A20FCF7D5F829469220FCF7D1F805218E
:1045E0009320FCF7CDF82146FFF7B8BB012100204E
:1045F000FCF7C6F80A2001F00AFF41F228611020FA
:10460000FCF7BEF80E211220FCF7BAF840F639216B
:104610001320FCF7B5F80A2001F0F9FE4021112023
:10462000FCF7AEF850211520FCF7AAF80A2001F09B
:10463000EEFE1E211220FCF7A3F80A2001F0E7FE8F
:104640004FF4B1511020FCF79BF842F639211320AA
:10465000FCF796F80A2001F0DAFE21460120FCF76B
:104660008FF849460220FCF78BF841F2380103200D
:10467000FCF786F851460820FCF782F808210A204A
:10468000FCF77EF800213020FCF77AF840F2024176
:104690003120FCF775F84FF483713220FCF770F885
:1046A00040F203513320FCF76BF84FF48271342051
:1046B000FCF766F840F201313520FCF761F8294635
:1046C0003620FCF75DF840F205313720FCF758F84A
:1046D0004FF402713820FCF753F840F60B71392083
:1046E000FCF74EF802214120FCF74AF831466020E1
:1046F000FCF746F801216120FCF742F84FF4047101
:104700009020FCF73DF800E0C8E04FF4857192205E
:10471000FCF736F804219320FCF732F82146A0205C
:10472000FCF72EF801210720FCF72AF821210720A9
:10473000FCF726F823210720FCF722F83321072075
:10474000FCF71EF840F233110720FCF719F800219E
:10475000A020FCF715F883E530211520FCF710F8B0
:1047600010219A20FCF70CF820211120FCF708F802
:1047700043F228411020FCF703F802211220FBF736
:10478000FFFF41F238011320FBF7FAFF282001F068
:104790003EFE12210846FBF7F3FF282001F037FE0A
:1047A00043F220411020FBF7EBFF43F238011320C6
:1047B000FBF7E6FF462001F02AFE00213020FBF740
:1047C000DFFF40F202413120FBF7DAFF40F2073110
:1047D0003220FBF7D5FF4FF441713320FBF7D0FFB8
:1047E00004213420FBF7CCFF40F201413520FBF7D8
:1047F000C7FF29463620FBF7C3FF40F205313720BB
:10480000FBF7BEFF4FF4C26319463820FBF7B8FF31
:1048100019463920FBF7B4FF21460120FBF7B0FF12
:1048200049460220FBF7ACFF41F230010320FBF7C1
:10483000A7FF40F608010820FBF7A2FF08210A2085
:10484000FBF79EFF31466020FBF79AFF01216120B4
:10485000FBF796FF4FF49F719020FBF791FF2146E5
:104860009220FBF78DFF21469320FBF789FF4FF441
:104870004051A020FBF784FF1021A320FBF780FF0D
:1048800001210720FBF77CFF21210720FBF778FFA0
:1048900023210720FBF774FF33210720FBF770FF6C
:1048A00040F23311A0E62DE9F843FB4D1F46804648
:1048B000AB88089EA3F5D040043802D1A87901281E
:1048C00007D0A2EB0800401C85B20C464FF0D84937
:1048D00029E02B880846991A0024AC713A462A240C
:1048E000A3EB08036C812B27491E5B1EAF8189B2A5
:1048F0009BB20096FFF7D7FF0120A8716F81AC81B2
:10490000BDE8F88321464046FBF762FFFBF747FF0F
:104910000020494603E0A1F88060401C80B2A84214
:10492000F9D3641CA4B2BC42ECD9E9E72DE9F04705
:104930008246A2EB0A00401C0E4685B2981B401C22
:1049400087B200244FF0D849DDF8208015E03019F7
:1049500081B25046FBF73CFFFBF721FF00204946A0
:1049600007E004FB050338F81320A1F88020401C61
:1049700080B2A842F5D3641CA4B2BC42E7D3BDE820
:10498000F0872DE9FE4F0026A2EB000882465F1A51
:10499000701E35468946B8F1000F02DD4FF0010167
:1049A00002E003D14FF00001019102E0C8F10008DC
:1049B0000190002F02DD4FF0010002E003D14FF023
:1049C0000000009002E0C7F1000700904046B845A3
:1049D00001DD044600E03C46601C4FF0000B0290F5
:1049E00015E01FFA89F11FFA8AF0FCF74FF94644E7
:1049F0003D44A64202DD0199361B8A44A54202DDF0
:104A000000992D1B89440BF101001FFA80FB0299CC
:104A10008B45E6DDBDE8FE8FF0B51C4615460E461B
:104A200007460B46FFF7ADFF3A4623463146104690
:104A3000FFF7A7FF23462A4619463846FFF7A1FF8E
:104A40002A4623463146BDE8F040104699E72DE955
:104A5000FC4F80460024154603200F46A0EB450678
:104A600049E0781B81B208EB040A01901FFA8AF032
:104A7000FCF70CF9381B81B208EB050900901FFA0E
:104A800089F0FCF703F907EB040B1FFA8BF11FFA0F
:104A900089F0FCF7FBF807EB05091FFA89F11FFA0B
:104AA0008AF0FCF7F3F8A8EB040A1FFA89F11FFA61
:104AB0008AF0FCF7EBF8A8EB05091FFA8BF11FFA57
:104AC00089F0FCF7E3F8019881B21FFA8AF0FCF74D
:104AD000DDF8009881B21FFA89F0FCF7D7F8641C62
:104AE000002E03DA06EB8406B61D04E0601B06EB1D
:104AF00080066D1E0A36AC42B3DDBDE8FC8F2DE9A1
:104B0000F84F82461F460C468B46580700D00120BE
:104B100000EBD700790810FB01F0203AC0B202F098
:104B2000FF090026009041E00C2F10D0102F12D06A
:104B3000182F3ED1594909EBC90001EB80004FF015
:104B40000008855D28060AD5554802880BE009EB68
:104B500049005449F1E7544901EB0910EFE70A987D
:104B600028B94F48428821465046FCF79BF8680612
:104B7000050E4948641CA4B24088A04219D9A4EB90
:104B80000B00B84209D10AF101001FFA80FA42482D
:104B90005C46018851450CD906E008F1010000F09F
:104BA000FF08B8F1080FCDD3761CF6B20098864204
:104BB000BAD3BDE8F88F0346012000E05843491EF0
:104BC000C9B2FBD270472DE9FF4F81B00027DDF855
:104BD00038B01D46924680463C46B9464FEA5B06D1
:104BE00027E0281B401EC1B20A20FFF7E4FFBAFBF2
:104BF000F0F00A21B0FBF1F201FB120027B9691EA7
:104C00008C4201DA48B101273030C2B206FB048081
:104C100080B25B46CDF8009006E006FB048080B2CF
:104C20005B462022CDF800900299FFF768FF641CD4
:104C3000E4B2AC42D5D305B0BDE8F08F2DE9FF4F0B
:104C400081B08046DDF83CA00E984FF000091F4669
:104C500093464C460AF00105460835E0381B401ED5
:104C6000C1B20A20FFF7A7FFBBFBF0F00A21B0FB9F
:104C7000F1F201FB1200B9F1000F05D1791E8C424F
:104C800002DA98B14FF001093030C2B206FB04805D
:104C900080B200950E9B12E000040020003F030844
:104CA0005C0000209C340308103903085FEA0A60A6
:104CB00006FB04800E9B80B2009508D53022029935
:104CC000FFF71DFF641CE4B2BC42C7D3B3E7202248
:104CD000F5E72DE9F84F044600F0FF0810190D46DE
:104CE000DDE90A761FFA80FA58191FFA80F94FF0A9
:104CF000000B11E0544502D3E819444685B24D45F6
:104D00000FD23B4629462046CDF800B0FFF7F7FE0C
:104D100004EB570084B2761C3278A2F120005E28A2
:104D2000E8D946E77CB50121152002F054FA0025A8
:104D30001C208DF80450032600908DF80560012496
:104D40008DF8074069463B4801F01EFE0E208DF8A5
:104D5000044000908DF805608DF80750694636488C
:104D600001F012FE02208DF80700009469463348D6
:104D700001F00AFE7CBD2DE9F041314C2F4F2D4D45
:104D8000012608B1267001E02078A0B11021284644
:104D900001F04BFEB0B10821284601F046FE88B173
:104DA0000421284601F041FE60B10121384601F09E
:104DB0003CFE012806D01021284601F036FE0128CD
:104DC00024D035E00A2001F022FB002020701021C1
:104DD000284601F02AFE80B10821284601F025FE70
:104DE00070B10421284601F020FE58B10121384657
:104DF00001F01BFE012807D01AE00120BDE8F08178
:104E00000220FBE70320F9E70420F7E70821284602
:104E100001F00BFE01280BD10421284601F005FE0C
:104E2000012805D10121384601F0FFFD00B92670A7
:104E30000020E3E7001002400008024000000240AA
:104E400060000020022001F0B4BA1CB5012122202C
:104E500002F0C1F901248DF8044000208DF806000D
:104E600000948DF807406946854801F08DFDE00209
:104E700000908DF804406946824801F085FD1CBD14
:104E800070B58048016821F440010160016841F477
:104E9000800101607C4E0120C6F8AC027B4DC5F854
:104EA00080021E2005F5207506F52B7601F081FAAB
:104EB00000243460022001F07CFA2C6070BD70B5D3
:104EC0007048016821F440010160016841F48001EB
:104ED00001606E480125C0F880521E2001F069FA79
:104EE000694C0020C4F8AC02022004F52B7401F0D8
:104EF00060FA256070BD70B562480024016821F435
:104F000040010160016801605F4D0120C5F8AC02FD
:104F10005E4EC6F8800207E0641CE4B2FA2C03D9A6
:104F2000FFF7CDFF012070BD022001F042FAD5F855
:104F30002C020028F0D1C6F8800270BD70B5534C29
:104F40000025C4F880524F48016821F440010160F7
:104F5000016841F480010160022004F5207401F031
:104F600028FA4948C0F8AC52022001F022FA012088
:104F70002060022001F01DFA256070BD70B5434C21
:104F80000026C4F880623F48016821F440010160B6
:104F9000016841F480010160022004F5207401F0F1
:104FA00008FA39480125C0F8AC52022001F001FA94
:104FB0002560022001F0FDF9266070BD2DE9F04763
:104FC00005463048016821F440010160016841F460
:104FD000800101602D4E0027C6F88072022001F08A
:104FE000E8F9DFF8A48000244FF00109E909C8F8C6
:104FF000AC126806050EC6F88092022001F0D9F9BD
:10500000C6F88072022001F0D4F9641CE4B2082CC6
:10501000ECD3BDE8F0872DE9F0478246194800241B
:10502000016821F440010160016801601E2001F067
:10503000C0F90025154EDFF850902F464FF00108BB
:10504000C6F88072022001F0B4F9C6F8808202200E
:1050500001F0AFF96006040ED9F82C0208B1641C07
:10506000E4B26D1CEDB2082DEAD3BAF1000F03D003
:10507000FFF764FF2046CCE7FFF780FFFAE7000068
:10508000000402400014024000804242008040427E
:105090002DE9F04115460E4604460027FFF7F0FEC5
:1050A0007020FFF78BFFFFF726FFE0B2FFF786FFC8
:1050B000FFF721FF002408E0305DFFF77FFFFFF7D7
:1050C0001AFF070003D1641CE4B2AC42F4D3FFF72B
:1050D000F6FE3846BDE8F0812DE9F04115460F4651
:1050E0000446FFF7CDFE7020FFF768FFFFF703FFD0
:1050F000E0B2FFF763FFFFF7FEFEFFF7C1FE71208E
:10510000FFF75CFFFFF7F7FE00246E1E09E0B442D4
:1051100001D0012000E00020FFF77DFF3855641C1E
:10512000E4B2AC42F3D3BDE8F041FFF7C8BE7CB5B2
:105130000121062002F04FF800248DF804400220DF
:105140008DF80640032600908DF8056001258DF846
:1051500007506946584801F017FC68038DF8045061
:1051600000908DF806408DF805606946534801F0BF
:105170000BFCFFF76AFE524EC6F8B442142006F547
:105180002D7601F044F93560322001F040F901201C
:105190007CBD2DE9F1434B4F00244FF00A093878CC
:1051A00082B0401CC0B2B0FBF9F209FB1201464DBF
:1051B000A046387009B10A2863D2012202A9022050
:1051C000FFF78AFF9DF8080001075AD000F00F0092
:1051D000062856D2FF218140C84340F0C00085F820
:1051E00020004FF00108002695F8201008FA04F07E
:1051F000014239D035480422694630F81400FFF7DF
:105200006BFF95F830009DF80010C0079DF8010075
:1052100001F00F010ED000EB012105EB4400C1822B
:105220009DF802209DF8031002F00F0201EB02210D
:1052300081810FE000EB0120C0F5F07105EB440027
:1052400081819DF802209DF8031002F00F0201EB0E
:105250000221C1829DF800000821B1EB101F03D08C
:1052600005EB4400C6828681641CE4B2052CBBD3E6
:10527000A9894FF0010819B9E88A08B98DF80860C2
:105280003E709DF80800C0060ED195F8200001067A
:1052900002D520F0800005E04FF6FF71A981E98278
:1052A00000F0E00085F820003878F02801D987F870
:1052B00000904046BDE8FE83000402400008024022
:1052C0000000414261000020680000205C4C03089F
:1052D0002DE9F0470024FF4EFF4F0546A0464FF052
:1052E0000109280601D5484600E04046C6F8AC0250
:1052F0006806050EC7F88082012001F05AF8C7F849
:105300008092012001F055F8641CE4B2082CE8D327
:10531000BDE8F0872DE9F0470025EF4F2C462E46DB
:10532000C7F88052EB49C1F8AC52DFF8B0A3CAF815
:10533000B45207F52077FFF7CBFF062001F039F8CC
:105340003E60012001F035F84FF00108C7F80080F9
:10535000404601F02EF83E60B14646464FF6FF78D3
:10536000A7F5207708EA4404C7F88092012001F0ED
:1053700020F8C7F88062012001F01BF8D7F8080276
:1053800008B1641CA4B26D1CEDB2102DEAD3200943
:10539000CAF8B462BCE7FEB5064600246D46304646
:1053A000FFF7B8FF25F81400641CA4B2052CF6D34F
:1053B00000214C1CA0B20BE035F8113035F810205C
:1053C000934203D925F8112025F81030401C80B2F3
:1053D0000528F1D3A1B20429EBD30021012035F82F
:1053E0001020401C114480B289B20428F7D3032056
:1053F000B1FBF0F0FEBD2DE9F041B94F06460D4678
:105400003878FFF7C8FF04467878FFF7C4FF348088
:1054100028800120BDE8F08170B586B00C460546B5
:10542000694604A8FFF7E7FF00282FD001A903A8C9
:10543000FFF7E1FF002829D0BDF80C30BDF810209F
:10544000934203D803F13200824205D39A421FD817
:1054500002F1320083421BD2BDF80410BDF80000F7
:10546000814203D801F13206B04204D388420FD8FA
:10547000323081420CD2D01840082880BDF800009C
:10548000BDF80410084440082080012006B070BD1B
:105490000020FBE72DE9F041044692480D460B46FB
:1054A000028004F10D0082B2193880B2FFF769FA68
:1054B00005F10D0083B2193881B222461046FFF77C
:1054C00060FA6E1C04F10108B1B21FFA88F0FBF714
:1054D000DDFBB1B2661EB0B2FBF7D8FB6F1EB9B2EE
:1054E0001FFA88F0FBF7D2FBB9B2B0B2FBF7CEFBE4
:1054F00029462046BDE8F0410622FFF7A8BA70B55C
:10550000064678480C4602803046FBF7BFFB751C08
:10551000A8B22146FBF7BAFB641CA1B23046FBF7E8
:10552000B5FBA1B2A8B2BDE87040FBF7AFBB10B5A8
:105530006B4C020004F1040404F1160104F10C00A8
:1055400002D0FFF769FF2AE0FFF766FF38B3B4F92E
:105550002C0094ED091A00EE100AA08900EE900AC2
:10556000B8EEC00AF8EE600A01EE200ABCEEC00AEE
:1055700010EE100AA081B4F92E0094ED0A1A00EE84
:10558000100AE08A00EE900AB8EEC00AF8EE600A4F
:1055900001EE200ABCEEC00A10EE100AE08294F878
:1055A0002000000606D4C02084F82000A089A08234
:1055B000E08AE08394F8200000F0800010BD70477E
:1055C000002070472DE9FF4F83B00E46DDE910A99A
:1055D000444907464FF47840DDF85080088042A0E7
:1055E0001024CDE90040414D9346A0216B882A88C4
:1055F0002820FFF76EFB3EA0CDE900406B882A888B
:10560000A0217820FFF765FB3AA0CDE900406B8828
:105610002A88B4212820FFF75CFB37A0CDE90040A1
:105620006B882A88B4217820FFF753FB33A0CDE99B
:1056300000406B882A88C8212820FFF74AFB30A049
:10564000CDE900406B882A88C8217820FFF741FB0C
:105650002CA0CDE900406B882A88DC212820FFF7A8
:1056600038FB29A0CDE900406B882A88DC2178200E
:10567000FFF72FFB25A0CDE900406B882A88F02199
:105680002820FFF726FB04233A46A021402000945F
:10569000FFF799FA04233246A02190200094FFF7E7
:1056A00092FA04235A46B42140200094FFF78BFA63
:1056B00004230094B4219020069AFFF784FA04236F
:1056C0005246C82140200094FFF77DFA04234A4641
:1056D000C8211FE000804242008040420000414259
:1056E000640000205C00002078313A0000040020B3
:1056F00079313A0078323A0079323A0078333A0018
:1057000079333A0078343A0079343A00666163209C
:1057100069733A0090200094FFF755FA042300942F
:10572000DC214020129AFFF74EFA04230094DC217A
:105730009020139AFFF747FA03234246F021602096
:105740000094FFF740FA07B0BDE8F08F2DE9F04F65
:1057500000242DED0C8B89B025461F20FE4E4FF600
:10576000FF773080FD4807803846FBF7CFFC4FF4C9
:105770007848A6F800803846FBF7C8FCF8480027B0
:10578000378001684FF0100ACDE900A12821642379
:10579000A0220846FFF79DFA142142460846FFF76B
:1057A00079FEF04880F820709FEDEF0A80ED090A3D
:1057B0009FEDEECB9FEDEFDB9FEDF0BBF14E804612
:1057C0004FF0900BA0F10409D8F8041047460120CF
:1057D000884797F820000121B1EB901F46D120F0B7
:1057E000400087F8200005A8BA8920F8242000EBA3
:1057F0008400641C0025F98AE4B2B8464180012C7B
:1058000006D0022C11D0032C1ED0042C2ED139E04E
:1058100014214FF6FF720846FFF73CFE30884FF424
:105820007842143880B214211EE030884FF6FF729F
:10583000143880B21421FFF72DFE70884FF478429F
:10584000143881B214200FE070884FF6FF721438BC
:1058500081B21420FFF71EFE70884FF4784214388E
:1058600081B23088143880B2FFF714FE0A2000F0AD
:10587000CEFD6D1CADB2B5F57A7FA5D909B0BDECF2
:105880000C8B61E7BDF81400BDF81810411A00D563
:105890004942BDF81600BDF81A20801A00D54042D2
:1058A0004943404308442BF01DFC41EC100B2CF005
:1058B000F7FC51EC100B2BF041FC84B2BDF81C003E
:1058C000BDF82010411A00D54942BDF81E00BDF8B0
:1058D0002220801A00D540424943404308442BF01F
:1058E00001FC41EC100B2CF0DBFC51EC100B2BF00D
:1058F00025FC00EE104A87B2F8EE400A00EE107A5E
:10590000B8EE401A80EE810A10EE100A2BF02FFC40
:10591000B0EE4C9AF0EE6C9A41EC180B53EC192B4C
:105920002BF038FC5BD3B0EE4DAAF0EE6DAA53EC31
:105930001A2B51EC180B2BF045FC50D3ECB3E7B30A
:10594000BDF81400BDF81C10411A00D54942BDF83D
:105950001600BDF81E20801A00D54042494340433E
:1059600008442BF0BFFB41EC100B2CF099FC51ECE0
:10597000100B2BF0E3FB84B2BDF81800BDF820102B
:10598000411A00D54942BDF81A00BDF82220801AFC
:1059900000D540424943404308442BF0A3FB41EC6F
:1059A000100B2CF07DFC51EC100B2BF0C7FB00EE24
:1059B000104A80B2F8EE400A00E010E000EE100A53
:1059C000B8EE401A80EE810A10EE100A2BF0CFFBE1
:1059D00041EC180B53EC192B2BF0DCFB31D2708807
:1059E0000024143881B230884FF6FF72143880B228
:1059F000FFF750FD14214FF478420846FFF74AFDA7
:105A000053EC1B2B51EC180B2BF07AFA2BF096FB76
:105A100080B2BDF82220BDF82030BDF81E10CDE9BF
:105A20000320CDE90113BDF81C000090BDF81A3029
:105A3000BDF81820BDF81610BDF81400FFF7C2FD20
:105A4000C2E653EC1A2B51EC180B2BF0BBFBC6D360
:105A5000BDF81800BDF81C10411A00D54942BDF828
:105A60001A00BDF81E20801A00D540424943404329
:105A700008442BF037FB41EC100B2CF011FC51ECDF
:105A8000100B2BF05BFB84B2BDF81400BDF82010A6
:105A9000411A00D54942BDF81600BDF82220801AEF
:105AA00000D540424943404308442BF01BFB41ECE6
:105AB000100B2CF0F5FB51EC100B2BF03FFB00EE24
:105AC000104A80B2F8EE400A00EE100AB8EE401A12
:105AD00080EE810A10EE100A2BF049FB41EC180B06
