:020000040800F2
:1000000038BE0120A1010008DD060508CF0405085F
:10001000DF060508E1060508E30605080000000004
:10002000000000000000000000000000E5060508D8
:10003000E706050800000000E9060508EB060508CC
:1000400003650508BB010008BB010008BB010008EF
:10005000BB010008BB010008BB010008BB01000890
:10006000BB010008BB010008BB010008BB01000880
:10007000BB010008BB010008BB010008BB01000870
:10008000BB010008BB010008BB010008BB01000860
:10009000BB010008BB010008BB010008BB01000850
:1000A000BB010008BB010008BB010008BB01000840
:1000B000BB010008175F0508B10C0008BB01000870
:1000C000BB010008BB010008BB010008BB01000820
:1000D000BB010008DD670508E56805081D03050884
:1000E000BB010008BB010008BB010008BB01000800
:1000F000BB010008BB010008BB010008BB010008F0
:10010000BB010008BB010008BB010008BB010008DF
:10011000BB010008BB010008BB010008C70C0008B8
:10012000BB010008BB010008BB010008BB010008BF
:10013000BB010008BB010008BB010008BB010008AF
:10014000BB010008BB010008BB010008BB0100089F
:10015000BB010008BB010008BB010008BB0100088F
:10016000BB010008BB010008BB010008BB0100087F
:10017000BB010008BB010008BB010008BB0100086F
:10018000BB010008BB010008DFF810D001F02EFA17
:1001900000480047B7020508AFF3008038BE0120D1
:1001A0000648804706480047FEE7FEE7FEE7FEE711
:1001B000FEE7FEE7FEE7FEE7FEE7FEE78F0705083E
:1001C000890100081CB50121042057F0C6F804205D
:1001D000009001208DF8040000208DF80600032116
:1001E0008DF80510FF4C8DF807006946204656F043
:1001F0008DFC0421204656F0EEFC1CBD30B50C46AB
:100200000546012185B0084657F0CFF80121084680
:1002100057F0A3F84FF48050039002208DF810009F
:1002200003A9F14856F072FCADF800400021EF4CF4
:10023000ADF80210ADF8081001956946204657F058
:100240009DFB072121810121204657F0F5FB01216B
:10025000204657F00BFC46F2A811616205B030BD94
:100260001CB50121202057F078F8042000900120CF
:100270008DF8040003208DF805000020DC4C8DF87B
:1002800006006946204656F041FC0421204656F0FF
:10029000A2FC1CBD1CB50121042057F05EF8012111
:1002A00003208DF8041000908DF805000020CD4C3F
:1002B0008DF806006946204656F028FC01212046AC
:1002C00056F08BFC0221204656F087FC1CBD1CB565
:1002D0000121042057F041F81020009000208DF8F3
:1002E000040001208DF807006946BE4856F00EFC58
:1002F0001CBD7FB50D4604460121042057F04BF884
:100300000194ADF800500024BA4DADF80240ADF8AC
:1003100008406946284657F031FB0122114628461D
:1003200057F0B5FE0121284657F0A0FB1E208DF89E
:100330000C008DF80D408DF80E4001208DF80F0057
:1003400003A856F024FB7FBD7FB50D46044601216E
:10035000202057F020F801940020ADF80050A64C62
:10036000ADF80200ADF808006946204657F006FBDC
:1003700037208DF80C0001218DF80D108DF80E102E
:100380008DF80F1003A856F002FB012211462046FB
:1003900057F07DFE0121204657F068FB7FBD2DE917
:1003A000F043894605468BB00121082056F0F3FF43
:1003B0000121084656F0D1FFDFF82C8202221146B7
:1003C000404656F017FC0420022600908DF8046089
:1003D00003208DF8050000248DF8064001278DF8D4
:1003E00007706946404656F091FBDFF81082ADF881
:1003F0000890ADF80A400395ADF8104002A94046B8
:1004000057F0BCFA6024ADF81440ADF81670ADF8A2
:10041000206005A9404657F09BFB08F104000480CA
:100420008021404657F0C5FE0121404657F004FBAD
:10043000724968083C3108600BB0BDE8F0833EB5F6
:100440000446ADF8001000206C4DADF80200ADF888
:10045000080001946946284657F090FA67496008F9
:100460003C3108600121284657F000FB3EBD644A3C
:1004700010B51178884209D0624B5C4940B1002424
:10048000C3F888420B8823F010030B80107010BD56
:100490000124C3F888420B8823F010030B800B88DB
:1004A00043F01003F1E72DE9F041040056484FF006
:1004B000000502D56442002700E0012790FBF4F616
:1004C00030467FF014F941EC100B80F0EDF951EC5F
:1004D000100B7FF02AF903464C4902204FF4803C70
:1004E00011E096FBF0F200FB126291420ADD96FBEE
:1004F000F0F8E04506DA1100054603D196FBF0F26C
:10050000624502DB401C9842EBDD96FBF5F6761E59
:1005100030466D1E7FF0EBF8DFF8E480C8E90A0191
:1005200028467FF0E4F8C8E90C01B4F57A7F07DCCF
:1005300032482430006831493C310968884210D97A
:100540003846FFF794FF2D482C300068B04204D1A4
:100550002A4828300088A84203D029463046FFF7B1
:100560006EFF2648018841F001010180BDE8F0815D
:1005700070B51E4E04469FED260A706A254980B26A
:10058000201A00EE900AF8EEE00A20EE800A10EE43
:10059000100A884201DD9FED200A204910EE100A62
:1005A000174D884201D99FED1E0ABDEEC00A10EE1C
:1005B000100AFFF778FF706A201A7FF098F841EC74
:1005C000100B9FED181B85ED080B53EC112B7FF0E2
:1005D000F7F836D29FED150B53EC102B95ED080B69
:1005E00028E0000000080240000002400000014036
:1005F000001402400008004000140040000C0040BD
:10060000500300200000414200BD01058096980083
:1006100000007A430000FA450000FA450000FAC5E0
:100620000000FAC500000000000034400000000097
:10063000000034C051EC100B7FF0DAF801D2012039
:1006400070BD002070BD10B510EE100A7FF0A5F847
:100650009FEDF71B53EC112B7EF068FF7FF065F8E0
:10066000BDE810401FE72DE9F041F34E05462DEDA2
:10067000028B0C46B6F90800F04F00EE100A032278
:10068000F868B8EEC08A410091FBF2F1401C4FF4CB
:100690007A78DFEDEB8AF860404515DAB6F92C1070
:1006A00000EE101AB8EEC00A20EE080AC0EE280AC2
:1006B00000EE100A0020B8EEC00A20EE800AFFF714
:1006C000C2FFF868404501DB208818B12088012866
:1006D00002D00CE001202080B6F92C0000EE100AB8
:1006E0000020B8EEC00A20EE080AFFF7ACFFF96858
:1006F000F06891FBF8F1401E814202DD022020806B
:1007000004E02088022801D0286815E0B6F92C0002
:1007100000EE100A0020B8EEC00A20EE080AC0EE73
:10072000280A95ED000AB8EEC00A20EE800AFFF70D
:100730008AFF2868401E286000284FF0000006D17C
:100740009FEDC00AFFF77FFF0020F8600120BDEC9D
:10075000028B0BE770B5B84DB84C2846B5F91810A8
:10076000007849B160B12089012816D0A11D01F19E
:100770000A00FFF778FF0FE000280ED100290CD007
:1007800046F2A810FFF7F4FE002806D000202883C8
:10079000E0804FF47A712161208170BD70B504460C
:1007A0001FED650AA84D686A80B2201A00EE900A13
:1007B000F8EEE00A20EE800A00EE901AF8EEE00A69
:1007C000B4EEE00AF1EE10FA03DD00EE101AB8EE16
:1007D000C00A494200EE901A984EF8EEE00AB4EED4
:1007E000E00AF1EE10FA03D200EE101AB8EEC00AD9
:1007F000BDEEC00A10EE100AFFF755FE686A201A17
:100800007EF075FF41EC100B86ED080B1FED7B1B96
:1008100053EC112B7EF0D4FF0CD21FED7C0B53EC6C
:10082000102B96ED080B51EC100B7EF0E1FF01D27E
:10083000012070BD002070BD70B5804C03214FF4C5
:100840009675E068420092FBF1F1401CE060A8421E
:1008500011DA7E4850F821007EF09FFF9FED741B57
:1008600053EC112B7EF062FE7EF05FFFFFF71BFE64
:10087000E068A8420BDBA07858B940F27E4146F20E
:10088000A810FFF78BFF10B10120A07001E0A07845
:1008900020B16F48018821F001010180E16841F237
:1008A0008830814202DB0020E060A07070BD10B58E
:1008B000614C2046B4F91810007819B130B1BDE888
:1008C0001040B9E7002809D1002907D046F2A81046
:1008D000FFF74EFE002801D00020208310BD10B588
:1008E000554C2046B4F91810007851B168B1B4F9EC
:1008F0000800BDE8104000EE100A0020B8EEC00A63
:10090000A1E6002809D1002907D046F2A810FFF778
:100910002FFE002801D00020208310BD70B5464D69
:10092000464C4CA02DED028BF0EE408A95ED070A67
:10093000A16930EE688A7FF017FF61780020474A8E
:10094000012371B1E969464DA9423FDAA169B1F5C8
:10095000FA6F3BDAC2F88432C2F88002491CA16106
:1009600030E095ED070A3F4D10EE101AA94207DA64
:1009700018EE901AB1F17E5F02DAA169491CA161FB
:10098000B4EEE80AF1EE10FA04D2C2F88402C2F81A
:10099000803203E0C2F88432C2F8800218EE101AE6
:1009A000314DA94204DA18EE101A304DA94203D98C
:1009B000A169B1F5FA5F05DDC2F88402C2F88002D0
:1009C0006370A0610020BDEC028B70BD6070A061FF
:1009D0000120F8E710B5184C608B30B194ED010A96
:1009E000FFF79CFF08B100206083BDE8104076E768
:1009F0002DE9F04104001E484FF0000502D5644285
:100A0000002700E00127642C7BDB90FBF4F63046E6
:100A10007EF06DFE41EC100B7FF046FF51EC100BA9
:100A20007EF083FE0346134902204FF4803C35E0FC
:100A3000CDCCCCCCCC5C71402C00002050030020ED
:100A400000007A4400000000000001403016000859
:100A5000000C00400D0A2564000000000000414227
:100A60000000A040CDCC4C3ECDCCCC3DCDCCCCBDBF
:100A700000BD01058096980096FBF0F200FB126223
:100A800091420ADD96FBF0F8E04506DA11000546D2
:100A900003D196FBF0F2624502DB401C9842EBDD8D
:100AA00096FBF5F6761E30466D1E7EF020FEDFF8D2
:100AB0006482C8E90A0128467EF019FEC8E90C01E3
:100AC000B4F57A7F06DC94480068934918310968C8
:100AD000884210D93846FFF7CAFC8F4808300068B2
:100AE000B04204D18C48001D0088A84203D029469A
:100AF0003046FFF7A4FC88482438018841F0010102
:100B0000018033E570B5834C05462DED048BB0EEC6
:100B1000409A1FED350AE068C0EE090ABDEEE00A12
:100B200010EE101A90FBF1F201FB12027B490A2A27
:100B300001DC012200E00022C1F89822411CE160A2
:100B40007EF0D5FD41EC180B19EE100A7EF025FE63
:100B50009FED731B53EC112B7EF0E8FC53EC182B2C
:100B60007EF0E4FC9FED701B53EC112B7EF050FDEA
:100B700041EC100B7FF034FE51EC100B7EF050FE78
:100B8000E061044628467EF0B2FD41EC180B204699
:100B90007EF003FE1FED5A1B53EC112B7EF0C6FCBA
:100BA00053EC182B7EF0C2FC7EF0BFFDBDEC048B35
:100BB000BDE870401CE710B55FED5F0A5C4A554C1C
:100BC00092ED010AE16880EE801AFDEEC10A10EE96
:100BD000900A91FBF0F300FB131048B1B2F9080042
:100BE000FFF790FF94ED070A002084ED050A10BD81
:100BF00046F2A810FFF7BCFC0028F8D0B2EE040AB9
:100C000084ED050A0020E060012010BD10B5484CBD
:100C10002046B4F91810007839B150B194ED010AAA
:100C2000B4F90800BDE810406CE7002807D100299E
:100C300005D0FFF7C0FF002801D00020208310BDA1
:100C400070B5344C3B483A4DE168814201D0288B65
:100C500008B90020E060B5F91000062812D2DFE8DC
:100C600000F0110306090C0FFFF7D0FF0AE0FFF7B1
:100C700036FE07E0FFF7AEFE04E0FFF718FE01E0E6
:100C8000FFF768FDB5F91800B4F9041088420DD0DB
:100C900060B9214924390A8822F001020A801E4ADB
:100CA0000A21083211600521121F1180A08070BD39
:100CB00010B5214C2088C00701D0FFF7C1FF4FF6C7
:100CC000FE70208010BDF0B51C4F89B03888C00779
:100CD0001BD01B48406A7EF01BFD0E4E04460D469D
:100CE000F0687EF004FD96ED0A0B0A468DED060BCA
:100CF00096ED0C0B8DED040B8DE8350096ED080B91
:100D0000052053EC102B55F074FB4FF6FE70388025
:100D100009B0F0BD50030020240C00400000414207
:100D20004AD8124DFB2119400000000000408F40BE
:100D30002C00002040420F0010080040101400401A
:100D40000000014070B5FF4B0446D3F8A402B8B1CF
:100D50000020C3F8A402E068FB490025012811D057
:100D6000D1F89402B8B10020C1F89402F748017894
:100D7000491CC9B2017001290FD0022917D017E010
:100D80000120E6E7D1F88C0218B10020C1F88C02EE
:100D90000EE00120FAE70120E6E7ED4991F8300086
:100DA00018B1002081F8300002E00120FAE7057058
:100DB0002269D3F8A812E7A07FF0D6FC20690028AA
:100DC00002D1E2482030858070BD70B5DF4C0A4604
:100DD00020342368196911B1A588012D0DD0012196
:100DE000A1800146AFF2A30073F024FB0221206032
:100DF0000161BDE8704073F048BB891C196170BD8A
:100E000010B5D34C0020214694F8313011F82E2F24
:100E1000012B497801D033B10AE002B10220022946
:100E200006D1022004E002B10120012900D10120F5
:100E3000002184F82F1084F82E1010BD70B5CA4D13
:100E4000012400239622092128685CF0FDF8641C27
:100E50000A2CF6DB70BD2DE9FF41D0F80C80002094
:100E60007DF0CBFDB94AC14B002103F138049160FC
:100E700043F82100B0F9045044F82150491C40695E
:100E800091600E29F4D3BA484FF47A710068B0FB30
:100E9000F1F47EF015F93C2094FBF0F100FB1145D4
:100EA00094FBF0F191FBF0F200FB12164FF461603D
:100EB00094FBF0F0182190FBF1F2A54F01FB120416
:100EC00097ED070A0A207DF013FD034697F83000DE
:100ED00008B1A8A100E0A8A103958DE8520097ED04
:100EE000070AA6A14046BDEEC00A10EE102A78F00F
:100EF00093FFBDE8FF812DE9F05F934E0127834604
:100F0000C6F88472DFF8689240F6B831A54DD9F87A
:100F10000000884205D2288820F001002880BDE822
:100F2000F09F8A4CA08800284FF0000018D0B3EE44
:100F30000E0AFFF788FBD6F810028249C1F8A40216
:100F4000D6F81002DFF8608246F2A81A58B1D9F834
:100F5000000043F698218842A08808D918B108E01B
:100F6000BBEE0E0AE5E7C8F824A0A78001E0002840
:100F7000D5D0D8F8240046F654718842CFD9002045
:100F80009FED8A0AFFF75FFBC8F824A0288820F0AD
:100F9000010028800020C6F8840200F0F3FA5EF019
:100FA0008DFD7DF06EFA6A4890ED070A80ED090A22
:100FB0006648183072F0B6FD64487D49183073F009
:100FC000A6F800F0DFFA78F0BFFB60490446002283
:100FD00018315DF0A6FC22462121AFF2851073F096
:100FE00029FA00224FF4FA71AFF2AF1073F022FA2F
:100FF0005846BDE8F05F73F079B92DE9F041544CE3
:1010000007465B4D2078514E38B10020207028688B
:101010007061002101207DF00CFBFFF7F1FE02283A
:1010200006D1384673F062F9002104207DF001FBFF
:1010300028687169401AB0F57A6F02D901202070D2
:1010400002E02078002806D000F0BCF93846BDE860
:10105000F04173F04BB9BDE8F0812DE9F0473C4C0D
:10106000DFF80CC181466069DCF800104FF47A7734
:10107000081A90FBF7F5FFF7C3FE00264FF49678A9
:10108000022835D0207890B36069DCF80010081A87
:1010900042F21071884253D9002102207DF0C9FA32
:1010A000B4F920007DF0A9FC4069C088002894F8BC
:1010B00030002ED018B100213846FFF786FE608B35
:1010C00010B1208A03283CD0208C4146401C20844B
:1010D000012020700022AFF2DD0073F0ABF9002197
:1010E00001207DF0A6FA33A07FF03EFB71E002E024
:1010F000267084F82E6000213846FFF766FE002136
:1011000004207DF096FA012241462C4873F092F9B2
:101110005FE018B100213846FFF757FE608B10B131
:10112000208A032861D026A07FF01EFB01224146C1
:10113000224873F07FF9002104207DF07AFA45E01F
:101140004CE052E00080424200004142880300200F
:101150002C0000200D0A2074696D65722025642022
:10116000726520256400000044030020C4B3012000
:10117000780200204F4E00004F46460020416E6727
:101180003A25642E252E3164205245433A2573209A
:101190000D20252E32643A252E32643A252E3264F3
:1011A00000000000000C00400000014000000000B2
:1011B00004B908080D0A206E6578740057140008F9
:1011C0000D0A206E6578745F656E64007DF004FA28
:1011D00026704846BDE8F04773F088B8C5F10A01AB
:1011E000BDE8F04705207DF024BABDE8F0872DE981
:1011F000F04781462DED028B0025C068E54FE64E95
:101200004FF47A6A4FF0010801280ED100214FF403
:101210007A70FFF7DAFD002101207DF00AFA3868C4
:10122000306186F80280C9F80C50FFF7E9FDDB4C0D
:1012300002281ED038683169411A514509D9B17860
:1012400051B16061A4F81880B570002106207DF0CE
:10125000F0F9B078002862D1606939680A1AB4F9E7
:101260001010012911D0E068042921D04FF47A73BD
:1012700020E0257038683169401A504501D90122B3
:1012800000E002226421C6483BE094ED030A94ED9D
:10129000011AB8EEC00AC0EE010A9FEDC21A9FED16
:1012A000C20A10EE810ABDEEC00A10EE100A02E07A
:1012B00041F288335843824202DD207800B1257024
:1012C000208B00282BD11FED478A032911D1B4F9B7
:1012D00020007DF092FB4069408A03281AD1208AC1
:1012E000032806D1B4F920007DF087FB4069C0884F
:1012F00080B1658384ED078A7DF06EF900220521B7
:10130000AA4873F097F8BDEC028B4846BDE8F04759
:1013100072F0ECBFA4F81A8084ED018AECE7BDEC12
:10132000028B62E72DE9F041052607460660FFF7CC
:1013300067FD0025994C022802D0608B60B12AE03D
:1013400002220521964873F075F884F82E5038462D
:10135000BDE8F04172F0CABF208BB8B920780128EF
:1013600014D101220521AFF2791073F063F8002146
:1013700001207DF05EF9B4F91830B4F91A20217813
:101380008BA07FF0F1F9384672F0B0FF8E48C0F8BC
:101390008052C0F88452208B70B9207860B97D48A3
:1013A00000226421006860612670AFF2513073F052
:1013B00041F8384672F09AFFBDE8F0410021022062
:1013C0007DF037B9F8B5754CB4F920007DF015FB08
:1013D000408A2082B4F920007DF00FFB0089208133
:1013E000B4F920007DF009FB90ED030A84ED010AB9
:1013F000B4F920007DF001FBB0F91000E06003209B
:101400007DF0FBFAB0F9127002207DF0F6FAB0F927
:10141000126001207DF0F1FAB0F9125000207DF049
:10142000ECFAB0F9121033462A4668A000977FF014
:101430009BF9208A03280CD000200022608305211C
:10144000AFF21F1072F0F6FFBDE8F84063A07FF026
:101450008BB90120F1E770B50646C06800254F4CF6
:1014600001280ED125702583658384F83150F560FD
:1014700094F83000012804D100214FF47A70FFF76E
:10148000A4FCFFF7BDFC01460120012907D1618CB6
:10149000012902D184F83100207084F82E5021787F
:1014A000002907D02084FFF78DFF3046BDE870404B
:1014B00072F01CBF70BD2DE9F047384C002507467F
:1014C00084F82E50C068DFF8CC90334E42F210788A
:1014D00078B1012802D1D9F80000F060218A1FED0F
:1014E000CD0A0120032912D0658384ED070AFD602F
:1014F0007070002103207DF09CF8D9F80000F1689D
:10150000411A414511D97078012804D00DE060835B
:1015100084ED010AEBE794F83000012805D10021A1
:101520004FF47A70FFF751FC7570208B002816D1AC
:10153000608B002813D194F8300000280FD10021CF
:1015400004207DF076F801224FF49671AFF2F90095
:1015500072F070FF3846BDE8F04772F0C7BE44E64F
:1015600010B57DF087F900221421AFF2756072F09A
:1015700061FF01224FF49671AFF22510BDE81040D3
:1015800072F058BF10B56FF03FFEBDE8104057F045
:10159000BFB8000078020020880300202C00002043
:1015A000B714000800007A440000484225130008E0
:1015B0000D0A20696E632D3E6D6F746F7220256475
:1015C0002025642025640000000041420D0A2025EA
:1015D0006420256420256420256400000D0A205322
:1015E0007461727420456E6400000000064C074D63
:1015F00006E0E06840F0010394E8070098471034E3
:10160000AC42F6D3FEF7C4FD541900087419000863
:1016100002E008C8121F08C1002AFAD170477047BB
:10162000002001E001C1121F002AFBD17047000019
:10163000C280893D6F3BA13D0EC1BC3DE99EDC3DB2
:101640003EBA003EB8FA153EDB752E3EEB9C4A3E94
:10165000ACEE6A3E5BFC873E682C9D3E395FB53E32
:1016600023F6D03EE65CF03E42050A3F11411E3FA4
:10167000F829353F060F4F3FC0466C3FCA97863F5B
:101680002B18993F5ADCAD3FD620C53FFE26DF3FE1
:101690004535FC3FB24B0E40444F2040B8503440DB
:1016A0004B7E4A401E0963403D257E40D1048E405A
:1016B00015789E40C78AB040A55CC440BF0EDA4092
:1016C00068C3F1400ECF0541B0E11341532C2341D3
:1016D0000FC2334149B64541931C594196086E41AA
:1016E000F5468241FE5F8E41F2589B411D3BA94168
:1016F000780FB8418FDEC7416EB0D841828CEA4185
:101700008479FD41ADBE0842824E13423B6E1E42BB
:10171000431F2A4267623642C9374342D39E504232
:101720002C965E42AE1B6D42582C7C4224E28542D0
:101730005AEF8D42F03A96428EC19E42617FA74297
:101740001870B042E98EB9428BD6C2424141CC42B8
:10175000D8C8D542AC66DF42B313E9427CC8F24236
:101760003E7DFC42EF140343FEE207437CA40C439E
:10177000035511431BF0154342711A43F1D31E4325
:10178000A9132343F22B27436B182B43CCD42E43AE
:10179000F25C3243E2AC3543D5C038433C953B4321
:1017A000C9263E43737240437E754243812D4443B4
:1017B0006798454378B446435A80474312FB4743F2
:1017C0000B24484312FB47435A80474378B44643AF
:1017D00067984543812D44437E754243737240436D
:1017E000C9263E433C953B43D5C03843E2AC354324
:1017F000F25C3243CCD42E436B182B43F22B27439D
:10180000A9132343F1D31E4342711A431BF015431E
:10181000035511437CA40C43FEE20743EF1403433A
:101820003E7DFC427CC8F242B313E942AC66DF4223
:10183000D8C8D5424141CC428BD6C242E98EB9428A
:101840001870B042617FA7428EC19E42F03A964224
:101850005AEF8D4224E28542582C7C42AE1B6D42E9
:101860002C965E42D39E5042C9374342676236424D
:10187000431F2A423B6E1E42824E1342ADBE0842B7
:101880008479FD41828CEA416EB0D8418FDEC74138
:10189000780FB8411D3BA941F2589B41FE5F8E4134
:1018A000F546824196086E41931C594149B645411F
:1018B0000FC23341532C2341B0E113410ECF0541F8
:1018C00068C3F140BF0EDA40A55CC440C78AB0408F
:1018D00015789E40D1048E403D257E401E09634010
:1018E0004B7E4A40B8503440444F2040B24B0E40EB
:1018F0004535FC3FFE26DF3FD620C53F5ADCAD3FD5
:101900002B18993FCA97863FC0466C3F060F4F3F42
:10191000F829353F11411E3F42050A3FE65CF03E83
:1019200023F6D03E395FB53E682C9D3E5BFC873E7A
:10193000ACEE6A3EEB9C4A3EDB752E3EB8FA153E95
:101940003EBA003EE99EDC3D0EC1BC3D6F3BA13D71
:10195000C280893D7419000800000020BC0300000B
:1019600010070808681A0008BC0300207CBA0100B0
:101970002016000801323420410169040118791C45
:101980007C7A030A142008020304060708092BFFC7
:10199000FF2023D090000D28335E0508E756050888
:1019A000055905080A127F68996469680916A0023A
:1019B000272D091AE001301E18C0080810041A1C4F
:1019C000041A08041A0C041A14041A04041A7804D9
:1019D0001A80041A28041A30041A6C041A20041AF3
:1019E00070041A64041A44041A5C041A50041A3865
:1019F000042EF4C208088C381A34041A35041A3636
:101A0000045A37109904411A28201A28201A28202D
:101A10001ACC043910990461028DFF4009CDAB3412
:101A200012D4C3B2A102176F180E855107087F5256
:101A300007084B530708B70C1A09081A7B041A9FAA
:101A4000041EA8C40808B0041AB8041E18C3080865
:101A5000C0081AC8041AB40C411A0102015CA95E3C
:081A600043E803035480BF00BA
:020000040805ED
:1000000030BF72B6704762B6704780F30888704799
:100010006846704710B54FF4A06006F0B3FCA82006
:1000200006F090FA4FF47A3006F087FB00F01CFCE3
:1000300001F086F904F052FFB0F72CF9B0F747F958
:1000400000F03FFC532140F2CF7005F00DFF05F0AA
:1000500073FF05F048F9FD48FB49FD4A416090F8FF
:100060003010927941F0800102F00102114380F8D2
:100070003010012000F0A4FF0AF019FE08F0BDFACC
:1000800008F032FB06F0FFF901214CF25130B0F7D5
:10009000B5F80A214CF25030B0F781F9B0F792F878
:1000A0004FF4165006F0E4FA532140F2E730B0F76F
:1000B00020F9E8490020C1F8980210BD3EB5E64994
:1000C000044607C98DE807000021E448CDF8021076
:1000D000CDF8061004612C3000788DF8020020461F
:1000E0002EF08BFCC08890B320462EF086FC807CDE
:1000F0008DF8030020462EF080FCB0F91010C817D0
:1001000001EB1060000A8DF8040020462EF075FC0B
:10011000007C8DF8050020462EF06FFC007A8DF8EB
:10012000060020462EF069FC90ED030AF2EE040A68
:1001300020EE200ABDEEC00A10EE100A00B2C11770
:1001400000EB1161090A8DF807108DF80800FC20FA
:100150008DF80900C24900206A460B881B06FCD5B1
:10016000135C8B80401C0A28F7DB3EBD2DE9F04173
:10017000BC48BA4D02262DED028B243581782970BA
:10018000C2786A7002794379022403EB02226A8002
:1001900082792A71C279007A4FF0010800EB0220BF
:1001A000E880B14805F108070129068007D1012040
:1001B0002EF023FCC088012801D187F82F802878F1
:1001C000022801D187F82F60A0F11E010A260A2912
:1001D00036D2B0FBF6F106FB1104E888082C00EEDD
:1001E000100AB8EE408A2BD820462EF006FC69781B
:1001F000418220462EF001FC6988018220462EF0C3
:10020000FCFBB2EE040A2979C8EE008A018120467F
:100210002EF0F3FBC0ED038A20462EF0EEFBA0F893
:1002200006802EF0ADFD2EF02FFF20462EF0E5FBD0
:10023000074620462EF0E1FB006839462EF0B3FD5C
:100240002878A0F128010A2906D2B0FBF6F106FBB6
:1002500011042046FFF732FF287832380A281BD2D3
:1002600000202EF0CAFB416949B1CA880AB108468C
:10027000F9E70021C180006801210AF05CFD2EF041
:1002800003FF20462EF0B9FB054620462EF0B5FBB5
:10029000006829462EF087FDBDEC028B3221BDE8B7
:1002A000F04170482FF0F4B86F48B0F90000092809
:1002B00000DB5BE77047FFF7ADFE6C4C2068400049
:1002C00004D4012141F28830B0F77FFD206840F06E
:1002D00080702060B1F744F9604D654E64240127B9
:1002E0004FF000082C353068B0FBF4F104FB11002E
:1002F00008B9FFF7D9FF01202EF07FFBC08808B1B5
:100300006F8401E0A5F822800021012008F098F90F
:1003100023F0FAFF052006F056F9E4E72DE9F0474F
:10032000DFF8509140F225584146484607F063FAFD
:1003300000287DD009F104000088484E0027C5B28E
:100340003178552903D1502D01D3F06818B1F068E8
:10035000012805D06EE001207560C6E9027069E0F1
:100360007068532804D07760F760B760377061E039
:10037000414AB0680240012A52D100EBD07020F00F
:100380000102364841EA05211C301152B0F9021031
:10039000B0F9000000EE101A01EE900A9FED371A36
:1003A000B8EEC00AF8EEE11ADFED350A2B4C20EE6C
:1003B000010A21EE811A2C3420EE200A61EE200A77
:1003C000C4ED070AD4ED070A94ED071A20EE000ADF
:1003D00060EE810AC4ED070AD4ED070A30EE800A08
:1003E00084ED070A94ED070A10EE100A2FF0D5F9F4
:1003F00041EC100B30F058FA51EC100B2FF010FAC2
:1004000000EE100A84ED070A94ED070A84ED0A0A4B
:1004100094ED070AD4ED090A30EE600A84ED070A6C
:10042000B068401CB060082804DBB760F76000E0EB
:1004300007E07760357041464846BDE8F04707F071
:10044000F9B9BDE8F08700004B5305088000002093
:10045000BC03002000004142841A0808000000206C
:100460000010014050060020C200002074380240F5
:100470007802002000480040010000800000803722
:100480000000B443FEB50D4606460A24302207217B
:1004900068462EF0F6FF30208DF8000058208DF8C9
:1004A000010068465DB105F00F02641E092A01DDF6
:1004B000373200E030322D090255002CF2DC009872
:1004C000306001987060BDF808003081FEBD86B0D4
:1004D000FFF79EFD6D4F7861B861D0E905126CA001
:1004E00030F042F9DFF8B8A1DAF800000AF1040BA5
:1004F00020F40071CBF800106A490020C1F8840292
:10050000C1F8800268490880FF20002100904FF464
:10051000F0734FF44872084604F0A1FA63A018265D
:10052000CDE900601E2164234FF4FA72084604F0FE
:10053000ACFC02A87969FFF7A5FF02ADCDE9006523
:10054000502164239622084604F09FFC02A8796992
:10055000FFF798FFCDE900656423962278215020AB
:1005600004F093FC0024A8464FF07809C4EB041172
:1005700009EB4105A9B2022322463220009604F07D
:10058000FEFBB86950F8241002A8FFF77BFFCDE905
:100590000068A9B264239622502004F076FC641C03
:1005A0000A2CE3D30024B846C4EB0410782707EBE9
:1005B0004005A9B2022304F10A02FA20009604F0D1
:1005C000DEFBD8F8180000EB8400816A02A8FFF770
:1005D00059FF02A8CDE90060A9B2642396224FF426
:1005E0008C7004F052FC641C0A2CDDD3B1464646E4
:1005F000DFF8D4800024C4EB0411782000EB41051F
:100600004F46A9B2022304F114024FF4E170CDF871
:10061000009004F0B4FBB06900EB8400016D02A807
:10062000FFF730FF02A8CDE90070A9B2642396223B
:100630004FF4F07004F029FC641C0A2CDBD3444610
:1006400020888006FCD5DAF800204FF40071DAF833
:100650000000914320F400700143CBF80010B06912
:10066000D0E905120AA030F07FF8A188B06900EB4C
:1006700081014A68A18850F8211014A030F074F864
:10068000208820F020002080DAE700000000002011
:100690000D0A30582578202C3058257800000000AD
:1006A0001014024000004142000C00404861726496
:1006B0004661756C742048616E646C65722053509D
:1006C0002052454700000000001001400D0A44522E
:1006D0002030582578202C30582578007047FEE7C8
:1006E000FEE7FEE770477047704770470CB5002281
:1006F000544900920192086840F4803008604FF439
:10070000A043086800F4003001900098401C00905D
:10071000019810B900989842F3D10868800334D545
:100720000120019047484030026842F08052026048
:100730004548026842F4404202604248083002687C
:100740000260026842F400420260026842F4A05271
:100750000260031F3D4A1A600A6842F080720A6014
:100760000A689201FCD53A4940F205720A600168B4
:1007700021F003010160016841F00201016001689C
:10078000C1F381010229FAD10CBD01920CBD31489F
:1007900010B5016841F4700101602A48016841F018
:1007A00001010160274A00210832116002682A4BCA
:1007B0001A400260031D294A1A60026822F480224E
:1007C000026020480C300160FFF790FF21494FF094
:1007D00000608039086010BD70B51A4D0835286872
:1007E0001F4B204910F00C0004D05E10042803D0E9
:1007F000082803D00B601BE00E6019E0114A121D9F
:100800001068C0F38054106800F03F0014B1B6FBCC
:10081000F0F001E0B3FBF0F013681268C3F3881343
:100820005843C2F30142521C5200B0FBF2F0086080
:1008300028680C4AC0F30310121D105C0A68C240FD
:100840000A6070BD00380240007000400854400744
:10085000003C024088ED00E0FFFFF6FE103000246F
:100860000024F400600000202DE9FC410121222039
:1008700006F073FD01208DF8040000268DF8066057
:1008800003218DF805101D4F4FF4C0658DF807004A
:1008900000956946384606F039F98DF80760184E1C
:1008A0004FF4E05400946946304606F02FF9214693
:1008B000304606F092F92946384606F08CF9BDE834
:1008C000FC811CB50121042006F047FD6820009042
:1008D00001208DF8040000218DF8061003218DF809
:1008E0000510084C8DF807006946204606F00EF901
:1008F0006821204606F071F91CBD0000001402407A
:10090000000402400008024001B5BDF80000ADF847
:100910000000BDF800004FF0D841A1F87E0008BDEE
:1009200001B5BDF80000ADF80000BDF800004FF0C3
:10093000D841A1F8800008BD08B54FF0D840B0F804
:100940008000ADF80000BDF8000008BD4FF0D842AF
:1009500022F87E0F5180704710B5FFF7D5FF0520B4
:1009600005F003FEBDE81040E6E7FE484FF0D84131
:100970000089A1F87E0070474FF0D841A1F88000AF
:100980007047C0F34511C20AC00200EB4110104489
:1009900080B27047401EC0B2FCD27047F0B5F14E35
:1009A0000C460246050AB1883046A1F5134340893A
:1009B0004FEA142C413B1AD0A1F5A643103B16D0A8
:1009C000B646B3793688A1F5D047B61A761E043FED
:1009D00017D07746A1F5C85EBEF1630E25D0A1F50C
:1009E000A04EBEF5A26E57D0012B6FD06FE0FFF77F
:1009F0008BFF2846FFF794FFD0B2FFF791FFB08935
:100A00000CE07546012B00D1B2B2FFF77DFF100A52
:100A1000FFF786FFD0B2FFF783FFA889FFF774FFC7
:100A20006046FFF77DFFE0B225E03BB3FFF76CFFC8
:100A30002846FFF775FFD0B2FFF772FF3888401ED7
:100A4000C0F30F20FFF76CFF3878401EC0B2FFF7ED
:100A500067FFB889FFF758FF6046FFF761FFE0B214
:100A6000FFF75EFF7888401EC0F30F20FFF758FFA6
:100A7000B878401EC0B2BDE8F04051E7B2B2FFF70F
:100A800043FF0020FFF74CFF0020FFF749FF100A4B
:100A9000FFF746FFD0B2DAE7FFF736FF2846FFF749
:100AA0003FFF7889401C80B2FFF72EFFD0B2FFF7DE
:100AB00037FFB889FFF728FF6046FFF731FFB88995
:100AC000401C80B2FFF720FFADE7FFE7B2B211464E
:100AD000FFF73CFFB8892146BDE8F04036E72DE935
:100AE000F041A04E002425463288824202D9728805
:100AF0008A4202D80020BDE8F081FFF74FFFB0889E
:100B000049F2413841F6631C45F2103245F2105764
:100B1000404507D0A0F5D041043903D0904201D020
:100B2000604501D12E2005E0B84202D14FF4385083
:100B300000E02220FFF7E8FEB088A0F5134120393D
:100B400003D10220401EC0B2FCD2FFF7F5FEB188EF
:100B50006145D0D00220401EC0B2FCD2FFF7ECFEAF
:100B60000146B088C446604503D0904201D0B842E7
:100B70000BD10220401EC0B2FCD2FFF7DDFE0546BD
:100B8000C8B24FF6FF7303EA0024B088A0F5134300
:100B9000253B1DD0A0F58A43353B19D0A0F58A43EB
:100BA000313B15D0A0F53543053B11D0A0F54543A9
:100BB000053B0DD0604503D0904201D0B84209D129
:100BC000C80AC002A10A40EA411040EAD52092E7D3
:100BD000084690E7BDE8F0410846D2E661488088C3
:100BE000A0F51341413913D0A0F5D04104390FD0FD
:100BF000A0F5A64110390BD0A0F5C851633907D034
:100C0000A0F5AA41103905D040F2731107209DE6E6
:100C1000292001E04FF4245076E652488088A0F560
:100C20001341413912D0A0F5D04104390ED0A0F5BE
:100C3000A64110390AD0A0F5C851633906D0A0F5F5
:100C4000AA41103904D0002107207FE6282001E0C6
:100C50004FF4205058E6F0B5424C00232146A279CB
:100C6000898846F6040741F66315012A01D02AB1A6
:100C70001DE0B9421BD0A94202D118E0A94216D109
:100C8000082814D2DFE800F00406080A0C0E10123F
:100C900006200CE007200AE0042008E0052006E01A
:100CA000012004E0002002E0032000E00220A1F582
:100CB000134C45F2103245F21056BCF1410C07D0EE
:100CC000B94205D0914203D0B14201D0A9427CD1B2
:100CD000082812D2DFE800F0110406080A0C0E10F2
:100CE00080230AE0402308E0C02306E0202304E03C
:100CF000602302E0A02300E0E023B14202D14FF4E0
:100D0000585000E03620914205D0B14203D0A942AC
:100D100001D043F00803B94201D143F00203194660
:100D2000FFF714FEA288AA420AD09806208861889C
:100D300002D5884202D303E0884201D92180608035
:100D40006089B24245D1FFF7DFFD0020FFF7E8FDE3
:100D50006089401C80B2FFF7D7FD0020FFF7E0FD5F
:100D6000608901E0BC030020801C80B2FFF7CCFD4D
:100D70002088401EC0F30F20FFF7D2FD6089C01C01
:100D800080B2FFF7C1FD2078401EC0B2FFF7C8FD5A
:100D9000A089FFF7B9FD0020FFF7C2FDA089401C24
:100DA00080B2FFF7B1FD0020FFF7BAFDA089801CDB
:100DB00080B2FFF7A9FD6088401EC0F30F20FFF747
:100DC000AFFDA089C01C80B200E02AE0FFF79CFDC7
:100DD00021E0FFF799FD0020FFF7A2FD0020FFF7BB
:100DE0009FFD2088401EC0F30F20FFF799FD20785B
:100DF000401EC0B2FFF794FDA089FFF785FD0020DB
:100E0000FFF78EFD0020FFF78BFD6088401EC0F3CA
:100E10000F20FFF785FDA078BDE8F040401EC0B26E
:100E20007EE5082812D2DFE800F0040608110A0C5B
:100E30000E1030230AE0102308E0202306E03823B8
:100E400004E0282302E0182300E00823BDE8F04076
:100E5000032043F4805179E500B5FFF79FFDFFF7CC
:100E600084FDFE484FF0D8410088A1F8800000BD05
:100E70002DE9F041FA4D90460C460246060AA98833
:100E80002846A1F5134340894FEA142C413B17D063
:100E9000A1F5A643103B13D0A1F5AA43103B13D0F4
:100EA0002E46A1F5C857B3793688B61A761E633F29
:100EB00023D0A1F5D047043F3AD0012B4DD04DE0CF
:100EC000FFF722FD304639E0FFF71EFD3046FFF701
:100ED00027FD6889401C80B2FFF716FDD0B2FFF7EE
:100EE0001FFDA889FFF710FD6046FFF719FDA889CF
:100EF000401C80B2FFF708FD2BE003B9B2B2FFF748
:100F000003FD160A3046FFF70BFDD0B2FFF708FDD0
:100F10003046FFF705FDD0B2FFF702FDA889FFF7C5
:100F2000F3FC6046FFF7FCFCE0B2FFF7F9FC0DE0D4
:100F3000012B00D1B2B2FFF7E7FC100AFFF7F0FC7B
:100F4000D0B2FFF7EDFCA889FFF7DEFC6046FFF7A3
:100F5000E7FCE0B2FFF7E4FC07E0B2B21146FFF7AE
:100F6000F5FCA8892146FFF7F1FC4FF0D84029890C
:100F700020F87E1FA0F80280BDE510B50246BE2015
:100F8000FFF7C2FC0520FFF7CBFC10462EF0C0FB9C
:100F90009FEDB41B53EC112B2EF0C8FA2EF0E4FB9E
:100FA00080B2FFF7BDFC0120FFF7BAFCFF20FFF77E
:100FB000B7FC0020FFF7B4FCBDE810400020AFE410
:100FC0002DE9F04FA6492A232B24898845F2105A8F
:100FD0004FF4305B4FF4285E4FF448754FF0F00C3F
:100FE00049F241394FF4A07745F210364FF4F072D0
:100FF00080B19B484FF00108494580F80680078082
:10100000A0F802C001D0B1423ED12C250581438118
:10101000848157E092484FF00008494580F80680E7
:10102000A0F800C0478006D0A1F5D04CBCF1040C5C
:1010300001D0B1420CD12C2505814381A1F5D043CB
:101040008481043B01D0B14244D10780428041E019
:10105000514507D1A0F808B0A0F80AE04FF42C5190
:1010600081810EE0A1F5C856633E06D022210181A0
:1010700020214181212181812CE02C210181448189
:1010800083810280458025E0A1F5D04CBCF1040CA1
:1010900009D051450BD1A0F808B0A0F80AE04FF4F0
:1010A0002C53838120E02C250581448109E0A1F5A2
:1010B000C85CBCF1630C11D022230381212343813E
:1010C00020238381A1F5D043043B01D0B14201D15B
:1010D00002804780BDE8F04F0020BCE54FF02C0CAB
:1010E000A0F808C04381848105804280EAE72DE9A9
:1010F000FE4F0446104401EB0308DFF86491401EE4
:10110000A8F1010887B2B9F80400C8F307230293D5
:101110000B0A0093A3185B1EC3F3072301934B46EE
:101120000D465B89A0F513411FFA88F64FEA142B90
:10113000413910D0A0F5A64110390CD0A0F5D0410E
:10114000043908D099F806A041F6631CBAF1010FE2
:101150001ED160451CD14A461846FFF7D5FB5846BC
:10116000FFF7DEFBE0B2FFF7DBFB0198FFF7D8FBF0
:10117000F8B2FFF7D5FB9089FFF7C6FB0098FFF7A1
:10118000CFFBE8B2FFF7CCFB0298FFF7C9FB95E075
:1011900033496045098825D1881A001B84B24E4620
:1011A0001FFA88F71846FFF7AFFB200AFFF7B8FBD6
:1011B000E0B2FFF7B5FB2244521EC2F30F20FFF747
:1011C000AFFBD0B2FFF7ACFBB089FFF79DFB0098F7
:1011D000FFF7A6FBE8B2FFF7A3FB380AFFF7A0FB77
:1011E000F8B26CE0A0F5A04C4A46BCF5A26C23D046
:1011F000BAF1010F67D03B4620462F4650220146E8
:101200004FF051094FF052084FF0530C1046FFF7C2
:101210009DFB19464846FFF799FB39464046FFF7C4
:1012200095FB31466046FFF791FB03B02946204607
:10123000BDE8F04FFFF7B2BB1846FFF765FB584615
:10124000FFF76EFB5089401C80B2FFF75DFBE0B2F8
:10125000FFF766FB5089801C80B207E07400002015
:10126000BC0300206666666666660440FFF74CFBBA
:101270000198FFF755FB5089C01C80B2FFF744FB73
:10128000F8B2FFF74DFB9089FFF73EFB0098FFF7A0
:1012900047FB9089401C80B2FFF736FBE8B2FFF7AE
:1012A0003FFB9089801C80B2FFF72EFB0298FFF76E
:1012B00037FB9089C01C80B2FFF726FBF0B2BDE877
:1012C000FE4FFFF72DBBCA1B521E091B3346491E9A
:1012D000284697B28EB291E72DE9F043FF4F0646BC
:1012E000002438887D884543B888A0F5D04104396A
:1012F00002D1B879012808D000210846FFF74EFB3B
:10130000FFF733FB4FF0D84016E00020B8714FF0E4
:101310002A09A7F80A904FF02B08A7F80C8001467D
:10132000FFF73CFB0120B871A7F80A80A7F80C90E2
:10133000E6E7A0F88060641CAC42FAD3BDE8F08315
:101340002DE9F04FA1B0002401217A201F9406F06E
:1013500004F80121084606F014F801208DF8040075
:101360008DF8064002208DF8050001204FF4004B57
:101370008DF80700CDF800B06946D94805F0C6FBE6
:101380004CF23370009002208DF804008DF8064076
:1013900003208DF8050001208DF807006946D1482B
:1013A00005F0B4FB4FF68070009002208DF8040029
:1013B0008DF8064003208DF805000120CA4D8DF8F8
:1013C00007006946284605F0A1FBA81400900220FA
:1013D0008DF804008DF8064003208DF805000120EB
:1013E000C24E8DF807006946304605F08FFBA81401
:1013F000009002208DF804008DF8064003208DF83F
:1014000005000120BA4F8DF807006946384605F0FF
:101410007DFB0C220021B34805F0ECFB0C220121DE
:10142000B04805F0E7FB0C220421AE4805F0E2FBD2
:101430000C220521AB4805F0DDFB0C220821A94850
:1014400005F0D8FB0C220921A64805F0D3FB0C229D
:101450000A21A44805F0CEFB0C220E21A14805F07C
:10146000C9FB0C220F219F4805F0C4FB0C22072169
:10147000284605F0BFFB0C220821284605F0BAFBE0
:101480000C220921284605F0B5FB0C220A2128462A
:1014900005F0B0FB0C220B21284605F0ABFB0C221B
:1014A0001146284605F0A6FB0C220D21284605F022
:1014B000A1FB0C220E21284605F09CFB0C220F21DB
:1014C000284605F097FB0C221146304605F092FBAA
:1014D0000C221146384605F08DFB0F20CDE9110492
:1014E0003C20CDE91304159409201694CDE917404A
:1014F0000820CDE919401B941C940620CDE9020474
:101500001D941E941020CDE9044006940002CDE9FC
:101510000A40089407948000CDE90C40099411A872
:10152000CDE90E4018A8109002A805F09CFB0121FF
:10153000062005F011FC322005F045F801210020BD
:10154000FFF704FA322005F03EF80020FFF704FA16
:10155000624A4FF020494FF6FF7A908049F24135B8
:1015600045F2103645F2105441F6631846F604076A
:10157000FF2804D3504502D0B0F5134F75D1D320C6
:10158000FFF7C2F9FFF7D8F99080FFF7D5F99080FF
:10159000FFF7D2F90AEA0020D4469080FFF7CCF991
:1015A000918808439080A8425FD0BF20FFF7ACF934
:1015B000FFF7C2F99080FFF7BFF99080FFF7BCF901
:1015C0009080FFF7B9F90CEA00209080FFF7B4F99A
:1015D000918808439080B84247D0D420FFF794F90F
:1015E000FFF7AAF99080FFF7A7F99080FFF7A4F919
:1015F0000CEA00209080FFF79FF9918808439080C3
:10160000B04232D04FF45A40FFF77EF9FFF794F919
:1016100090804FF45B40FFF777F9FFF78DF90CEA04
:10162000002090804FF45C40FFF76EF9FFF784F9DB
:10163000918808439080584501D194801EE0A042D3
:1016400013D0A120FFF760F9FFF776F99080FFF73C
:1016500073F90CEA00209080FFF76EF99188084337
:10166000A0F5AE419080613920D080B2A84205D06B
:10167000B04203D0A04201D040451AD1D9F81C1184
:10168000484621F00F01C9F81C11D9F81C1121F4AA
:101690007061C9F81C11D9F81C1141F00301C9F897
:1016A0001C11D9F81C1141F400712DE0A2F804803E
:1016B000E4E7B84203D0A0F54541053926D1D9F871
:1016C0001C11484621F00F01C9F81C11D9F81C1152
:1016D00021F47061C9F81C110CE00000BC0300206B
:1016E00000040240000C02400010024000140240BE
:1016F00000180240D9F81C1141F00A01C9F81C1168
:10170000D9F81C1141F44061C0F81C119146918830
:10171000FEA02FF029F8B9F80400A8427ED1CF200E
:10172000FFF7F2F80020FFF7FBF8C120FFF7F8F809
:101730003020FFF7F5F8ED20FFF7E6F86420FFF71B
:10174000EFF80320FFF7ECF81220FFF7E9F881200B
:10175000FFF7E6F8E820FFF7D7F88520FFF7E0F875
:101760001020FFF7DDF87A20FFF7DAF8CB20FFF73B
:10177000CBF83920FFF7D4F82C20FFF7D1F8002060
:10178000FFF7CEF83420FFF7CBF80220FFF7C8F8B8
:10179000F720FFF7B9F82020FFF7C2F8EA20FFF79B
:1017A000B3F80020FFF7BCF80020FFF7B9F8C0201D
:1017B000FFF7AAF81B20FFF7B3F8C120FFF7A4F842
:1017C0000120FFF7ADF8C520FFF79EF83020FFF7A6
:1017D000A7F83020FFF7A4F8C720FFF795F8B72047
:1017E000FFF79EF83620FFF78FF84820FFF798F8AC
:1017F0003A20FFF789F85520FFF792F8B120FFF75C
:1018000083F80020FFF78CF81A20FFF789F8B6203C
:10181000FFF77AF80A20FFF783F800E090E0A220B3
:10182000FFF77EF8F220FFF76FF80020FFF778F857
:101830002620FFF769F80120FFF772F8E020FFF794
:1018400063F80F20FFF76CF82A20FFF769F82820CB
:10185000FFF766F80820FFF763F80E20FFF760F83F
:101860000820FFF75DF85420FFF75AF8A920FFF78A
:1018700057F84320FFF754F80A20FFF751F80F20DC
:10188000FFF74EF80020FFF74BF80020FFF748F86D
:101890000020FFF745F80020FFF742F8E120FFF7AE
:1018A00033F80020FFF73CF81520FFF739F8172030
:1018B000FFF736F80720FFF733F81120FFF730F86D
:1018C0000620FFF72DF82B20FFF72AF85620FFF708
:1018D00027F83C20FFF724F80520FFF721F8102017
:1018E000FFF71EF80F20FFF71BF83F20FFF718F84F
:1018F0003F20FFF715F80F20FFF712F82B20FFF716
:1019000003F80020FFF70CF80020FFF709F801208A
:10191000FFF706F83F20FFF703F82A20FEF7F4FF51
:101920000020FEF7FDFF0020FEF7FAFF0020FEF783
:10193000F7FFEF20FEF7F4FF1120FEF7E5FFA5E02B
:10194000B8427CD11120FEF7DFFF142004F03BFEEB
:10195000D020FEF7D9FF0720FEF7E2FF4220FEF776
:10196000DFFF1D20FEF7DCFFD120FEF7CDFF0020BA
:10197000FEF7D6FF1A20FEF7D3FF0920FEF7D0FFAF
:10198000D220FEF7C1FF0120FEF7CAFF2220FEF79A
:10199000C7FFC020FEF7B8FF1020FEF7C1FF3B20B5
:1019A000FEF7BEFF0020FEF7BBFF0220FEF7B8FFE8
:1019B0001120FEF7B5FFC520FEF7A6FF0320FEF7B6
:1019C000AFFFC820FEF7A0FF0020FEF7A9FF2520EB
:1019D000FEF7A6FF2120FEF7A3FF0520FEF7A0FFDC
:1019E0000020FEF79DFF0A20FEF79AFF6520FEF714
:1019F00097FF2520FEF794FF7720FEF791FF5020F8
:101A0000FEF78EFF0F20FEF78BFF0020FEF788FF0A
:101A1000F820FEF779FF0120FEF782FFFE20FEF797
:101A200073FF0020FEF77CFF0220FEF779FF2020E5
:101A3000FEF76AFF3620FEF767FF082000E02BE084
:101A4000FEF76EFF3A20FEF75FFF5520FEF768FFB6
:101A50002B20FEF759FF0020FEF762FF0020FEF763
:101A60005FFF0120FEF75CFF3F20FEF759FF2A20B1
:101A7000FEF74AFF0020FEF753FF0020FEF750FF5D
:101A80000120FEF74DFFDF20FEF74AFF782004F02B
:101A90009AFD292001F004BFB0427CD1ED20FEF771
:101AA00033FF0120FEF73CFFFE20FEF739FFEE205A
:101AB000FEF72AFFDE20FEF733FF2120FEF730FF7E
:101AC000F120FEF721FF0120FEF72AFFDF20FEF7BD
:101AD0001BFF1020FEF724FFC420FEF715FF8F2008
:101AE000FEF71EFFC620FEF70FFF0020FEF718FFCF
:101AF000E220FEF715FFE220FEF712FFE220FEF7DC
:101B00000FFFBF20FEF700FFAA2007E0204C434450
:101B10002049443A25780D0A00000000FEF700FF36
:101B2000B020FEF7F1FE0D20FEF7FAFE0020FEF7D2
:101B3000F7FE0D20FEF7F4FE0020FEF7F1FE112067
:101B4000FEF7EEFE0020FEF7EBFE1920FEF7E8FEA2
:101B50000020FEF7E5FE2120FEF7E2FE0020FEF762
:101B6000DFFE2D20FEF7DCFE0020FEF7D9FE3D2033
:101B7000FEF7D6FE0020FEF7D3FE5D20FEF7D0FE76
:101B80000020FEF7CDFE5D20FEF7CAFE0020FEF726
:101B9000C7FEB12000E0FCE3FEF7B6FE8020FEF7B2
:101BA000BFFE0020FEF7BCFE8B20FEF7B9FE002032
:101BB000FEF7B6FE9620FEF7B3FE0020FEF7B0FE5D
:101BC000B220FEF7A1FE0020FEF7AAFE0020FEF7DD
:101BD000A7FE0220FEF7A4FE0020FEF7A1FE0320D0
:101BE000FEF79EFE0020FEF79BFEB320FEF78CFE64
:101BF0000020FEF795FE0020FEF792FE0020FEF783
:101C00008FFE0020FEF78CFE0020FEF789FE0020EC
:101C1000FEF786FE0020FEF783FE0020FEF780FE22
:101C20000020FEF77DFE0020FEF77AFE0020FEF782
:101C300077FE0020FEF774FE0020FEF771FE002004
:101C4000FEF76EFE0020FEF76BFE0020FEF768FE3A
:101C50000020FEF765FE0020FEF762FE0020FEF782
:101C60005FFE0020FEF75CFE0020FEF759FE00201C
:101C7000FEF756FE0020FEF753FE0020FEF750FE52
:101C8000B420FEF741FE8B20FEF74AFE0020FEF74F
:101C900047FE9620FEF744FE0020FEF741FEA120FD
:101CA000FEF73EFE0020FEF73BFEB520FEF72CFEC1
:101CB0000220FEF735FE0020FEF732FE0320FEF77D
:101CC0002FFE0020FEF72CFE0420FEF729FE002048
:101CD000FEF726FEB620FEF717FE0020FEF720FED8
:101CE0000020FEF71DFEB720FEF70EFE0020FEF7D7
:101CF00017FE0020FEF714FE3F20FEF711FE002025
:101D0000FEF70EFE5E20FEF70BFE0020FEF708FE3B
:101D10006420FEF705FE0020FEF702FE8C20FEF791
:101D2000FFFD0020FEF7FCFDAC20FEF7F9FD0020D2
:101D3000FEF7F6FDDC20FEF7F3FD0020FEF7F0FDD8
:101D40007020FEF7EDFD0020FEF7EAFD9020FEF783
:101D5000E7FD0020FEF7E4FDEB20FEF7E1FD0020AB
:101D6000FEF7DEFDDC20FEF7DBFD0020FEF7D8FDF0
:101D7000B820FEF7C9FD0020FEF7D2FD0020FEF7D7
:101D8000CFFD0020FEF7CCFD0020FEF7C9FD0020AE
:101D9000FEF7C6FD0020FEF7C3FD0020FEF7C0FDE4
:101DA0000020FEF7BDFDBA20FEF7AEFD2420FEF7B1
:101DB000B7FD0020FEF7B4FD0020FEF7B1FD0020C6
:101DC000FEF7AEFDC120FEF79FFD2020FEF7A8FD27
:101DD0000020FEF7A5FD5420FEF7A2FD0020FEF72F
:101DE0009FFDFF20FEF79CFD0020FEF799FDC2201D
:101DF000FEF78AFD0A20FEF793FD0020FEF790FD16
:101E00000420FEF78DFD0020FEF78AFDC320FEF7BB
:101E10007BFD3C20FEF784FD0020FEF781FD3A208B
:101E2000FEF77EFD0020FEF77BFD3920FEF778FDF2
:101E30000020FEF775FD3720FEF772FD0020FEF74B
:101E40006FFD3C20FEF76CFD0020FEF769FD36209B
:101E5000FEF766FD0020FEF763FD3220FEF760FD11
:101E60000020FEF75DFD2F20FEF75AFD0020FEF753
:101E700057FD2C20FEF754FD0020FEF751FD2920D0
:101E8000FEF74EFD0020FEF74BFD2620FEF748FD35
:101E90000020FEF745FD2420FEF742FD0020FEF75E
:101EA0003FFD2420FEF73CFD0020FEF739FD2320F6
:101EB000FEF736FD0020FEF733FD3C20FEF730FD37
:101EC0000020FEF72DFD3620FEF72AFD0020FEF74C
:101ED00027FD3220FEF724FD0020FEF721FD2F20F4
:101EE000FEF71EFD0020FEF71BFD2C20FEF718FD5F
:101EF0000020FEF715FD2920FEF712FD0020FEF759
:101F00000FFD2620FEF70CFD0020FEF709FD242022
:101F1000FEF706FD0020FEF703FD2420FEF700FD7E
:101F20000020FEF7FDFC2320FEF7FAFC0020FEF760
:101F3000F7FCC420FEF7E8FC6220FEF7F1FC00206D
:101F4000FEF7EEFC0520FEF7EBFC0020FEF7E8FCB8
:101F50008420FEF7E5FC0020FEF7E2FCF020FEF70F
:101F6000DFFC0020FEF7DCFC1820FEF7D9FC002087
:101F7000FEF7D6FCA420FEF7D3FC0020FEF7D0FC31
:101F80001820FEF7CDFC0020FEF7CAFC5020FEF71B
:101F9000C7FC0020FEF7C4FC0C20FEF7C1FC0020AB
:101FA000FEF7BEFC1720FEF7BBFC0020FEF7B8FCD6
:101FB0009520FEF7B5FC0020FEF7B2FCF320FEF7FB
:101FC000AFFC0020FEF7ACFCE620FEF7A9FC0020E9
:101FD000FEF7A6FCC520FEF797FC3220FEF7A0FC1A
:101FE0000020FEF79DFC4420FEF79AFC0020FEF73F
:101FF00097FC6520FEF794FC0020FEF791FC76200C
:10200000FEF78EFC0020FEF78BFC8820FEF788FC94
:102010000020FEF785FCC620FEF776FC2020FEF7A8
:102020007FFC0020FEF77CFC1720FEF779FC0020E7
:10203000FEF776FC0120FEF773FC0020FEF770FC33
:10204000C720FEF761FC0020FEF76AFC0020FEF7C7
:1020500067FC0020FEF764FC0020FEF761FCC8204E
:10206000FEF752FC0020FEF75BFC0020FEF758FC58
:102070000020FEF755FC0020FEF752FCC920FEF7B9
:1020800043FC0020FEF74CFC0020FEF749FC00203A
:10209000FEF746FC0020FEF743FC0020FEF740FC64
:1020A0000020FEF73DFC0020FEF73AFC0020FEF782
:1020B00037FC0020FEF734FC0020FEF731FC002046
:1020C000FEF72EFC0020FEF72BFC0020FEF728FC7C
:1020D0000020FEF725FC0020FEF722FC0020FEF782
:1020E0001FFCE020FEF710FC1620FEF719FC002074
:1020F000FEF716FC1C20FEF713FC0020FEF710FC78
:102100002120FEF70DFC0020FEF70AFC3620FEF72A
:1021100007FC0020FEF704FC4620FEF701FC00202F
:10212000FEF7FEFB5220FEF7FBFB0020FEF7F8FB5C
:102130006420FEF7F5FB0020FEF7F2FB7A20FEF7A5
:10214000EFFB0020FEF7ECFB8B20FEF7E9FB002005
:10215000FEF7E6FB9920FEF7E3FB0020FEF7E0FB2D
:10216000A820FEF7DDFB0020FEF7DAFBB920FEF722
:10217000D7FB0020FEF7D4FBC420FEF7D1FB0020E4
:10218000FEF7CEFBCA20FEF7CBFB0020FEF7C8FB14
:10219000D220FEF7C5FB0020FEF7C2FBD920FEF7D8
:1021A000BFFB0020FEF7BCFBE020FEF7B9FB0020E0
:1021B000FEF7B6FBF320FEF7B3FB0020FEF7B0FB03
:1021C000E120FEF7A1FB1620FEF7AAFB0020FEF798
:1021D000A7FB1C20FEF7A4FB0020FEF7A1FB22209A
:1021E000FEF79EFB0020FEF79BFB3620FEF798FBD8
:1021F0000020FEF795FB4520FEF792FB0020FEF73E
:102200008FFB5220FEF78CFB0020FEF789FB642039
:10221000FEF786FB0020FEF783FB7A20FEF780FBAB
:102220000020FEF77DFB8B20FEF77AFB0020FEF7F7
:1022300077FB9920FEF774FB0020FEF771FBA820C6
:10224000FEF76EFB0020FEF76BFBB920FEF768FB84
:102250000020FEF765FBC420FEF762FB0020FEF7BE
:102260005FFBCA20FEF75CFB0020FEF759FBD22083
:10227000FEF756FB0020FEF753FBD820FEF750FB7D
:102280000020FEF74DFBE020FEF74AFB0020FEF7A2
:1022900047FBF320FEF744FB0020FEF741FBE22062
:1022A000FEF732FB0520FEF73BFB0020FEF738FB74
:1022B0000B20FEF735FB0020FEF732FB1B20FEF75C
:1022C0002FFB0020FEF72CFB3420FEF729FB00201B
:1022D000FEF726FB4420FEF723FB0020FEF720FB41
:1022E0004F20FEF71DFB0020FEF71AFB6120FEF7D2
:1022F00017FB0020FEF714FB7920FEF711FB0020EE
:10230000FEF70EFB8820FEF70BFB0020FEF708FB14
:102310009720FEF705FB0020FEF702FBA620FEF744
:10232000FFFA0020FEF7FCFAB720FEF7F9FA0020CA
:10233000FEF7F6FAC220FEF7F3FA0020FEF7F0FAF5
:10234000C720FEF7EDFA0020FEF7EAFAD120FEF7EB
:10235000E7FA0020FEF7E4FAD620FEF7E1FA0020C3
:10236000FEF7DEFADD20FEF7DBFA0020FEF7D8FAF2
:10237000F320FEF7D5FA0020FEF7D2FAE320FEF7AD
:10238000C3FA0520FEF7CCFA0020FEF7C9FA0A20AE
:1023900000E006E3FEF7C4FA0020FEF7C1FA1C20B5
:1023A000FEF7BEFA0020FEF7BBFA3320FEF7B8FABC
:1023B0000020FEF7B5FA4420FEF7B2FA0020FEF73F
:1023C000AFFA5020FEF7ACFA0020FEF7A9FA62201F
:1023D000FEF7A6FA0020FEF7A3FA7820FEF7A0FA8F
:1023E0000020FEF79DFA8820FEF79AFA0020FEF7FB
:1023F00097FA9720FEF794FA0020FEF791FAA620AC
:10240000FEF78EFA0020FEF78BFAB720FEF788FA67
:102410000020FEF785FAC220FEF782FA0020FEF7C0
:102420007FFAC720FEF77CFA0020FEF779FAD12068
:10243000FEF776FA0020FEF773FAD520FEF770FA61
:102440000020FEF76DFADD20FEF76AFA0020FEF7A5
:1024500067FAF320FEF764FA0020FEF761FAE42041
:10246000FEF752FA0120FEF75BFA0020FEF758FA59
:102470000120FEF755FA0020FEF752FA0220FEF77F
:102480004FFA0020FEF74CFA2A20FEF749FA002006
:10249000FEF746FA3C20FEF743FA0020FEF740FA2A
:1024A0004B20FEF73DFA0020FEF73AFA5D20FEF7DA
:1024B00037FA0020FEF734FA7420FEF731FA0020D4
:1024C000FEF72EFA8420FEF72BFA0020FEF728FAFA
:1024D0009320FEF725FA0020FEF722FAA220FEF74D
:1024E0001FFA0020FEF71CFAB320FEF719FA0020AD
:1024F000FEF716FABE20FEF713FA0020FEF710FAD8
:10250000C420FEF70DFA0020FEF70AFACD20FEF7F0
:1025100007FA0020FEF704FAD320FEF701FA0020A4
:10252000FEF7FEF9DD20FEF7FBF90020FEF7F8F9D3
:10253000F320FEF7F5F90020FEF7F2F9E520FEF7AB
:10254000E3F90020FEF7ECF90020FEF7E9F900209E
:10255000FEF7E6F90020FEF7E3F90220FEF7E0F9C6
:102560000020FEF7DDF92920FEF7DAF90020FEF75A
:10257000D7F93C20FEF7D4F90020FEF7D1F94B2023
:10258000FEF7CEF90020FEF7CBF95D20FEF7C8F983
:102590000020FEF7C5F97420FEF7C2F90020FEF70F
:1025A000BFF98420FEF7BCF90020FEF7B9F99320AB
:1025B000FEF7B6F90020FEF7B3F9A220FEF7B0F956
:1025C0000020FEF7ADF9B320FEF7AAF90020FEF7D0
:1025D000A7F9BE20FEF7A4F90020FEF7A1F9C42058
:1025E000FEF79EF90020FEF79BF9CD20FEF798F943
:1025F0000020FEF795F9D320FEF792F90020FEF7B0
:102600008FF9DC20FEF78CF90020FEF789F9F32022
:10261000FEF786F90020FEF783F9E620FEF774F94D
:102620001120FEF77DF90020FEF77AF93420FEF73D
:1026300077F90020FEF774F95620FEF771F90020B3
:10264000FEF76EF97620FEF76BF90020FEF768F9C9
:102650007720FEF765F90020FEF762F96620FEF7A5
:102660005FF90020FEF75CF98820FEF759F9002099
:10267000FEF756F99920FEF753F90020FEF750F9BE
:10268000BB20FEF74DF90020FEF74AF99920FEF72E
:1026900047F90020FEF744F96620FEF741F90020D3
:1026A000FEF73EF95520FEF73BF90020FEF738F91A
:1026B0005520FEF735F90020FEF732F94520FEF7E8
:1026C0002FF90020FEF72CF94320FEF729F900200E
:1026D000FEF726F94420FEF723F90020FEF720F943
:1026E000E720FEF711F93220FEF71AF90020FEF775
:1026F00017F95520FEF714F90020FEF711F976209E
:10270000FEF70EF90020FEF70BF96620FEF708F938
:102710000020FEF705F96720FEF702F90020FEF71A
:10272000FFF86720FEF7FCF80020FEF7F9F8872095
:10273000FEF7F6F80020FEF7F3F89920FEF7F0F820
:102740000020FEF7EDF8BB20FEF7EAF80020FEF7C8
:10275000E7F89920FEF7E4F80020FEF7E1F877208B
:10276000FEF7DEF80020FEF7DBF84420FEF7D8F88D
:102770000020FEF7D5F85620FEF7D2F80020FEF72D
:10278000CFF82320FEF7CCF80020FEF7C9F833205D
:10279000FEF7C6F80020FEF7C3F84520FEF7C0F8A4
:1027A0000020FEF7BDF8E820FEF7AEF80020FEF7A7
:1027B000B7F80020FEF7B4F89920FEF7B1F8002032
:1027C000FEF7AEF88720FEF7ABF80020FEF7A8F87A
:1027D0008820FEF7A5F80020FEF7A2F87720FEF784
:1027E0009FF80020FEF79CF86620FEF799F800207D
:1027F000FEF796F88820FEF793F80020FEF790F891
:10280000AA20FEF78DF80020FEF78AF8BB20FEF71D
:1028100087F80020FEF784F89920FEF781F8002061
:10282000FEF77EF86620FEF77BF80020FEF778F8CA
:102830005520FEF775F80020FEF772F85520FEF7D8
:102840006FF80020FEF76CF84420FEF769F80020CE
:10285000FEF766F84420FEF763F80020FEF760F804
:102860005520FEF75DF80020FEF75AF8E920FEF744
:102870004BF8AA20FEF754F80020FEF751F800208C
:10288000FEF74EF80020FEF74BF80020FEF73CF86C
:10289000AA20FEF745F8CF20FEF736F80020FEF715
:1028A0003FF80020FEF73CF80020FEF739F8002042
:1028B000FEF736F80020FEF733F80020FEF730F878
:1028C0000020FEF72DF80020FEF72AF80020FEF782
:1028D00027F80020FEF724F80020FEF721F800205A
:1028E000FEF71EF80020FEF71BF80020FEF718F890
:1028F0000020FEF715F80020FEF712F80020FEF782
:102900000FF8F020FEF700F80020FEF709F850203D
:10291000FEF706F80020FEF703F80020FEF700F8A7
:102920000020FDF7FDFFF320FDF7EEFF0020FDF78F
:10293000F7FFF920FDF7E8FF0620FDF7F1FF102073
:10294000FDF7EEFF2920FDF7EBFF0020FDF7E8FF84
:102950003A20FDF7D9FF5520FDF7E2FF1120FDF7E2
:10296000D3FF642003F02FFE2920FDF7CDFF352093
:10297000FDF7CAFF0020FDF7D3FF5120FDF7C4FF8C
:10298000FF20FDF7CDFF5320FDF7BEFF2C20FDF704
:10299000C7FF5520FDF7B8FF8220FDF7C1FF2C20AF
:1029A000FDE3A0427ED14FF4704355211846FDF758
:1029B000CDFF4FF20104AA212046FDF7C7FF651C99
:1029C00052212846FDF7C2FFA61C08213046FDF71C
:1029D000BDFFE71C01213846FDF7B8FF0D214FF47C
:1029E0003040FDF7B3FF0D214BF20100FDF7AEFFC4
:1029F0000D214BF20200FDF7A9FF4FF4364C3421B4
:102A00006046FDF7A3FF34214BF20160FDF79EFF06
:102A100034214BF20260FDF799FF4FF431480D214C
:102A20004046FDF793FF4BF201190D214846FDF793
:102A30008DFF0D214BF20210FDF788FF4FF4374B4D
:102A400034215846FDF782FF34214BF20170FDF727
:102A50007DFF34214BF20270FDF778FF00214FF427
:102A60003240FDF773FF00214BF20120FDF76EFFAE
:102A700000214BF20220FDF769FF24214FF438407A
:102A8000FDF764FF24214BF60100FDF75FFF2421D1
:102A90004BF60200FDF75AFF01214FF43F40FDF7CE
:102AA00055FF00E0FEE30F214FF43340FDF74EFFEA
:102AB0000F214BF20130FDF749FF0F214BF202309D
:102AC000FDF744FF34214FF43940FDF73FFF342137
:102AD0004BF60110FDF73AFF34214BF60210FDF7DB
:102AE00035FF08214FF43540FDF730FF08214BF248
:102AF0000150FDF72BFF08214BF20250FDF726FF96
:102B000003214FF44240FDF721FF24214FF43A40C6
:102B1000FDF71CFF24214BF60120FDF717FF2421B0
:102B20004BF60220FDF712FF00214FF43C40FDF769
:102B30000DFF78214BF60140FDF708FF00214BF611
:102B40000240FDF703FF00214FF43D40FDF7FEFE7C
:102B500078214BF60150FDF7F9FE00214BF60250AB
:102B6000FDF7F4FE00214FF43E40FDF7EFFE642137
:102B70004BF60160FDF7EAFE00214FF45140FDF7EE
:102B8000E5FE33214DF20110FDF7E0FE00214DF28C
:102B90000210FDF7DBFE34214DF20310FDF7D6FEE7
:102BA00000214DF20410FDF7D1FE3A214DF205103F
:102BB000FDF7CCFE00214DF20610FDF7C7FE4A21BD
:102BC0004DF20710FDF7C2FE00214DF20810FDF78F
:102BD000BDFE5C214DF20910FDF7B8FE00214DF25B
:102BE0000A10FDF7B3FE81214DF20B10FDF7AEFE8A
:102BF00000214DF20C10FDF7A9FEA6214DF20D109B
:102C0000FDF7A4FE00214DF20E10FDF79FFEE52119
:102C10004DF20F10FDF79AFE01214DF21010FDF755
:102C200095FE13214DF21110FDF790FE01214DF29A
:102C30001210FDF78BFE54214DF21310FDF786FEA6
:102C400001214DF21410FDF781FE82214DF2151085
:102C5000FDF77CFE01214DF21610FDF777FECA212B
:102C60004DF21710FDF772FE02214DF21810FDF71C
:102C70006DFE00214DF21910FDF768FE02214DF2A4
:102C80001A10FDF763FE01214DF21B10FDF75EFEE9
:102C900002214DF21C10FDF759FE34214DF21D109A
:102CA000FDF754FE02214DF21E10FDF74FFE672185
:102CB0004DF21F10FDF74AFE02214DF22010FDF7E4
:102CC00045FE84214DF22110FDF740FE02214DF218
:102CD0002210FDF73BFEA4214DF22310FDF736FE36
:102CE00002214DF22410FDF731FEB7214DF22510DF
:102CF000FDF72CFE02214DF22610FDF727FECF2115
:102D00004DF22710FDF722FE02214DF22810FDF7AB
:102D10001DFEDE214DF22910FDF718FE02214DF2B5
:102D20002A10FDF713FEF2214DF22B10FDF70EFED7
:102D300002214DF22C10FDF709FEFE214DF22D105F
:102D4000FDF704FE03214DF22E10FDF7FFFD1021CB
:102D50004DF22F10FDF7FAFD03214DF23010FDF773
:102D6000F5FD33214DF23110FDF7F0FD03214DF259
:102D70003210FDF7EBFD6D214DF23310FDF7E6FD4E
:102D800000214FF45240FDF7E1FD33214DF20120C7
:102D9000FDF7DCFD00214DF20220FDF7D7FD3421C7
:102DA0004DF20320FDF7D2FD00214DF20420FDF786
:102DB000CDFD3A214DF20520FDF7C8FD00214DF271
:102DC0000620FDF7C3FD4A214DF20720FDF7BEFDA9
:102DD00000214DF20820FDF7B9FD5C214DF20920DC
:102DE000FDF7B4FD00214DF20A20FDF7AFFD812172
:102DF0004DF20B20FDF7AAFD00214DF20C20FDF74E
:102E0000A5FDA6214DF20D20FDF7A0FD00214DF2FC
:102E10000E20FDF79BFDE5214DF20F20FDF796FDFD
:102E200001214DF21020FDF791FD13214DF21120EB
:102E3000FDF78CFD01214DF21220FDF787FD542195
:102E40004DF21320FDF782FD01214DF21420FDF714
:102E50007DFD82214DF21520FDF778FD01214DF217
:102E60001620FDF773FDCA214DF21720FDF76EFD08
:102E700002214DF21820FDF769FD00214DF21920C5
:102E8000FDF764FD02214DF21A20FDF75FFD0121DF
:102E90004DF21B20FDF75AFD02214DF21C20FDF7DB
:102EA00055FD34214DF21D20FDF750FD02214DF25C
:102EB0001E20FDF74BFD67214DF21F20FDF746FD5B
:102EC00002214DF22020FDF741FD84214DF2212009
:102ED000FDF73CFD02214DF22220FDF737FDA42134
:102EE0004DF22320FDF732FD02214DF22420FDF7A3
:102EF0002DFDB7214DF22520FDF728FD02214DF2D1
:102F00002620FDF723FDCF214DF22720FDF71EFDE2
:102F100002214DF22820FDF719FDDE214DF2292076
:102F2000FDF714FD02214DF22A20FDF70FFDF221DD
:102F30004DF22B20FDF70AFD02214DF22C20FDF76A
:102F400005FDFE214DF22D20FDF700FD03214DF280
:102F50002E20FDF7FBFC10214DF22F20FDF7F6FC93
:102F600003214DF23020FDF7F1FC33214DF23120E9
:102F7000FDF7ECFC03214DF23220FDF7E7FC6D215B
:102F80004DF23320FDF7E2FC00214FF45340FDF7F2
:102F9000DDFC33214DF20130FDF7D8FC00214DF26C
:102FA0000230FDF7D3FC34214DF20330FDF7CEFCA7
:102FB00000214DF20430FDF7C9FC3A214DF20530F5
:102FC000FDF7C4FC00214DF20630FDF7BFFC4A219D
:102FD0004DF20730FDF7BAFC00214DF20830FDF745
:102FE000B5FC5C214DF20930FDF7B0FC00214DF23B
:102FF0000A30FDF7ABFC81214DF20B30FDF7A6FC4A
:1030000000214DF20C30FDF7A1FCA6214DF20D3050
:10301000FDF79CFC00214DF20E30FDF797FCE521F9
:103020004DF20F30FDF792FC01214DF21030FDF70B
:103030008DFC13214DF21130FDF788FC01214DF27A
:103040001230FDF783FC54214DF21330FDF77EFC66
:1030500001214DF21430FDF779FC82214DF215303B
:10306000FDF774FC01214DF21630FDF76FFCCA210B
:103070004DF21730FDF76AFC02214DF21830FDF7D2
:1030800065FC00214DF21930FDF760FC02214DF284
:103090001A30FDF75BFC01214DF21B30FDF756FCA9
:1030A00002214DF21C30FDF751FC34214DF21D3050
:1030B000FDF74CFC02214DF21E30FDF747FC672165
:1030C0004DF21F30FDF742FC02214DF22030FDF79A
:1030D0003DFC84214DF22130FDF738FC02214DF2F8
:1030E0002230FDF733FCA4214DF22330FDF72EFCF6
:1030F00002214DF22430FDF729FCB7214DF2253095
:10310000FDF724FC02214DF22630FDF71FFCCF21F4
:103110004DF22730FDF71AFC02214DF22830FDF761
:1031200015FCDE214DF22930FDF710FC02214DF295
:103130002A30FDF70BFCF2214DF22B30FDF706FC97
:1031400002214DF22C30FDF701FCFE214DF22D3015
:10315000FDF7FCFB03214DF22E30FDF7F7FB1021AC
:103160004DF22F30FDF7F2FB03214DF23030FDF729
:10317000EDFB33214DF23130FDF7E8FB03214DF239
:103180003230FDF7E3FB6D214DF23330FDF7DEFB0E
:1031900000214FF45440FDF7D9FB332100E07FE3D9
:1031A0004DF20140FDF7D2FB00214DF20240FDF748
:1031B000CDFB34214DF20340FDF7C8FB00214DF259
:1031C0000440FDF7C3FB3A214DF20540FDF7BEFB7D
:1031D00000214DF20640FDF7B9FB4A214DF20740B0
:1031E000FDF7B4FB00214DF20840FDF7AFFB5C2179
:1031F0004DF20940FDF7AAFB00214DF20A40FDF710
:10320000A5FB81214DF20B40FDF7A0FB00214DF203
:103210000C40FDF79BFBA6214DF20D40FDF796FB00
:1032200000214DF20E40FDF791FBE5214DF20F40DC
:10323000FDF78CFB01214DF21040FDF787FB1321B8
:103240004DF21140FDF782FB01214DF21240FDF7D6
:103250007DFB54214DF21340FDF778FB01214DF227
:103260001440FDF773FB82214DF21540FDF76EFB14
:1032700001214DF21640FDF769FBCA214DF21740BE
:10328000FDF764FB02214DF21840FDF75FFB0021C2
:103290004DF21940FDF75AFB02214DF21A40FDF79D
:1032A00055FB00E0FFE201214DF21B40FDF74EFB14
:1032B00002214DF21C40FDF749FB34214DF21D4027
:1032C000FDF744FB02214DF21E40FDF73FFB672155
:1032D0004DF21F40FDF73AFB02214DF22040FDF771
:1032E00035FB84214DF22140FDF730FB02214DF2E8
:1032F0002240FDF72BFBA4214DF22340FDF726FBD6
:1033000002214DF22440FDF721FBB7214DF225406B
:10331000FDF71CFB02214DF22640FDF717FBCF21E4
:103320004DF22740FDF712FB02214DF22840FDF738
:103330000DFBDE214DF22940FDF708FB02214DF285
:103340002A40FDF703FBF2214DF22B40FDF7FEFA78
:1033500002214DF22C40FDF7F9FAFE214DF22D40ED
:10336000FDF7F4FA03214DF22E40FDF7EFFA10219C
:103370004DF22F40FDF7EAFA03214DF23040FDF700
:10338000E5FA33214DF23140FDF7E0FA03214DF229
:103390003240FDF7DBFA6D214DF23340FDF7D6FAEE
:1033A00000214FF45540FDF7D1FA33214DF2015081
:1033B000FDF7CCFA00214DF20250FDF7C7FA342197
:1033C0004DF20350FDF7C2FA00214DF20450FDF713
:1033D000BDFA3A214DF20550FDF7B8FA00214DF241
:1033E0000650FDF7B3FA4A214DF20750FDF7AEFA49
:1033F00000214DF20850FDF7A9FA5C214DF2095069
:10340000FDF7A4FA00214DF20A50FDF79FFA812141
:103410004DF20B50FDF79AFA00214DF20C50FDF7DA
:1034200095FAA6214DF20D50FDF790FA00214DF2CC
:103430000E50FDF78BFAE5214DF20F50FDF786FA9D
:1034400001214DF21050FDF781FA13214DF2115078
:10345000FDF77CFA01214DF21250FDF777FA542165
:103460004DF21350FDF772FA01214DF21450FDF7A1
:103470006DFA82214DF21550FDF768FA01214DF2E7
:103480001650FDF763FACA214DF21750FDF75EFAA8
:1034900002214DF21850FDF759FA00214DF2195052
:1034A000FDF754FA02214DF21A50FDF74FFA0121AF
:1034B0004DF21B50FDF74AFA02214DF21C50FDF768
:1034C00045FA34214DF21D50FDF740FA02214DF22C
:1034D0001E50FDF73BFA67214DF21F50FDF736FAFB
:1034E00002214DF22050FDF731FA84214DF2215096
:1034F000FDF72CFA02214DF22250FDF727FAA42104
:103500004DF22350FDF722FA02214DF22450FDF72F
:103510001DFAB7214DF22550FDF718FA02214DF2A0
:103520002650FDF713FACF214DF22750FDF70EFA82
:1035300002214DF22850FDF709FADE214DF2295003
:10354000FDF704FA02214DF22A50FDF7FFF9F221AE
:103550004DF22B50FDF7FAF902214DF22C50FDF7F8
:10356000F5F9FE214DF22D50FDF7F0F903214DF252
:103570002E50FDF7EBF910214DF22F50FDF7E6F933
:1035800003214DF23050FDF7E1F933214DF2315076
:10359000FDF7DCF903214DF23250FDF7D7F96D212B
:1035A0004DF23350FDF7D2F900214FF45640FDF7AC
:1035B000CDF933214DF20160FDF7C8F900214DF23C
:1035C0000260FDF7C3F934214DF20360FDF7BEF947
:1035D00000214DF20460FDF7B9F93A214DF2056082
:1035E000FDF7B4F900214DF20660FDF7AFF94A216D
:1035F0004DF20760FDF7AAF900214DF20860FDF7D2
:10360000A5F95C214DF20960FDF7A0F900214DF20A
:103610000A60FDF79BF981214DF20B60FDF796F9E9
:1036200000214DF20C60FDF791F9A6214DF20D60DD
:10363000FDF78CF900214DF20E60FDF787F9E521C9
:103640004DF20F60FDF782F901214DF21060FDF798
:103650007DF913214DF21160FDF778F901214DF24A
:103660001260FDF773F954214DF21360FDF76EF906
:1036700001214DF21460FDF769F982214DF21560C8
:10368000FDF764F901214DF21660FDF75FF9CA21DB
:103690004DF21760FDF75AF902214DF21860FDF75F
:1036A00055F900214DF21960FDF750F902214DF254
:1036B0001A60FDF74BF901214DF21B60FDF746F949
:1036C00002214DF21C60FDF741F934214DF21D60DD
:1036D000FDF73CF902214DF21E60FDF737F9672135
:1036E0004DF21F60FDF732F902214DF22060FDF727
:1036F0002DF984214DF22160FDF728F902214DF2C8
:103700002260FDF723F9A4214DF22360FDF71EF995
:1037100002214DF22460FDF719F9B7214DF2256021
:10372000FDF714F902214DF22660FDF70FF9CF21C4
:103730004DF22760FDF70AF902214DF22860FDF7EE
:1037400005F9DE214DF22960FDF700F902214DF265
:103750002A60FDF7FBF8F2214DF22B60FDF7F6F839
:1037600002214DF22C60FDF7F1F8FE214DF22D60A3
:10377000FDF7ECF803214DF22E60FDF7E7F810217C
:103780004DF22F60FDF7E2F803214DF23060FDF7B6
:10379000DDF833214DF23160FDF7D8F803214DF209
:1037A0003260FDF7D3F86D214DF23360FDF7CEF8AE
:1037B00055211846FDF7CAF8AA212046FDF7C6F89C
:1037C00052212846FDF7C2F808213046FDF7BEF821
:1037D00000213846FDF7BAF8CC214046FDF7B6F88F
:1037E00000214846FDF7B2F805216046FDF7AEF826
:1037F00070215846FDF7AAF870214BF20170FDF7D1
:10380000A5F801214FF43840FDF7A0F803214BF64D
:103810000100FDF79BF803214BF60200FDF796F837
:1038200003214BF60300FDF791F802214FF43C40D1
:10383000FDF78CF800214BF60140FDF787F80021D9
:103840004BF60240FDF782F8D0214FF44940FDF7D6
:103850007DF802214CF60110FDF778F850214CF666
:103860000210FDF773F850214CF60310FDF76EF8C7
:1038700050214CF60410FDF769F800214FF4545024
:10388000FDF764F855214FF46850FDF75FF84FF4E9
:103890008850FDF739F8782002F067FE4FF4245085
:1038A000FDF732F8FDE0A0F513414FF480744FF4BA
:1038B000E06940F2022B4FF4274625397ED0A0F56F
:1038C000134140F20775283979D0A0F513414FF420
:1038D00088774FF41C56203972D0A0F51341313946
:1038E0006FD0A0F5A84108396CD0A0F5A8514FF4CD
:1038F0004077053967D0A0F5354105397ED0A0F570
:10390000454105397BD0A0F58A41313978D0A0F501
:103910008A41353975D04045C4D1E220FCF7F4FF27
:103920001D20FCF7FDFF0220FCF7FAFF0420FCF746
:10393000F7FF642002F019FEE020FCF7E5FF01200C
:10394000FCF7EEFF0A2002F03EFEE020FCF7DCFF71
:103950000320FCF7E5FF0C2002F035FE0120FCF708
:10396000D3FF0A2002F02FFEE620FCF7CDFF2F2028
:10397000FCF7D6FFFF20FCF7D3FFFF20FCF7D0FFBA
:10398000B020FCF7C1FF2020FCF7CAFF0020FCF7A5
:10399000C7FF0320FCF7C4FF40F21F30FCF7C0FF55
:1039A0000120FCF7BDFF40F2DF10FCF7B9FF00205B
:1039B000FCF7B6FFB420FCF7A7FF05E07EE049E185
:1039C00001E2A7E27CE3FDE30420FCF7A9FF40F25B
:1039D0001F40FCF7A5FF0020FCF7A2FF2E20FCF7FC
:1039E0009FFF0020FCF79CFF0020FCF799FF0020C0
:1039F000FCF796FF0020FCF793FF03E0FEE3FEE3F5
:103A0000FEE3FEE3B620FCF77FFF0220FCF788FF11
:103A10004FF40370FCF784FF0020FCF781FF1720B0
:103A2000FCF77EFF1520FCF77BFF0020FCF778FFFA
:103A30000020FCF775FFF020FCF766FF0320FCF781
:103A40006FFF2920FCF760FFD020FCF75DFF00200E
:103A5000FCF766FFBE20FCF757FF0520FCF760FF70
:103A6000FE20FCF75DFF0120FCF75AFF0020FCF769
:103A700057FF0020FCF754FF0020FCF751FFB8204F
:103A8000FCF742FF0320FCF74BFF0120FCF748FF47
:103A9000BA20FCF739FF0120FCF742FF6420FDF754
:103AA0006CFA0020FDF78CFAFE490120C1F8BC0237
:103AB0005046FDF711FC21B0BDE8F08F47F6F0014C
:103AC000E520FCF743FF21460120FCF73FFF494674
:103AD0000220FCF73BFF41F230010320FCF736FFE8
:103AE00000210420FCF732FF59460820FCF72EFF86
:103AF00000210920FCF72AFF00210A20FCF726FFFD
:103B000000210C20FCF722FF00210D20FCF71EFFF6
:103B100000210F20FCF71AFF00211020FCF716FFF0
:103B200007211120FCF712FF00211220FCF70EFFE5
:103B300000211320FCF70AFF00210720FCF706FFF5
:103B400041F290611020FCF701FF40F22721112083
:103B5000FCF7FCFE9D211220FCF7F8FE4FF4C85143
:103B60001320FCF7F3FE25212920FCF7EFFE0D21A1
:103B70002B20FCF7EBFE07213020FCF7E7FE40F29C
:103B800003313120FCF7E2FE03213220FCF7DEFE98
:103B900040F206213520FCF7D9FE08213620FCF73B
:103BA000D5FE40F206413720FCF7D0FE4FF44171BC
:103BB0003820FCF7CBFE07213920FCF7C7FE40F286
:103BC00002613C20FCF7C2FE08213D20FCF7BEFE4E
:103BD00000215020FCF7BAFEEF215120FCF7B6FE81
:103BE00000215220FCF7B2FE40F23F115320FCF7B7
:103BF000ADFE31466020FCF7A9FE01216120FCF7F3
:103C0000A5FE00216A20FCF7A1FE00218020FCF720
:103C10009DFE00218120FCF799FE00218220FCF707
:103C200095FE00218320FCF791FE00218420FCF703
:103C30008DFE00218520FCF789FE10219020FCF7E5
:103C400085FE4FF4C0619220FCF780FE40F23311F4
:103C50000720FCE341F28F01EC20FCF777FE41F2F4
:103C60003421EF20FCF772FE21460120FCF76EFEA6
:103C700049460220FCF76AFE41F230010320FCF7BE
:103C800065FE00210420FCF761FE59460820FCF780
:103C90005DFE00210920FCF759FE00210A20FCF7F7
:103CA00055FE01210C20FCF751FE00210D20FCF7F0
:103CB0004DFE00210F20FCF749FE00211020FCF7EB
:103CC00045FE07211120FCF741FE00211220FCF7E0
:103CD0003DFE00211320FCF739FE01210720FCF7EF
:103CE00035FE322002F06FFC41F290411020FCF7CB
:103CF0002DFE40F227211120FCF728FE322002F091
:103D000062FC8A211220FCF721FE322002F05BFCCB
:103D10004FF4D0511320FCF719FE06212920FCF79F
:103D200015FE0D212B20FCF711FE322002F04BFC7A
:103D300000212020FCF70AFE00212120FCF706FECE
:103D4000322002F040FC00213020FCF7FFFD40F261
:103D500004613120FCF7FAFD40F205313220FCF716
:103D6000F5FD00213520FCF7F1FD40F60941362034
:103D7000FCF7ECFD4FF401713720FCF7E7FD40F252
:103D800001313820FCF7E2FD29463920FCF7DEFD41
:103D900000213C20FCF7DAFD40F60A213D20FCF72B
:103DA000D5FD322002F00FFC00215020FCF7CEFDA3
:103DB000EF215120FCF7CAFD00215220FCF7C6FD7F
:103DC00040F23F114DE100210846FCF7BFFD2146BE
:103DD0000120FCF7BBFD49460220FCF7B7FD41F28C
:103DE00030010320FCF7B2FD00210420FCF7AEFDFA
:103DF00059460820FCF7AAFD00210920FCF7A6FD82
:103E000000210A20FCF7A2FD01210C20FCF79EFDF9
:103E100000210D20FCF79AFD00210F20FCF796FDF4
:103E2000322002F0D0FB40F201110720FCF78EFD9A
:103E3000322002F0C8FB4FF486511020FCF786FDBB
:103E400007211120FCF782FD39461220FCF77EFD88
:103E50004FF430611320FCF779FD00212920FCF795
:103E600075FD44F210012B20FCF770FD002150205D
:103E7000FCF76CFDEF215120FCF768FD002152207A
:103E8000FCF764FD40F23F115320FCF75FFD314623
:103E90006020FCF75BFD01216120FCF757FD00214C
:103EA0006A2001E000804042FCF750FD00218020A4
:103EB000FCF74CFD00218120FCF748FD0021822009
:103EC000FCF744FD00218320FCF740FD0021842005
:103ED000FCF73CFD00218520FCF738FD10219020E7
:103EE000FCF734FD00219220FCF730FD01219320E6
:103EF000FCF72CFD39469520FCF728FD0021972082
:103F0000FCF724FD00219820FCF720FD40F27311FE
:103F100007207EE341F21401E720FCF717FD21465C
:103F20000120FCF713FD4FF400710220FCF70EFD99
:103F300041F238010320FCF709FD59460820FCF73F
:103F400005FD00210920FCF701FD00210A20FCF7F6
:103F5000FDFC00210C20FCF7F9FC00210D20FCF7F2
:103F6000F5FC00210F20FCF7F1FC00211020FCF7EC
:103F7000EDFC07211120FCF7E9FC00211220FCF7E1
:103F8000E5FC00211320FCF7E1FCC82002F01BFB3C
:103F900041F290611020FCF7D9FC40F2272111205A
:103FA000FCF7D4FC322002F00EFB0C211220FCF7AF
:103FB000CDFC322002F007FB4FF400611320FCF728
:103FC000C5FC11212920FCF7C1FC0B212B20FCF79B
:103FD000BDFC322002F0F7FA00212020FCF7B6FCED
:103FE00040F23F1319462120FCF7B0FC002130209D
:103FF000FCF7ACFC4FF4837421463120FCF7A6FC9F
:1040000000213220FCF7A2FC4FF401713520FCF7AF
:104010009DFC41F20A613620FCF798FC29463720C6
:10402000FCF794FC21463820FCF790FC2946392007
:10403000FCF78CFC40F202413C20FCF787FC40F688
:104040000F413D20FCF782FC00215020FCF77EFC54
:10405000EF215120FCF77AFC00215220FCF776FC7E
:1040600019465320FCF772FC31466020FCF76EFCC9
