:020000040800F2
:1000000038BE01203D5F0208110D0208E30A020814
:10001000130D0208150D0208170D0208000000005C
:10002000000000000000000000000000190D0208A0
:100030001B0D0208000000001D0D02081F0D020824
:10004000435E0208575F0208575F0208575F0208C5
:10005000575F0208575F0208575F0208575F0208A0
:10006000575F0208575F0208575F0208575F020890
:10007000575F0208575F0208575F0208575F020880
:10008000575F0208575F0208575F0208575F020870
:10009000575F0208575F0208575F0208575F020860
:1000A000575F0208575F0208575F0208575F020850
:1000B000575F02080B090008DFB10408575F020808
:1000C000575F0208575F0208575F0208575F020830
:1000D000575F020889100008911100089909020869
:1000E000575F0208575F0208575F0208575F020810
:1000F000575F0208575F0208575F0208575F020800
:10010000575F0208575F0208575F0208575F0208EF
:10011000575F0208575F0208575F0208F5B10408ED
:10012000575F0208575F0208575F0208575F0208CF
:10013000575F0208575F0208575F0208575F0208BF
:10014000575F0208575F0208575F0208575F0208AF
:10015000575F0208575F0208575F0208575F02089F
:10016000575F0208575F0208575F0208575F02088F
:10017000575F0208575F0208575F0208575F02087F
:10018000575F0208575F0208DFF810D005F036FC11
:100190000048004725090208AFF3008038BE01205F
:1001A00030BF72B6704762B6704780F308887047F8
:1001B000684670470CB500225449009201920868C5
:1001C00040F4803008604FF4A043086800F4003029
:1001D00001900098401C0090019810B90098984236
:1001E000F3D10868800334D501200190474840309E
:1001F000026842F0805202604548026842F4404280
:1002000002604248083002680260026842F400421C
:100210000260026842F4A0520260031F3D4A1A6065
:100220000A6842F080720A600A689201FCD53A4975
:1002300040F205720A60016821F003010160016863
:1002400041F0020101600168C1F381010229FAD184
:100250000CBD01920CBD314810B5016841F470012C
:1002600001602A48016841F001010160274A00212C
:100270000832116002682A4B1A400260031D294AA5
:100280001A60026822F48022026020480C3001606B
:10029000FFF790FF21494FF000608039086010BDE2
:1002A00070B51A4D083528681F4B204910F00C0016
:1002B00004D05E10042803D0082803D00B601BE094
:1002C0000E6019E0114A121D1068C0F380541068C6
:1002D00000F03F0014B1B6FBF0F001E0B3FBF0F02A
:1002E00013681268C3F388135843C2F30142521CC7
:1002F0005200B0FBF2F0086028680C4AC0F303100B
:10030000121D105C0A68C2400A6070BD00380240CD
:100310000070004008544007003C024088ED00E0B7
:10032000FFFFF6FE103000240024F40090000020AF
:100330002DE9FC410121222001F03BF901208DF83B
:10034000040000268DF8066003218DF805101D4F6E
:100350004FF4C0658DF8070000956946384625F0D2
:100360006BFE8DF80760184E4FF4E0540094694618
:10037000304625F061FE2146304625F0C4FE294670
:10038000384625F0BEFEBDE8FC811CB501210420E5
:1003900001F00FF96820009001208DF80400002181
:1003A0008DF8061003218DF80510084C8DF8070014
:1003B0006946204625F040FE6821204625F0A3FE30
:1003C0001CBD00000014024000040240000802406E
:1003D000022025F06ABD1CB50121222001F0E9F8B8
:1003E00001248DF8044000208DF8060000948DF85B
:1003F00007406946854825F01FFEE00200908DF811
:1004000004406946824825F017FE1CBD70B580483F
:10041000016821F440010160016841F4800101603C
:100420007C4E0120C6F8AC027B4DC5F880021E2030
:1004300005F5207506F52B7625F037FD0024346090
:10044000022025F032FD2C6070BD70B57048016847
:1004500021F440010160016841F4800101606E48AF
:100460000125C0F880521E2025F01FFD694C002098
:10047000C4F8AC02022004F52B7425F016FD2560AB
:1004800070BD70B562480024016821F4400101602C
:10049000016801605F4D0120C5F8AC025E4EC6F8F0
:1004A000800207E0641CE4B2FA2C03D9FFF7CDFF09
:1004B000012070BD022025F0F8FCD5F82C020028A0
:1004C000F0D1C6F8800270BD70B5534C0025C4F859
:1004D00080524F48016821F440010160016841F4F5
:1004E00080010160022004F5207425F0DEFC4948FB
:1004F000C0F8AC52022025F0D8FC01202060022078
:1005000025F0D3FC256070BD70B5434C0026C4F8BF
:1005100080623F48016821F440010160016841F4B4
:1005200080010160022004F5207425F0BEFC3948EA
:100530000125C0F8AC52022025F0B7FC256002204E
:1005400025F0B3FC266070BD2DE9F0470546304824
:10055000016821F440010160016841F480010160FB
:100560002D4E0027C6F88072022025F09EFCDFF891
:10057000A48000244FF00109E909C8F8AC1268060C
:10058000050EC6F88092022025F08FFCC6F8807216
:10059000022025F08AFC641CE4B2082CECD3BDE8F0
:1005A000F0872DE9F047824619480024016821F4BC
:1005B00040010160016801601E2025F076FC0025E5
:1005C000154EDFF850902F464FF00108C6F88072A4
:1005D000022025F06AFCC6F88082022025F065FC26
:1005E0006006040ED9F82C0208B1641CE4B26D1C3C
:1005F000EDB2082DEAD3BAF1000F03D0FFF764FF84
:100600002046CCE7FFF780FFFAE700000004024035
:100610000014024000804242008040422DE9F04137
:1006200015460E4604460027FFF7F0FE7020FFF740
:100630008BFFFFF726FFE0B2FFF786FFFFF721FFF2
:10064000002408E0305DFFF77FFFFFF71AFF070087
:1006500003D1641CE4B2AC42F4D3FFF7F6FE384693
:10066000BDE8F0812DE9F04115460F460446FFF73D
:10067000CDFE7020FFF768FFFFF703FFE0B2FFF742
:1006800063FFFFF7FEFEFFF7C1FE7120FFF75CFF7F
:10069000FFF7F7FE00246E1E09E0B44201D00120EE
:1006A00000E00020FFF77DFF3855641CE4B2AC4247
:1006B000F3D3BDE8F041FFF7C8BE7CB501210620A9
:1006C00000F077FF00248DF8044002208DF80640EA
:1006D000032600908DF8056001258DF807506946C6
:1006E000584825F0A9FC68038DF8045000908DF857
:1006F00006408DF805606946534825F09DFCFFF7DC
:100700006AFE524EC6F8B442142006F52D7625F046
:10071000FAFB3560322025F0F6FB01207CBD2DE987
:10072000F1434B4F00244FF00A09387882B0401C47
:10073000C0B2B0FBF9F209FB1201464DA046387079
:1007400009B10A2863D2012202A90220FFF78AFF19
:100750009DF8080001075AD000F00F00062856D275
:10076000FF218140C84340F0C00085F820004FF0D1
:100770000108002695F8201008FA04F0014239D04B
:1007800035480422694630F81400FFF76BFF95F8EE
:1007900030009DF80010C0079DF8010001F00F0126
:1007A0000ED000EB012105EB4400C1829DF8022030
:1007B0009DF8031002F00F0201EB022181810FE08E
:1007C00000EB0120C0F5F07105EB440081819DF83C
:1007D00002209DF8031002F00F0201EB0221C182FA
:1007E0009DF800000821B1EB101F03D005EB440079
:1007F000C6828681641CE4B2052CBBD3A9894FF064
:10080000010819B9E88A08B98DF808603E709DF8AA
:100810000800C0060ED195F82000010602D520F090
:10082000800005E04FF6FF71A981E98200F0E00049
:1008300085F820003878F02801D987F800904046E4
:10084000BDE8FE830004024000080240000041426F
:10085000A9000020B000002064E404087FB50D4624
:1008600004460121022000F0C2FE0194ADF80050C0
:1008700000242C4DADF80240ADF8084069462846EA
:1008800025F026FF01221146284626F0AAFA01216A
:10089000284625F095FF1D208DF80C008DF80D40A1
:1008A00002208DF80E0001208DF80F0003A800F043
:1008B000C4FC7FBD7FB50D4604460121082000F031
:1008C00096FE0194ADF800500024174DADF802409B
:1008D000ADF808406946284625F0FAFE0122114687
:1008E000284626F07EFA0121284625F069FF3220AD
:1008F0008DF80C008DF80D408DF80E4001208DF81C
:100900000F0003A800F099FC7FBD10B5054C103412
:100910002088C00702D0022002F076FB4FF6FE705E
:10092000208010BD00040040000C00402DE9F0477D
:1009300098B001217A2000F03CFE0121084600F029
:100940004CFE01258DF8045000244FF400408DF832
:100950000640022600908DF805608DF80750694624
:10096000A54825F069FB8DF804604FF633708DF8CB
:1009700006400327DFF884A200908DF805708DF8FB
:1009800007506946504625F057FB8DF804604FF636
:1009900083708DF80640DFF8689200908DF805703E
:1009A0008DF807506946484625F046FB8DF80460EF
:1009B0004FF23F008DF80640DFF8488200908DF836
:1009C00005708DF807506946404625F035FB8DF8D7
:1009D00004608DF806408DF805708DF8075040F2E0
:1009E0003F40894D00906946284625F025FB0C22A2
:1009F0000021504625F094FB0C220121504625F0A1
:100A00008FFB0C220421504625F08AFB0C22052185
:100A1000504625F085FB0C220821504625F080FB2E
:100A20000C220921504625F07BFB0C220A2150465E
:100A300025F076FB0C220B21504625F071FB0C2291
:100A40001146504625F06CFB0C220D21504625F036
:100A500067FB0C220E21504625F062FB0C220F2171
:100A6000504625F05DFB0C220021484625F058FB3E
:100A70000C220121484625F053FB0C220721484651
:100A800025F04EFB0C220821484625F049FB0C229C
:100A90000921484625F044FB0C220A21484625F04E
:100AA0003FFB0C220B21484625F03AFB0C22114655
:100AB000484625F035FB0C220D21484625F030FB39
:100AC0000C220E21484625F02BFB0C220F21484614
:100AD00025F026FB0C220021404625F021FB0C22AC
:100AE0000121404625F01CFB0C220221404625F046
:100AF00017FB0C220321404625F012FB0C22042197
:100B0000404625F00DFB0C220521404625F008FB50
:100B10000C221146404625F003FB0C220D214046D5
:100B200025F0FEFA0C220E21404625F0F9FA0C229F
:100B30000F21404625F0F4FA0C220021284625F02A
:100B4000EFFA0C220121284625F0EAFA0C220221B4
:100B5000284625F0E5FA0C220321284625F0E0FA84
:100B60000C220421284625F0DBFA0C220521284618
:100B700025F0D6FA0C220A21284625F0D1FA0820C1
:100B8000CDE912401194169404201794CDE9020483
:100B900014941020CDE90440159406940002CDE988
:100BA0000A4011A80994CDE90E40089407941090CA
:100BB0000C940D9402A825F0ECFA0121042025F0F4
:100BC00061FB18B0BDE8F08710B5002A07D04FF0E0
:100BD000D04310F8014B5C54491C521EF7D110BD94
:100BE000002A07D04FF0D0435B5C491C00F8013B62
:100BF000521EF7D17047000000040240000C024072
:100C000000100240001402400018024003788B5488
:100C1000114443784B7082788A70C078C8707047EE
:100C200001B50A282DED020B12D8002810D00B2890
:100C30000ED2DFE800F00D06080E10121416181A76
:100C40001C00012200E0052294496846FFF7DEFF00
:100C50000EBD0922F8E70D22F6E71122F4E715226E
:100C6000F2E71922F0E71D22EEE72122ECE7252228
:100C7000EAE70A2839D890B3884924220B280A7059
:100C800033D2DFE800F032060A0E12161A1E2227AF
:100C90002D000520487106207047092048720A205F
:100CA00070470D2048730E207047112048741220A1
:100CB00070471520487516207047192048761A206D
:100CC00070471D2048771E207047212081F82100A1
:100CD00022207047252081F825002620704704E057
:100CE000292081F829002A20F8E70020F6E710B52E
:100CF00004460120FFF794FF0220B0EE600AFFF7E0
:100D00008FFF0320B0EE410AFFF78AFF0420B0EE08
:100D1000610AFFF785FF0520B0EE420AFFF780FF6A
:100D20000620B0EE620AFFF77BFFE0B2FFF7A1FFFB
:100D300000215B4A594C05E013885B06FCD5635CD7
:100D40009380491C8142F7DB002010BD2DE9F04162
:100D500090B0044653480F46DDF858801D461646AD
:100D600084424FF0010101D9880501E04FF40010E1
:100D700000F01FFC204600F09FFE204600F0A1FF7F
:100D80000028FAD14020CDE902500021CDF8108092
:100D90000001CDE90510079180010891CDE9091006
:100DA0000320CDE90B10CDE900760D910E91694637
:100DB000204600F009FF10B0BDE8F08170B50C4688
:100DC0000546002100F039FF284600F07AFF002890
:100DD000FAD12146284600F04EFF2846BDE8704073
:100DE000012100F02ABF0FB4002070B52B4D05A9DA
:100DF0003035BDF9102009E0C91D21F0070105EBD0
:100E0000C003B1EC020B401C83ED000B9042F3DBFE
:100E100000240EE005EBC40090ED000B51EC100B2C
:100E20004AF006FB00EE100A601CC0B2FFF7F8FEA5
:100E3000641CBDF910008442ECDBBDF81000C0B2A8
:100E4000FFF717FF174D04464FF02056B8353146CF
:100E5000284600F041FF18B13146284600F051FF06
:100E6000012280210E4800F0C8FD21462846FFF7E8
:100E7000A5FF70BC00205DF814FB08B54FF47A3074
:100E800000F0B1F82A20064A00900648121D034BD4
:100E90005106B830FFF75AFF08BD0000400400209B
:100EA000001001400064024070470FB44FF480719D
:100EB00010B50024D54804F056FA03AAD348029985
:100EC0004BF026F8D248D14B05E002885206FCD5FB
:100ED0008180641CA4B2195D0029F6D110BC5DF8B4
:100EE00014FB0FB44FF4807170B50024C94804F0AE
:100EF0003AFA05AAC74804994BF00AF8C648C54B08
:100F0000051D05E002885206FCD52980641CA4B2A8
:100F1000195D0029F6D170BC5DF814FBF0B50746E9
:100F200087B00121022000F044FB0121880400F079
:100F30005EFBBA4E07220A21304625F0F1F807225F
:100F40000B21304625F0ECF84FF44060049002206D
:100F50008DF814008DF8150000248DF81640012539
:100F60008DF8175004A9304625F066F8ADF8084012
:100F70000C20AB4EADF80440ADF80A000097ADF878
:100F80000640ADF80C406946304600F02EFC0121C9
:100F9000304600F09BFC012240F22551304600F023
:100FA00034FD27208DF818008DF8194003208DF8A6
:100FB0001A008DF81B5006A800F03FF907B0F0BDED
:100FC0009849C3B20978012907D093490A88520683
:100FD000FCD59149091D0B8070478D490A8852063E
:100FE000FCD58B807047F0B50646012187B00846D6
:100FF00000F0DFFA0121102000F003FB8A4D0722E8
:101000000921284625F08CF807220A21284625F0D8
:1010100087F802218DF814108DF815104FF4C06078
:10102000002404908DF8164001278DF8177004A94C
:10103000284625F001F8ADF80440ADF80640ADF8BB
:101040000840ADF80C400C20714CADF80A00009639
:101050006946204600F0C9FB0121204600F036FC1D
:10106000012240F22551204600F0CFFC25208DF8CA
:10107000180003208DF819008DF81A008DF81B70E8
:1010800006A800F0DAF899E770B5614C40F22551F6
:10109000204600F0DCFC002820D0A088614EC4B2BD
:1010A000B6F902500A2D08D1FC2C04D014215F4857
:1010B00004F059F901E00120B0805C480178FE2974
:1010C00008D14178FD290AD144556D1C75800178FD
:1010D000FE2904D0FE2C01D1FE21017070BDFD2C33
:1010E000FCD1FD21417070BD2DE9F0438146012105
:1010F00087B0084600F05DFA0121480400F077FA55
:10110000DFF8248107220221404625F009F8072252
:101110000321404625F004F802258DF814508DF87F
:10112000155000240C268DF81640012704968DF8E2
:10113000177004A9404624F07FFFADF80440ADF8D5
:101140000640ADF80840ADF80C40334CCDF80090A7
:10115000ADF80A606946204600F047FB01212046B1
:1011600000F0B4FB012240F22551204600F04DFC76
:1011700026208DF818008DF8195003208DF81A00DC
:101180008DF81B7006A800F058F807B0BDE8F08392
:1011900070B5214C40F22551204600F058FC002843
:1011A0000ED0204600F0BCFB1E4AC1B2D08803041A
:1011B00006D444044FF0000306D50A2901D0D38099
:1011C00070BD40F400400DE00D2909D0C0F30D04BE
:1011D000164D401C80B22955D080C728EFD870BD6D
:1011E00040F48040D08070BD0FB4104810B503AA01
:1011F000029904F0EDF884B24FF480710B4804F0CA
:10120000B2F8084900204880204667E6C004002064
:1012100000100140C00500200044004000040240CE
:1012200000480040F000002000000240C0060020FE
:101230002849084328490860704730B50F23C27811
:1012400001780125FAB1244A126801F1E02102F483
:10125000E062C2F5E062C2F30722C2F10404D340A7
:101260004278A24084781C401443220181F8002473
:10127000007800F01F018D404009800000F1E0205F
:10128000C0F8005130BD01F01F00854048098000C2
:1012900000F1E020C0F8805130BD104A11400143F8
:1012A0000D48001F016070470B4A121D002911688C
:1012B00001D0014300E08143116070474FF0E0210D
:1012C0000428086903D020F004000861704740F04A
:1012D0000400FAE70000FA050CED00E080FFFF1FB4
:1012E000F848016841F001010160F64A0021083226
:1012F00011600268F44B1A400260031DF34A1A6041
:10130000F04BF34A84331A60F04A103A1B1D1A60FE
:10131000026822F480220260EA480C300160181D45
:1013200001607047E7490022891C0A700870704705
:1013300002460020510901290CD002290CD0E149B4
:101340007431096802F01F02012393400B4200D060
:1013500001207047DB49F4E7DA497031F1E718B54D
:1013600000204FF4A04400903120FFF7E1FF0099E6
:10137000491C0091A14201D00028F5D03120FFF78F
:10138000D7FF002800D0012018BDCE4A116821F0F7
:10139000F80141EAC00010607047CE49086070470C
:1013A000C849002270310A700A70012802D004284E
:1013B00001D1052008707047C7490860704741EAAD
:1013C00082115A0810B5C54B029C03EB024211432F
:1013D000014341EA0460BB49091D086010BDBD49D5
:1013E00008667047800140EA0170B64984310860A0
:1013F0007047B84988667047800140EA0160B1498A
:1014000040EA0270883108607047B2490867704747
:10141000B049C8647047AB4B08331A68084322F0E0
:10142000EC62104318607047A64B08331A680843F3
:1014300022F07842104318607047A24A08321168BF
:1014400021F003010143116070479E480830006895
:1014500000F00C0070479B4A0832116821F0F0013F
:10146000014311607047974A0832116821F4E05136
:10147000014311607047934A0832116821F46041BA
:1014800041EAC0001060704770B58E4B0833196890
:10149000934C11F00C0104D06610042903D00829E4
:1014A00003D004601BE0066019E0864A121D116833
:1014B000C1F38055116801F03F0115B1B6FBF1F1A0
:1014C00001E0B4FBF1F114681268C4F388146143BD
:1014D000C2F30142521C5200B1FBF2F101601968E3
:1014E0000F2202EA11117F4A545C0168E140416019
:1014F0001C68072505EA9424145D21FA04F484602D
:101500001B6805EA5333D25CD140C16070BDC0F3A3
:101510000121032908D16B4B08331968724A21F461
:10152000F81102400A431A60664970310A68C0F334
:101530000B0002430A6070476749443908607047EE
:1015400065494039086070476249C1F85C017047DD
:101550005C4A8C321168401E21F01F01014311606A
:101560007047584A8C3211686FF0FF0321F4F8512C
:1015700003EB0020084310607047524A8C32116818
:1015800021F440110143116070474E4A8C321168BA
:1015900021F440010143116070474A4A8C321168BE
:1015A00021F440310143116070475049C1F8E00116
:1015B0007047444A30320029116801D0014300E0ED
:1015C0008143116070473F4A34320029116801D0CD
:1015D000014300E08143116070473A4A38320029E4
:1015E000116801D0014300E0814311607047354A22
:1015F00040320029116801D0014300E081431160AD
:101600007047304A44320029116801D0014300E09C
:101610008143116070472B4A10320029116801D0B4
:10162000014300E0814311607047264A14320029CB
:10163000116801D0014300E0814311607047214AE5
:1016400018320029116801D0014300E08143116084
:1016500070471C4A20320029116801D0014300E084
:10166000814311607047174A24320029116801D064
:10167000014300E0814311607047124A5032002953
:10168000116801D0014300E08143116070470D4AA9
:1016900054320029116801D0014300E081431160F8
:1016A0007047084A58320029116801D0014300E010
:1016B000814311607047034A60320029116817D0D6
:1016C000014316E000380240FFFFF6EA1030002424
:1016D0000030002000004742800E47420000FFFF1C
:1016E0000024F400FC000020FFFCFF0F0010474224
:1016F000814311607047194A0029116801D00143E4
:1017000000E081431160704714490C3101280868DA
:1017100003D020F008000860704740F00800FAE7A6
:101720000E4A573A0029117801D0014300E0814365
:101730001170704709481030016841F080710160F4
:1017400070470146054A0020583A12680A4200D004
:1017500001207047014956390870704764380240CB
:10176000CD4910B5884206D101211020FFF77BFF3B
:101770000021102020E0C949884202D101214C04F7
:1017800029E0C749884202D101218C0423E0C549E0
:10179000884202D10121CC041DE0C349884202D114
:1017A00001210C0517E0C149884209D101212020FF
:1017B000FFF759FF00212020BDE81040FFF753BF7D
:1017C000BB49884202D101218C0704E0B949884213
:1017D0000AD1012144052046FFF73BFF2046BDE822
:1017E00010400021FFF735BF10BD7FB50446008AC9
:1017F0000D46C98820F4405001432182A08941F25E
:101800000C618843A9882A8911436A8902431143DC
:10181000A181A08A20F44071A8890843A08268466B
:10182000FFF732FE9C48844202D0A048844201D196
:10183000039800E00298A189090400EBC00101EBC4
:101840000010296801D5490000E08900B0FBF1F0E3
:101850006422B0FBF2F109010B096FF018056B432C
:1018600000EB8300A3891D044FF0320306D503EB80
:10187000C000B0FBF2F000F0070005E003EB001041
:10188000B0FBF2F000F00F00084320817FBD4FF461
:101890001651016000218180C18001810C224281AA
:1018A0008181704710B5028A4C8822F470630A88DF
:1018B00022438C88C9880C4322431A43028210BDFC
:1018C0000021018041808180C18070470029818989
:1018D00002D041F4005101E021F4005181817047B0
:1018E000028B02F47F420283028B0A430283704719
:1018F0000029818902D041F4004101E0C1F30E01C9
:10190000818170470029818A02D041F4006101E0A1
:1019100021F4006181827047C1F308018180704722
:101920008088C0F308007047028A22F00F0202820A
:10193000028A0A43028270470029818902D041F05D
:10194000020101E021F0020181817047828922F4C5
:101950000062828182890A4382817047028A22F072
:1019600020020282028A0A43028270470029018A09
:1019700002D041F4804101E021F4804101827047AE
:10198000818941F00101818170470029818A02D05B
:1019900041F0080101E021F0080181827047028BCB
:1019A000D2B20283028B42EA0121018370470029EF
:1019B000818A02D041F0200101E021F020018182E2
:1019C00070470029818A02D041F0100101E021F026
:1019D000100181827047828A22F004028282828A08
:1019E0000A43828270470029818A02D041F00201B5
:1019F00001E021F0020181827047002A828A01D031
:101A00000A4300E08A438282704710B5C1F3421353
:101A100001F01F040121A140012B07D0022B07D0A8
:101A20001430002A026805D00A4304E00C30F8E7BD
:101A30001030F6E78A43026010BD0246002012888B
:101A40000A4200D001207047C9430180704770B539
:101A500001F01F0501260024C1F3421306FA05F226
:101A6000012B0FD0022B0FD0838A4FEA112100885F
:101A7000134206FA01F600EA060001D000B1012483
:101A8000204670BD8389F0E7038AEEE70A0A012148
:101A90009140C9430180704700100140004400405C
:101AA00000480040004C004000500040001401403D
:101AB00000780040007C00402DE9F043016821F0EF
:101AC000010101600021016041608160C16001612C
:101AD00021214161B849B84A3D251039904202D1CF
:101AE0008D60BDE8F083B44A4FF4746618329042BA
:101AF00001D18E60F5E7B04A4FF47417303290424E
:101B000001D18F60EDE7AC4A4FF0746C48329042DF
:101B100002D1C1F808C0E4E7A74BA84A6033984255
:101B200001D1CA60DDE7A44CA54B7834A04201D1B5
:101B3000CB60D6E7DFF88082A24C08F190084045E0
:101B400001D1CC60CDE7DFF870824FF03D5908F14C
:101B5000A808404502D1C1F80C90C2E79A49DFF8C5
:101B600068820839404501D10D60BAE7964D1835B5
:101B7000A84201D10E60B4E7934D3035A84201D19F
:101B80000F60AEE7904D4835A84202D1C1F800C0C1
:101B9000A7E78D4D8C496035091FA84201D10A6025
:101BA0009FE7894A7832904201D10B6099E7864AD3
:101BB0009032904201D10C6093E7834AA832904260
:101BC0008FD1C1F800908CE730B503687F4ACC68AC
:101BD00013400A682243D1E905452C432243CC69CE
:101BE00022430C6A22434C6A22438C6A22434C6B88
:101BF00022438C6B22431A430260426922F007039E
:101C0000D1E90B2422431A4342610A6942604A68BF
:101C100082608968C16030BD0021016041608160DF
:101C2000C160016141618161C161016241628162A2
:101C3000C16201634163816370470029016802D07A
:101C400041F0010101E021F001010160704700292C
:101C5000016802D041F4004101E021F4004101603B
:101C600070470029016802D041F0200101E021F015
:101C700020010160704741607047406880B2704742
:101C8000002A026802D042F4002201E022F400227D
:101C90000260016170470029016802D041F480218F
:101CA00001E021F48021016070470AB101617047B1
:101CB000C1607047014600200968090300D5012072
:101CC0007047014600200968C90700D0012070470D
:101CD000406900F03800704702463B4B00209A42B2
:101CE00002D2354A103A01E0374A103A8B0001D54A
:101CF000526800E01268364B1A400A4200D00120B8
:101D00007047314A904202D22B48103801E02E48E9
:101D100010382F4A8B0001EA020101D5C1607047DB
:101D2000816070470B0607D5436912B143F0800309
:101D300001E023F080034361802908D0002A026873
:101D400001F01E0101D00A4300E08A43026070479F
:101D500030B51D4A0024904202D2174A103A01E0E1
:101D6000194A103A1B4B194205D01E2303EAD1250C
:101D700003682B4002E0406900F08003880001D531
:101D8000506800E01068124A1040084201D003B1C8
:101D90000124204630BD0C4A904202D20648103839
:101DA00001E0094810380A4A8B0001EA020101D516
:101DB000C160704781607047106002403D000020A4
:101DC000400F002000003D20106402403F801CF0C6
:101DD0007D0F7D0F3C0F3C0F10B50121CC0220463A
:101DE000FFF737FC2046BDE810400021FFF731BC6B
:101DF000174A116821F4C0710143116070471449FA
:101E000008B50A6800F07F0022F07F0210430090BE
:101E1000086008BD0F490120C1F8A40070470C49B3
:101E200000F07F00091F08607047094940F08000FA
:101E3000091F0860704706490020091D096800292C
:101E400000D00120704702490020091D086070473A
:101E5000042C0040008005422DE9F0410D46064665
:101E600000276E4900E00068B8B182690A42FAD0E2
:101E70008069C0F30F10804602F0BAF9041E4BD0FF
:101E8000414602F0FCFAC4E900654FF001086FF02A
:101E9000030625B1A86848B32BE03846EBE73CF0D1
:101EA00019FE051E38D0EA68C2B1686A401C81007C
:101EB0006862104602F0BAF9E860696A06EB8101CF
:101EC0004450A782E78200203CF01AFE401E208387
:101ED00000203CF002FE401E60831CE0042002F063
:101EE00087F9E8600460C5F82480EAE7284627F00F
:101EF0007CFDA868016889B14168491C4160A868F7
:101F00008900006802F092F9A9680860A968496828
:101F100006EB810144502046BDE8F081042002F028
:101F200067F9A96808600460A968C1F80480F2E74D
:101F30000068002809D0017E11F00C0FF8D0007E57
:101F4000C0F38100012800D00020704770B50568FB
:101F50000446286818B120602046FFF7F7FF256087
:101F60006A682846002A03D02146BDE87040104721
:101F700070BD70B5054629F03DFA00202BF0DDF963
:101F800028462CF0EAFE2846FFF7E0FF01202BF060
:101F9000D4F94FF6FF724FF4702128462BF00AF85F
:101FA000284629F017FE25F075FD030007D02846C6
:101FB000FFF7BEFF18B12946184625F0FFFD284659
:101FC0002BF0F5FD04000DD02A46222125F038FB28
:101FD0002A462321204625F033FB2846BDE87040E1
:101FE00028F0EDBD70BD10B50446006882680AB1E6
:101FF0002146904720680068002801D02060F5E75E
:1020000010BD0068002808D0017E8907F9D0007E45
:1020100000F00300012800D000207047F0FF0F00FF
:1020200013460A4641F201012BF0F4B913460A4661
:1020300041F202012BF0EEB913460A4641F20301C8
:102040002BF0E8B913460A4641F204012BF0E2B93D
:1020500013460A4641F205012BF0DCB913460A4645
:1020600041F206012BF0D6B913460A4641F20701A8
:102070002BF0D0B913460A4641F208012BF0CAB939
:1020800013460A4641F209012BF0C4B913460A4629
:1020900040F60A012BF0BEB913460A4640F60B0182
:1020A0002BF0B8B913460A4643F20C012BF0B2B933
:1020B00013460A4643F20D012BF0ACB913460A460B
:1020C00043F60E012BF0A6B913460A4643F60F015C
:1020D0002BF0A0B913460A4641F610012BF09AB92D
:1020E00013460A4641F611012BF094B913460A46ED
:1020F00041F612012BF08EB913460A4641F6130140
:102100002BF088B913460A4641F614012BF082B928
:1021100013460A4641F615012BF07CB913460A46D0
:1021200060212BF077B913460A4661212BF072B972
:1021300013460A4640F262412BF06CB913460A4638
:1021400063212BF067B913460A4664212BF062B96C
:1021500013460A4665212BF05DB913460A466621EF
:102160002BF058B913460A4667212BF053B9134692
:102170000A4668212BF04EB913460A4641F269011E
:102180002BF048B913460A4641F26A412BF042B996
:1021900007B481B01346BDF80810ADF80010009ADE
:1021A000202104B02BF036B907B481B01346BDF836
:1021B0000810ADF80010009A44F2200104B02BF092
:1021C00029B913460A4621212BF024B907B481B05E
:1021D0001346BDF80810ADF80010009A222104B093
:1021E0002BF018B907B481B01346BDF80810ADF84C
:1021F0000010009A44F2220104B02BF00BB91346F0
:102200000A4623212BF006B913460A4624212BF057
:1022100001B913460A4625212BF0FCB813460A469D
:1022200040F626012BF0F6B813460A4627212BF07C
:10223000F1B807B481B01346BDF80810ADF800102E
:10224000009A282104B02BF0E5B807B481B01346FA
:10225000BDF80810ADF80010009A44F2280104B04F
:102260002BF0D8B813460A4629212BF0D3B81346D1
:102270000A462A212BF0CEB807B481B01346BDF828
:102280000810ADF80010009A302104B02BF0C2B84D
:1022900007B481B01346BDF80810ADF80010009ADD
:1022A00044F2300104B02BF0B5B813460A46312190
:1022B0002BF0B0B813460A4641F232012BF0AAB80F
:1022C00013460A4633212BF0A5B813460A4634219B
:1022D0002BF0A0B807B481B01346BDF80810ADF8D4
:1022E0000010009A40F2574104B02BF093B807B4A5
:1022F00081B01346BDF80810ADF80010009A44F202
:10230000574104B02BF086B813460A464FF48B6150
:102310002BF080B813460A4641F259412BF07AB8A7
:1023200013460A4641F25A412BF074B813460A4646
:1023300041F25B412BF06EB813460A4640F25C4115
:102340002BF068B813460A4641F25D412BF062B8A3
:1023500013460A4646212BF05DB807B481B01346F8
:10236000BDF80810ADF80010009A472104B02BF01A
:1023700051B807B481B01346BDF80810ADF800108D
:10238000009A44F2470104B02BF044B813460A46C1
:1023900048212BF03FB813460A4640F63A012BF08D
:1023A00039B807B481B01346BDF80810ADF8001075
:1023B000009A3B2104B02BF02DB807B481B013462E
:1023C000BDF80810ADF80010009A44F23B0104B0CB
:1023D0002BF020B813460A4640F63C012BF01AB801
:1023E00013460A4640F63D012BF014B813460A4640
:1023F0004FF404612BF00EB813460A4640F6410133
:102400002BF008B813460A4640F642012BF002B8FA
:1024100013460A4640F643012AF0FCBF07B481B0D8
:102420001346BDF80810ADF80010009A442104B01E
:102430002AF0F0BF07B481B01346BDF80810ADF81C
:102440000010009A44F2440104B02AF0E3BF13469E
:102450000A4640F645012AF0DDBF13460A4640F61B
:1024600049012AF0D7BF13460A464A212AF0D2BFB3
:1024700013460A464B212AF0CDBF13460A464C218B
:102480002AF0C8BF07B481B01346BDF80810ADF8F4
:102490000010009A4D2104B02AF0BCBF07B481B0EF
:1024A0001346BDF80810ADF80010009A44F24D0133
:1024B00004B02AF0AFBF13460A464E212AF0AABF45
:1024C00013460A464FF405612AF0A4BF13460A4694
:1024D00051212AF09FBF07B481B01346BDF8081000
:1024E000ADF80010009A522104B02AF093BF07B44F
:1024F00081B01346BDF80810ADF80010009A44F200
:10250000520104B02AF086BF13460A4653212AF02E
:1025100081BF13460A4654212AF07CBF2DE9F041C1
:1025200015460E460746124C00F077FD80462B46B6
:1025300032463946204634F0E3F820B10020A0624C
:10254000E06950B110E02C21204601F098FF4FF0D7
:102550000040A0620020BDE8F081404600F065FD2B
:10256000E06108B90120E0612046F4E77047704758
:102570009832012010B50146F948FFF76DFC04467A
:10258000FFF7F7FC204610BD2DE9F0418AB0054663
:102590001221684601F073FFA86E00276C460028E0
:1025A00009DA286E002801DB2B2000E02D208DF8B1
:1025B0000000641C00E001272B6E002B00DC5B4256
:1025C000E8A20E2105A83DF0D2FB05A802F0E2FE2C
:1025D00095F870100DF1140801F00F010E1A002E7D
:1025E00012DD404602F0D6FE81B2434601EB060CF6
:1025F0005A5C03F80C20491EF8D50020302101E078
:102600001954401CB042FBDBB5F8700010F0F00F1D
:1026100004D0C0F303160020424605E000F00F0688
:10262000F9E704F8011B401CB04202DA115C0029F2
:10263000F7D195F8701011F0F00F0FD02E2104F89B
:10264000011B02E004F8011B401C95F8701001F01A
:102650000F01814202DD115C0029F3D16946284651
:1026600046F07EF995F870000A2200F00F00E96E3E
:1026700003E091FBF2F1401EC0B20A29F9DAB04240
:1026800001DD401CC0B2C01BC1B2284645F013FF9B
:102690000AB0BDE8F081426E8A4200DA1146826ECD
:1026A0008A4200DD114601666EE730F8702F61F353
:1026B0000822028070472DE9F04116460D46044677
:1026C0000A2900D90A25AE4201D3002602E00A2ECB
:1026D00000D90A260A2D1DD26AB20A20002101F073
:1026E000CFFC0246431E606E41F1FF374FEAE07CAB
:1026F000181A77EB0C0700DA6366A06E4FF0010C36
:10270000C3170027D2EB0C0267EB0107801ABB410D
:1027100000DAA266B4F8700065F3030066F30710F0
:10272000A4F870002046BDE8F0412DE7C1662BE714
:10273000C0E91921D0E918218A4200DD0166026E44
:10274000816E8A4200DA01661EE770B505460E46C4
:10275000D5E91904002C01DA614200E021468842E3
:1027600001DD044602E0002C00DA644272B20A2065
:10277000002101F085FCE96EA0FB010136B1A04209
:1027800000DCE8662846BDE87040FDE60121E96608
:10279000F8E7B0F8702061F34A22A0F87020F3E661
:1027A000006E7047C06E7047C16E0A2291FBF2F155
:1027B000002901DDC16601E00122C266E4E6D0E93C
:1027C0001921002901DA4B4200E00B469A4201DD53
:1027D000114602E0002900DA4942C26E02EB820291
:1027E00052008A4200DCC266CEE6B0F87000C0F348
:1027F00000207047C26E016E8B18426E934209DC56
:10280000002B03DD002901DA4A420266026EC16E26
:102810000A4406E0B0F87030DB0502D5914200D1E1
:10282000826E0266B0E6C26E016E8B1A826E9342B1
:1028300009DB002B03D5002901DD4A420266026E46
:10284000C16E521A06E0B0F87030DB0502D5914235
:1028500000D1426E026697E610B500200866B1F816
:1028600070000C4620F0FF00401DA1F87000012010
:10287000C8663D48486640428866B1F8700001214C
:1028800020F4E06000F58060A4F87000204646F077
:1028900056F90121204646F016F98221204628F0FB
:1028A00054FD2046BDE810406EE670B50E462C483B
:1028B00024F050FE01287DD1304624F0DFFE05468D
:1028C000304624F0D7FE0446082D17D00D2D71D1C7
:1028D00026F043F826F044F80546304624F0D0FEB2
:1028E0000168132967D0142966D0112976D01229DE
:1028F00075D02046BDE8704045F065BF26F02DF844
:1029000026F02EF8042820460CD045F0B3FE0546EC
:1029100002F040FD216C6A5C2E2A36D0814238D10B
:10292000411E3BE027F05CF825F0B8FA002860D0A3
:10293000B4F8700000F00F02012A5AD9C0F3412008
:10294000022813D00A200021521E01F099FBE26EEA
:10295000D317101A8B4155DB0A212046E16609E0A6
:10296000DC620008256400009F860100E06E0128FB
:1029700003DD2046BDE8704016E70A200021921EC4
:1029800001F07EFBE06620463DE0204646F076F909
:1029900007E031B9A06E002803DA0121204645F096
:1029A0008AFDB4F87010226C01F00F0390B2C1F3ED
:1029B000031502E01DE01DE022E05B1EAA4204D9DF
:1029C00011F0F00F01D0401E80B21A1AA06E00283C
:1029D00000DA521C0120E066002008E00CE015E05F
:1029E000E16E01EB81014900401C80B2E16690423A
:1029F000F6D370BD042DBCD12046BDE87040F9E689
:102A0000042D03D02046BDE87040D8E62046BDE83E
:102A1000704008E7FA4B10B5197001465A80F94822
:102A2000FFF71AFA0446FFF7A4FA204610BD00216A
:102A30002BF0A6B801212BF0A3B82DE9F0470646EC
:102A4000008D0C469146A04200D8441E304628F026
:102A5000C0FE3046FFF7EEFF050025D0002141F60D
:102A600015022AF021FA07B2284628F0DDFA80463E
:102A70000021304600F0DCF9012804D007EB080003
:102A8000604301B204E0604207EB0801414309B230
:102A90004A46284629F0F3FB3046FFF7C8FFA1B2AB
:102AA00080223FF02BFD7485BDE8F0872DE9F05FB3
:102AB0008A460446FFF7BEFF054626F00CFE42F2AA
:102AC000640183460A4628F057FC0421584626F044
:102AD0003CFE28462BF066F806462046FFF7A7FF87
:102AE000814694F82C00D4F8248010F00C0F19D0F3
:102AF000B700381D01F07CFB05463A1F414600F047
:102B00008CF9504602F046FC401C01F071FB05EBCD
:102B1000860141F8040C514602F051FCBAA045F878
:102B200026001CE0F700384601F062FB0546A7F1DD
:102B30000802414600F071F9208D20B305EBC6066E
:102B4000B2A046F80C0D504602F024FC401C01F0E7
:102B50004FFBADA1C6E90101514602F030FC294608
:102B6000484665623FF04CFB404601F054FB4FF491
:102B7000A87148463FF0E5FC208D401C80B22085BE
:102B800001280DD011E0504602F004FC401C01F079
:102B90002FFB5146286002F012FC9BA06860DEE724
:102BA000002211462046FFF748FF618D80224846EB
:102BB0003FF0A4FC5846BDE8F09F408D7047F8B543
:102BC000044624F057FD0646204624F057FD0546EE
:102BD00030462AF0ECFF04462B2D2CD00A2D29D1AB
:102BE0006946304629F080FA304628F01DFA05463D
:102BF0000021204600F01CF90128BDF9000005EB7A
:102C0000D5711DD000EB610090FBF5F001B20029F9
:102C100000DA0021608D0025884200D001250122C4
:102C20002046FFF70AFF002D04D000221C21204679
:102C300024F006FDF8BD618DBDE8F8400022FCE6F9
:102C4000C0EB6100E0E770B524F014FD05462AF002
:102C5000AEFF044628463FF0ADFC01462046BDE8E5
:102C600070400122E9E62DE9F041654E0C463078CE
:102C700081F82C00012849D0022849D0042802D02C
:102C8000082806D101E0012100E0092120463AF0A0
:102C9000B0FE42F2640529462A46204628F06CFB25
:102CA00020463FF0A3FA0746204626F014FD804652
:102CB000012138463FF077FC042001F099FA52A137
:102CC000606201603846616A3FF09AFA00231C2274
:102CD0004F49384624F0ECFC4FF48051384626F03A
:102CE00004FD00231A464B49404624F0E1FC002134
:102CF000404629F051F894F82C00012815D00228FC
:102D000013D0042806D008281DD103E00021BDE718
:102D10000821BBE7B6F902202946384628F02CFBEB
:102D20002946404628F011FB09E02A46B6F9021070
:102D3000384628F021FB2946404628F0EFFA0121C9
:102D400040463AF096FE24F0A5FE10B1394624F034
:102D500035FF002140463AF04CFE0321404629F061
:102D60003CF88021404626F0C0FC4046BDE8F041DA
:102D70004FF4007126F0E9BC70B591F82C000C46B8
:102D800010F00C0F4FF000060DD0002508E0606A2F
:102D900050F8250001F03FFA606A40F825606D1C8C
:102DA000208DA842F3D894F82C0080070DD0002580
:102DB00008E0606A50F8350001F02DFA606A40F8CA
:102DC00035606D1C208DA842F3D8606A01F023FAAB
:102DD000666270BD70B50C460A4824F0BBFB012842
:102DE0001AD1204624F04AFC0546204624F042FC35
:102DF000292D11D1418DBDE8704000221DE6000053
:102E000044020020F8620008000000000A000000F0
:102E1000472C0008BF2B000870BD10B5034604E026
:102E200011F8014B03F8014B521E002AF8D110BDD6
:102E300010B541F26A422AF037F8C0B210BD000066
:102E40003D4A10B5118001463C48FFF705F804469D
:102E5000FFF78FF8204610BD00212AF091BE70B513
:102E60000C46FFF7F9FF42F09BF80546012142F0BE
:102E70006DFC2146284642F0C5FB012128463AF068
:102E8000F8FD284670BD70B515460C46FFF7E4FF07
:102E900002F07AF8064642F26402294628F06CFAFB
:102EA000304641F04FFA0546214641F055FA0023DD
:102EB0001A460921284628F0BDFC304670BD012184
:102EC0002AF05EBE70B50C4608462AF070FE064633
:102ED00027F0CCFE0546304627F0CEFE01462A46B6
:102EE000204628F049FA012120463AF082FD20468A
:102EF00026F0F1FB0646104842F264052946B0F977
:102F00000020304628F038FA002130463AF071FDB2
:102F100002231A46002130463AF08BFD204626F067
:102F2000DAFB044601213AF0A4FD29462046BDE81B
:102F3000704028F00ABA00007C02002048E804082B
:102F400010B50446202101F09AFA002020700A20D2
:102F5000207660764FF4C870A0836420E08332202E
:102F6000E0760320A07610BD70B50546006920B953
:102F70003BF0B0FD2861002814D021483CF080FAD5
:102F8000040010D0582101F07AFA256060792246B9
:102F900040F0020060711E211A4801F077FF21689D
:102FA0004861204670BDFEE70160704718B10146D8
:102FB00013483CF0D9BA12483CF083BA70B50D46BC
:102FC00004461021284601F05AFA206800780128AA
:102FD00004D0022807D0042807D008E0208A2880DF
:102FE000608A688003E0E06800E00A20686020688A
:102FF0004268002A03D02946BDE87040104770BDE2
:1030000050320120A98802080B4900220A704A6840
:103010001044486009490860704707490122486820
:103020000A700B78002BFBD0704710B50446FFF7F1
:10303000F4FF001B10BD0000A002002004000020CF
:1030400070B5FA4E7068FFF7F0FF0546707880F0B3
:103050000100707047E00020307094F83E007178F5
:10306000C0F380028A4242D061F3820084F83E00BD
:10307000E16A4A19030719D4002917DC002A15DB75
:10308000C00709D1216939B120468847E169014467
:10309000E161616A08446062A16809B1204688471D
:1030A00094F83E0040F0080084F83E00E06A4019C1
:1030B000E06216D4A16A884200DDE162A16920467F
:1030C00088470146206A884204D0216262680AB1BA
:1030D00020689047D4E90A01814202DB204600F0D3
:1030E000E3F9307818B1D2483CF0EBF903E021461F
:1030F000CF483CF039FA0400ADD1FFF78EFF706085
:1031000070BD10B54021CA483CF0B2F900221E2122
:10311000C84801F0BBFEC54CA06000F0B3F9002028
:10312000207010BD38B504464FF480600090D4E99B
:103130000A200023194600F0BDFF0146626AE069DB
:10314000121A4A4300EBA22038BD10B504464021B4
:1031500001F095F94FF4FA70A0620020E06164205C
:1031600060620120A087AFF24300A06194F83E00A6
:1031700040F0010084F83E0010BD2DE9F041074603
:103180000E464FF00008AA483CF09BF9044618E0B0
:103190002146A7483CF0E8F905462068B84200D02F
:1031A00077B96068B04200D056B92146A0483CF0DB
:1031B000E3F9204601F02FF800F064F94FF0010820
:1031C0002C46002CE4D14046BDE8F08170B5416842
:1031D000054611B12868FFF7D0FF95483CF086FA04
:1031E000924E10B1FFF719FF706091483CF048F91A
:1031F000040024D04022294601F0AEF82868A842F5
:1032000000D12460717894F83E0061F3820084F864
:103210003E00C0070FD0216939B120468847E169D7
:103220000144E161616A0844606262681AB1206821
:1032300008B1E169904700F025F9204670BDFEE72E
:1032400030B5828F4FF0FF31B2EB11430CD0D0E993
:103250000A3190F83E40591AA40703D4D0E90C452E
:103260002C442144012A01D8084630BD846B521EEB
:103270002344D0E90C402044184400FB021030BD28
:1032800010B56B483CF0ACF9BDE8104000F0FAB85E
:1032900070B505460C4666483CF013F90BE0016832
:1032A000A94204D14168A14207D0002C05D00146B3
:1032B0005F483CF059F90028F1D170BD10B50024E9
:1032C0005B483CF0FEF804E0641CA4B258483CF0B3
:1032D0004BF90100F8D1204610BD8B1A002B00DC01
:1032E000531A4FF47A714B43B3FBF0F0002800D12E
:1032F000012070470020A3E638B504464FF48065EE
:103300000095D4E90A200023194600F0D3FE642377
:1033100032220021009500F032FE0146626AE06927
:10332000121A4A4300EBA22038BD38B504464FF4C8
:1033300080650095D4E90A200023194600F0BAFE02
:1033400040F2B6334FF461720021009500F017FE91
:103350000146626AE069121A4A4300EBA22038BDB6
:1033600038B504464FF480650095D4E90A2000235F
:10337000194600F09FFE4FF46E7332220021009533
:1033800000F0FDFD0146626AE069121A4A4300EB53
:10339000A22038BD38B504464FF480650095D4E9C5
:1033A0000A200023194600F085FE40F214534FF422
:1033B0007A720021009500F0E2FD0146626AE06940
:1033C000121A4A4300EBA22038BDF8B505464FF467
:1033D00080660096D5E90A200023194600F06AFEAF
:1033E000EA69696A8C1AB0F5CC7F04DA40F6C41138
:1033F0004843801229E0A0F5CC711422CE2902D2D4
:1034000001EB81000EE0A0F26621CD2902D201EB92
:10341000810018E0A0F23331282266290CD201EB9A
:1034200081004000C0F580600DE00000A80200208F
:103430006832012041300008A0F29931672904D890
:1034400001EB8100400094FBF2F43146884201DD3B
:10345000304602E0002800DA0020002200924FF4FB
:10346000FA734FF4487200F08AFD696A6043A1EB79
:10347000A020F8BDD0E90A128A4201DB406A7047F9
:10348000C069704710B5264C0120207025483CF0DB
:1034900018F80028A06803D0BDE8104001F01CBD5A
:1034A000BDE8104001F015BD10B5044690F83E008F
:1034B000616B820707D4A28F3AB1A2F57F43FF3B2D
:1034C00015D0521EA287A28F8AB909B182070ED5E4
:1034D000214614483CF050F8FFF7D4FFE16809B1E9
:1034E000204688472046BDE8104000F094BEA26BFD
:1034F0005242E262002911D0820702D4226B52426A
:10350000E2624210521C62F3410084F83E00626A9B
:10351000E069E2616062A06AA162606310BD0000C0
:10352000A80200206832012010B5029C0180428070
:103530008380C48010BD0288491E11448180704779
:103540004288491E1144C18070472DE9F04116465A
:103550000F46044600F0EFFA0546204600F0F1FA67
:1035600003462780668029462046FFF7E4FF204671
:10357000BDE8F0411946E3E7B0F90410B0F90020C6
:10358000891AB0F90620B0F90200101A401C491C33
:103590004843704703885B1A0380838819448180FD
:1035A0004188891A4180C1881144C18070470388CD
:1035B0000B440380838819448180418811444180F1
:1035C000C1881144C180704770B5B1F90040B2F9AB
:1035D00000309C4200DD23460380B1F90240B2F97D
:1035E0000250AC4200DC2C464480B1F90450B2F9E0
:1035F0000460B54200DB35468580B1F90610B2F9AA
:103600000620914200DB1146C1800120AB4201DC63
:103610008C4200DD002070BD10B5B1F90030B2F968
:103620000040A34200DB23460380B1F90230B2F927
:103630000240A34200DB23464380B1F90430B2F9D3
:103640000440A34200DC23468380B1F90610B2F99E
:103650000620914200DC1146C18010BD10B5B0F9C2
:103660000420B0F900304088D21A02EBD272521016
:103670000C88134449881044E31A081A12FB02F11B
:1036800013FB03F210FB0020884201D8012010BD7B
:10369000002010BD2DE9FC4105460F46B1F90000A0
:1036A000B5F90010144688423BDBB5F90410884296
:1036B00037DCB7F90200B5F90210884231DBB5F901
:1036C000061088422DDC002C76DD284600F033FA07
:1036D00000EBD0704610284600F033FA00EBD070B3
:1036E0004010864200DA3046844200DD04462888D5
:1036F000ADF80000288800222044ADF80400688856
:10370000ADF80200688839462044ADF806006846E6
:10371000FFF7C0FF40B1BDF804002044ADF804003D
:103720003FE00020BDE8FC81E8880022001BADF8E6
:103730000200E888ADF8060039466846FFF7AAFFA0
:1037400028B1BDF804002044ADF8040011E0A888B9
:103750000022001BADF80000A888ADF8040039462F
:103760006846FFF797FF50B1BDF80000001BADF8A9
:103770000000BDF80200001BADF8020016E06888EA
:10378000ADF80200688800222044ADF806003946F2
:103790006846FFF77FFF70B1BDF80000001BADF871
:1037A0000000BDF806002044ADF806003946684622
:1037B000FFF754FFB6E7FFE70120B3E7B0F90020B9
:1037C000B1F904309A4213DCB0F90420B1F90030A9
:1037D0009A420DDBB0F90220B1F906309A4207DCBB
:1037E000B0F90600B1F90210884201DB01207047F0
:1037F00000207047F8B50D460446B0F90000B1F955
:1038000000101646884247DBB4F90210B5F90220D1
:10381000914241DBB4F90410B5F9042091423BDC3C
:10382000B4F90610B5F90620914235DC96B3ADF82F
:1038300000006088ADF80200324669462846FFF76E
:1038400029FF002827D0A088ADF800006088ADF8D7
:103850000200324669462846FFF71CFF00281AD0AE
:103860002088ADF80000E088ADF8020032466946D5
:103870002846FFF70FFF00280DD0A088ADF8000004
:10388000E088ADF80200324669462846FFF702FF9D
:10389000002800D00120F8BD0020F8BDF8B50D4685
:1038A0000446B0F90400B1F900101646884243DB23
:1038B000B4F90600B5F9021088423DDBB4F9000006
:1038C000B5F90410884237DCB4F90210B5F90620C6
:1038D000914231DC76B3ADF800006088ADF80200AB
:1038E000324669462846FFF7D5FE18BBA088ADF8DA
:1038F00000006088ADF80200324669462846FFF7AE
:10390000C9FEB8B92088ADF80000E088ADF8020023
:10391000324669462846FFF7BDFE58B9A088ADF883
:103920000000E088ADF80200324669462846FFF7FD
:10393000B1FE08B10020F8BD0120F8BD2DE9F04727
:103940009846DDF820900D460646162A74D2DFE828
:1039500002F0F0F01B2D363A4A54560B6063748225
:1039600084B1BBC1C6CBD0E3304600F0E4F80446D6
:10397000284600F0E0F8014604EBD470401001EB5B
:10398000D171A0EB610042E0304600F0D4F804466B
:10399000284600F0D0F8014604EBD470401001EB4B
:1039A000D171A0EB610093E0002069E0304600F0A7
:1039B000C2F80446284600F0BEF8201A88E0002429
:1039C000AEE000B25CE0304600F0B5F804462846B0
:1039D00000F0B1F8014604EBD470401001EBD17156
:1039E000A0EB610007E0304600F0A5F80446284649
:1039F00000F0A1F8201A04B292E000247DE03046E5
:103A000000F099F80446284600F095F8201A04B210
:103A100073E0002408461AE0304600F08CF80446B3
:103A2000284600F088F8014604EBD470401001EB02
:103A3000D171A0EB610008E07BE0304600F07BF83C
:103A40000446284600F077F8201A04B2284600F011
:103A500078F84042B5E700240FE0304600F06BF8FC
:103A60000446284600F067F8014604EBD470401085
:103A700001EBD171A0EB610024E0304600F061F869
:103A800031880C4471880E18284600F054F8074617
:103A9000284600F056F8024604EB0800288006EBA2
:103AA00009017F1E69803844A880521E8818E8806A
:103AB000BDE8F087304600F03EF80446284600F0A6
:103AC0003AF8201A04B2D8E7084600F034F8404229
:103AD00004B269E7084600F02EF8404297E708462E
:103AE00000F029F8404286E7304600F024F804460A
:103AF0005AE7304600F01FF80446304600F021F83F
:103B00000746284600F01DF807EBD771491000EB77
:103B1000D070A1EB600054E7304600F00CF804468A
:103B2000304600F00EF80746284600F00AF8381A2A
:103B300047E7002438E781880088081A401C00B253
:103B40007047C1884088081A401C00B270470000C6
:103B500010B5C468D4E9001088472046BDE810407D
:103B600000F059BB70B506460D46082000F040FB3A
:103B7000041E0BD002460021074801F087F930B13E
:103B8000C4E90065012101F0B5F9012070BD2046AE
:103B900000F041FB002070BD513B00080421B948F2
:103BA0003BF066BC10B50446B6483BF08AFC08E022
:103BB00008680078A04201D1086810BDB1483BF008
:103BC000D3FC0100F4D110BD10B5FFF7EBFF0028C6
:103BD00005D0416811B1BDE810400847012010BD73
:103BE0002DE9F04117460D0006461AD02878FFF758
:103BF000D9FF040017D0616809B18847A8B1A0684F
:103C0000A8B1284600F038F90146A3683A46204694
:103C1000984770B1411C0CD0C6E900040020BDE8F3
:103C2000F0810B20FBE70320F9E70120F7E70920EB
:103C3000F5E70C20F3E710B50446406838B1C268D8
:103C40003AB12168904700212160616010BD0B20CE
:103C500010BD092010BD7CB51C0013464FF00005B7
:103C600000D0256042687AB112697AB101AACDE923
:103C70000025D0E900600A4605693146A847002CB6
:103C800001D0019921607CBD0B207CBD09207CBD49
:103C90007CB51C0013464FF0000500D0256042683B
:103CA0007AB152697AB101AACDE90025D0E9006064
:103CB0000A4645693146A847002C01D00199216088
:103CC0007CBD0B207CBD09207CBD30B40D46014677
:103CD000406838B1846944B1134609682A46A4464D
:103CE00030BC60470B2030BC70470920FBE730B484
:103CF000024600200860506830B1C36933B11468CF
:103D00000A46214630BC18470B20ECE70920EAE7B9
:103D100070B50E00054618D03078FFF743FF040059
:103D200015D0616809B1884798B1206A98B13046CA
:103D300000F0A2F80146226A2046904768B1411C73
:103D40000BD0C5E90004002070BD0B2070BD03201E
:103D500070BD012070BD092070BD0C2070BD0A46E9
:103D6000014600201070486820B1096811B1436A0B
:103D700013B118470B2070470920704710B504464F
:103D8000406840B1216831B1826A32B19047002168
:103D90002160616010BD0B2010BD092010BD3021D5
:103DA00000F06DBB10B5044636483BF069FB08B126
:103DB000046010BDFEE770B50546002431483BF0B5
:103DC00080FB07E0086800782855641CE4B22D48A1
:103DD0003BF0CAFB0100F5D12855284670BD10B54F
:103DE000044601F0D7FA50B1211811F8011C2E2910
:103DF00007D02F2903D05C2901D0401EF4D122A086
:103E000010BD204410BD10B5044601F0C3FAB0B196
:103E1000002201E0225490B1401E215C2F29F9D0EC
:103E20005C29F7D058B1211811F8011C2F2903D0B3
:103E30005C2901D0401EF5E7204400F8012C204603
:103E400010BD10B5044601F0A5FA88B1401E215CF2
:103E50002F290BD05C2909D060B1211811F8011C61
:103E60002F2907D05C2905D0401EF5E70028EDD1A9
:103E7000204610BD204410BD10F8011F3A2900D182
:103E8000401C70475C3201200000000010B50C217E
:103E9000244800F0F4FA23480C210C3000F0EFFA2B
:103EA00020480C21183000F0EAFA1E480C2124307A
:103EB00000F0E5FA1B480C21303000F0E0FA194818
:103EC0000C213C3000F0DBFA16480C21483000F0A1
:103ED000D6FA14480C21543000F0D1FA04211248CB
:103EE00000F0CDFA0F482C21603000F0C8FA0E48DF
:103EF0000421001D00F0C3FA0A4880218C3000F034
:103F0000BEFA7021094800F0BAFA084880217030E2
:103F100000F0B5FA04480421BDE81040083000F074
:103F2000AEBA000038320120B40200204433012030
:103F30004FF4B47190FBF1F201FB1200002802DA99
:103F400000F5B47000B26D4A5A2802DA32F9100056
:103F50007047A0F15A015A2903D2C0F1B40000B24F
:103F6000F4E7A0F1B4015A2901D208B202E0C0F589
:103F7000B47000B232F81000404200B27047F0B5A1
:103F8000C0F5806404FB04F5AD0A05FB04F64FEAB6
:103F9000962E00FB00F6B60A06FB00F74543554394
:103FA000BF0A0EFB01FE74434FEA9E2105EB45005C
:103FB0005C43DDF814C004EB440201EB105007FB36
:103FC0000CF700EB125000EB9720F0BD30B5040267
:103FD0000020831803FB03F5A54200D818465208B9
:103FE000F7D1020900070A80000E488030BD002288
:103FF000002801DA01224042002901DA4942921CDC
:10400000884207D9C1EB011101EB4101B1FBF0F38B
:10401000103205E0C0EB001000EB4000B0FBF1F304
:104020000020D9B216290BD92C2900D80120292922
:1040300000D8401C252900D8401C20290BD90BE0B2
:10404000022900D30120062900D3401C0A2900D3ED
:10405000401C0F2900D3401C1844D10601D5C0F1E3
:104060005A0091074FEAC27105D509B1B43005E095
:10407000C0F1B40002E009B1C0F5B47080B270477D
:1040800070B504460B460120002110E0D50706D08C
:10409000A0FB045601FB046100FB03112846A4FBAE
:1040A000045603FB046604FB036352102C46002AEB
:1040B000ECD170BD10B59042029C01DB204610BDD2
:1040C000884201DC184610BD521AE41A401A6043B7
:1040D00090FBF2F0184410BD094B091A491C1A68EC
:1040E00082EA423282EA524282EA42121A60B2FB09
:1040F000F1F301FB13210844704700007C620508BE
:10410000C002002010B54FF40041F7483CF0AEF873
:10411000F649486010BDF54810B540683CF0B4F869
:10412000BDE81040EEE71AB11869401C18617047ED
:104130005868401C5860986808449860D86888425D
:10414000F5D2D960704710F0030309D0C3F104031E
:1041500003E0521E00F8011B5B1E0BB1002AF8D1D0
:1041600001EB012303EB014303EB01630EE008C005
:10417000203A08C040F8083B40F8043C40F8103BA7
:1041800040F80C3C40F8083C40F8043C202AEED8AB
:1041900001E008C0121F042AFBD802E000F8011B4E
:1041A000521E002AFAD1704710B504461C22002185
:1041B000FFF7C9FFCD4840683CF067F82246CC497C
:1041C0003BF0A6FF4FF400412160A0686422424307
:1041D000B2FBF1F1C1F16401217638B1E1686422EA
:1041E0005143B1FBF0F0C0B2C0F16400607610BD85
:1041F00010B588B038B10146BC4840683CF048F87A
:10420000040003D005E0B94808B010BD6846FFF7C8
:10421000CBFF2046F8E7B549884206D0002804D0F5
:104220000146B24840683CF097B8704710B531B1CC
:10423000AE4A904207D1BDE810400846D8E7FFF7E4
:10424000EAFFAA4810BD0A460146A8484068BDE8F2
:1042500010403CF0AEB810B5A44CA6492068884286
:1042600009D160683BF0E3FE28B960683CF00DF8C6
:104270003BF076FF08B1002010BD012010BD2DE9F4
:10428000F04105000AD000229B4C4FF0FF30012680
:1042900004EBC2018B79DB0703D014E00020BDE8FA
:1042A000F0818988A9420ED305D104EBC200867142
:1042B00054F83200F3E7002804DB04EBC0039B88CA
:1042C000994200D250B2521CD2B2102AE0D3002838
:1042D00005DB04EBC0018E7154F83000DFE70027E6
:1042E00004EBC7008079C00704D07F1CFFB2102FF9
:1042F000F6D3FEE754F837002946FFF797FF30B1B1
:1043000004EBC7018E718D8044F83700C7E7FEE7E4
:10431000794A002152F83130834204D102EBC101C5
:10432000002088717047491CC9B21029F2D3704728
:1043300070B50024704D264655F8340038B1FFF7AB
:104340006AFF05EBC40045F8346086718680641C02
:10435000E4B2102CF0D370BD30B500F0030401F0CE
:1043600003050346A54243D14DE00C781C704C7800
:104370005C708C789C70CC78DC700C791C714C79FA
:104380005C718C799C71CC79DC710C7A1C724C7AE2
:104390005C728C7A9C72CC7ADC720C7B1C734C7BCA
:1043A0005C738C7B9C73CC7BDC730C7C1C744C7CB2
:1043B0005C748C7C9C74CC7CDC740C7D1C754C7D9A
:1043C0005C758C7D9C75CC7DDC750C7E1C764C7E82
:1043D0005C768C7E9C76CC7EDC760C7F1C774C7F6A
:1043E0005C778C7F9C77CC7FDC772031203A203340
:1043F000202ABAD804E011F8014B03F8014B521EF1
:10440000002AF8D130BD4CB3C4F1040405E011F822
:10441000015B521E03F8015B641EFCB1002AF6D159
:104420001CE010C9203A10C310C910C351F8084B42
:1044300043F8084B51F8044C43F8044C51F8104B26
:1044400043F8104B51F80C4C43F80C4C51F8084C05
:1044500043F8084C51F8044C43F8044C202AE0D8A7
:1044600002E010C9121F10C3042AFAD804E011F8A0
:10447000014B03F8014B521E002AF8D130BD10F059
:1044800003034FF0000219D0C3F1040303E0491EF7
:1044900000F8012B5B1E8BB10029F8D10EE004C09F
:1044A000203904C040F8082B40F8042C40F8102BA9
:1044B00040F80C2C40F8082C40F8042C2029EED8A9
:1044C00001E004C0091F0429FBD802E000F8012B19
:1044D000491E0029FAD1704710F003024FF0FF0384
:1044E00013D0C2F104020DE034340120C4020020D4
:1044F00027410008D4C3B2A1C4320120491E00F8EC
:10450000013B521E0AB10029F8D14FF0FF320EE0F4
:1045100004C0203904C040F8082B40F8042C40F8AF
:10452000102B40F80C2C40F8082C40F8042C2029C3
:10453000EED801E004C0091F0429FBD802E000F80E
:10454000013B491E0029FAD17047000008B5D30885
:10455000BDF8002063F30402ADF800208A08BDF81E
:10456000001062F34A11ADF80010C108BDF8000058
:1045700061F3CF20ADF8000080B208BD0821FFF73D
:104580007EBF10B50446808800040BD4E079012872
:1045900002D92068FFF73FFE2046BDE81040082101
:1045A000FFF76DBF10BDCB490888401C80B2088062
:1045B00070472DE9F041828804460F46100456D416
:1045C000E17999B3012904D02668002006EB810522
:1045D0004BE0C2F30E00B84249D1D00BC003A0801B
:1045E0000020E0713DE035F81030BB423CD102299B
:1045F00011D0491E01EB41004000FFF7F9FD021EFA
:1046000030D02260E079401EC0B2E07102EB80033E
:10461000002001461EE00121E171002807D0288812
:1046200060F30E02A28004D1706803E01FE0688886
:10463000F6E73068206011E035F810C0BC4508D0BE
:1046400056F820E042F821E035F810C023F811C0F8
:10465000491C401C94F807C08445EDD23046FFF752
:10466000DAFD0120BDE8F081401C8142BBD800206A
:10467000F8E7C0F30410072800D9072070472DE998
:10468000F041044680880E4615460104EAD4E179DB
:104690000127012933D92268084602EB810306E08D
:1046A00033F810C0B44502D142F82050DAE7401E7A
:1046B000F6D5491C01EB410041001046FFF7B6FD5D
:1046C0000100CFD02160E07901EB800205E002EB30
:1046D000400C32F81030ACF80430401EF7D5E079C9
:1046E000401CC0B2E07101EB800202EB400020F8F8
:1046F000026CE07901EB800040F8045C20E01AD104
:10470000C0F30E00B04201D12260ABE70C20FFF7EE
:104710006FFD0028A6D022682060E179491CC9B24B
:10472000E171A38800EB8101C3F30E030B804E807F
:10473000C0E9002504E0E77166F30E00A080226066
:104740003046FFF796FFA17987403943A17189E789
:10475000F0B5858803462C044FF001000BD51B688B
:1047600004E08C4201D1596815E008331C88002C04
:10477000F7D10020F0BDDC79002CFAD0012C10D943
:104780001E68002306EB840508E035F813708F429D
:1047900003D156F823101160F0BD5B1C9C42F4D885
:1047A000E7E7C5F30E008842E3D1186810600120E6
:1047B000F0BD2DE9F0470F46DDE908891E46154694
:1047C00004461421FFF75BFE276005B9424DC4F88B
:1047D0000490083484E86001BDE8F0871CB500222D
:1047E000FF234E2866D01EDC332865D00EDC272838
:1047F00060D006DC20284BD022284DD0252841D17E
:1048000058E0302848D031283CD153E0462851D0D8
:1048100004DC3B2840D0442834D13DE047283BD03D
:104820004D282FD138E040F63C04A0F63C01A042D0
:1048300040D010DC40F25744A0F25741A0422BD0A8
:1048400004DC522828D053281CD133E0012931D070
:104850000B2917D12EE040F2CA74A1F2CA70A1420E
:104860002FD006DC092925D0A1F5E061C73909D18F
:1048700027E0A0F58060533821D0A0F2B530B0F524
:10488000005F02D0009200981CBD4FF4807014E0CD
:10489000FF221146104602E0002211461046FFF7A3
:1048A00055FE0190BDF804000190BDF80400ADF87C
:1048B0000000E8E70093E6E70F200090E3E70748F1
:1048C000FBE741F6FF70F8E7C07908B100207047B8
:1048D00001207047CC020020253100083064000818
:1048E0000A4641F20101FFF7CABE0A4641F202013F
:1048F000FFF7C5BE0A4641F20301FFF7C0BE0A46F4
:1049000041F20401FFF7BBBE0A4641F20501FFF781
:10491000B6BE0A4641F20601FFF7B1BE0A4641F2B1
:104920000701FFF7ACBE0A4641F20801FFF7A7BE38
:104930000A4641F20901FFF7A2BE0A4640F60A0103
:10494000FFF79DBE0A4640F60B01FFF798BE0A46E8
:1049500043F20C01FFF793BE0A4643F20D01FFF745
:104960008EBE0A4643F60E01FFF789BE0A4643F69D
:104970000F01FFF784BE0A4641F61001FFF77FBE24
:104980000A4641F61101FFF77ABE0A4641F61201C6
:10499000FFF775BE0A4641F61301FFF770BE0A46DF
:1049A00041F61401FFF76BBE0A4641F61501FFF709
:1049B00066BE0A466021FFF762BE0A466121FFF724
:1049C0005EBE0A4640F26241FFF759BE0A466321C5
:1049D000FFF755BE0A466421FFF751BE0A4665211E
:1049E000FFF74DBE0A466621FFF749BE0A4667211A
:1049F000FFF745BE0A466821FFF741BE0A4641F26D
:104A00006901FFF73CBE0A4641F26A41FFF737BE33
:104A100003B482B0BDF80C10ADF80010009A20214C
:104A200004B0FFF72CBE03B482B0BDF80C10ADF893
:104A30000010009A44F2200104B0FFF720BE0A469D
:104A40002121FFF71CBE03B482B0BDF80C10ADF8F5
:104A50000010009A222104B0FFF711BE03B482B007
:104A6000BDF80C10ADF80010009A44F2220104B019
:104A7000FFF705BE0A462321FFF701BE0A4624219F
:104A8000FFF7FDBD0A462521FFF7F9BD0A4640F6AE
:104A90002601FFF7F4BD0A462721FFF7F0BD03B456
:104AA00082B0BDF80C10ADF80010009A282104B0B7
:104AB000FFF7E5BD03B482B0BDF80C10ADF80010EF
:104AC000009A44F2280104B0FFF7D9BD0A46292113
:104AD000FFF7D5BD0A462A21FFF7D1BD03B482B046
:104AE000BDF80C10ADF80010009A302104B0FFF7AB
:104AF000C6BD03B482B0BDF80C10ADF80010009A2A
:104B000044F2300104B0FFF7BABD0A463121FFF785
:104B1000B6BD0A4641F23201FFF7B1BD0A46332164
:104B2000FFF7ADBD0A463421FFF7A9BD03B482B03B
:104B3000BDF80C10ADF80010009A40F2574104B0D7
:104B4000FFF79DBD03B482B0BDF80C10ADF80010A6
:104B5000009A44F2574104B0FFF791BD0A464FF462
:104B60008B61FFF78CBD0A4641F25941FFF787BDC3
:104B70000A4641F25A41FFF782BD0A4641F25B41C3
:104B8000FFF77DBD0A4640F25C41FFF778BD0A465B
:104B900041F25D41FFF773BD0A464621FFF76FBD45
:104BA00003B482B0BDF80C10ADF80010009A472194
:104BB00004B0FFF764BD03B482B0BDF80C10ADF8CB
:104BC0000010009A44F2470104B0FFF758BD0A46AE
:104BD0004821FFF754BD0A4640F63A01FFF74FBDA2
:104BE00003B482B0BDF80C10ADF80010009A3B2160
:104BF00004B0FFF744BD03B482B0BDF80C10ADF8AB
:104C00000010009A44F23B0104B0FFF738BD0A4699
:104C100040F63C01FFF733BD0A4640F63D01FFF781
:104C20002EBD0A464FF40461FFF729BD0A4640F63F
:104C30004101FFF724BD0A4640F64201FFF71FBDC0
:104C40000A4640F64301FFF71ABD03B482B0BDF82F
:104C50000C10ADF80010009A442104B0FFF70FBD0E
:104C600003B482B0BDF80C10ADF80010009A44F205
:104C7000440104B0FFF703BD0A4640F64501FFF7C3
:104C8000FEBC0A4640F64901FFF7F9BC0A464A2134
:104C9000FFF7F5BC0A464B21FFF7F1BC0A464C2151
:104CA000FFF7EDBC03B482B0BDF80C10ADF80010F6
:104CB000009A4D2104B0FFF7E2BC03B482B0BDF806
:104CC0000C10ADF80010009A44F24D0104B0FFF74B
:104CD000D6BC0A464E21FFF7D2BC0A464FF4056106
:104CE000FFF7CDBC0A465121FFF7C9BC03B482B01F
:104CF000BDF80C10ADF80010009A522104B0FFF777
:104D0000BEBC03B482B0BDF80C10ADF80010009A20
:104D100044F2520104B0FFF7B2BC0A465321FFF738
:104D2000AEBC0A465421FFF7AABC000081490870B6
:104D3000704710B5182180483AF09AFB7D49012050
:104D4000087010BD10B5044601467B483AF014FCCB
:104D5000784B01222046DA70BDE81040FFF75BBABD
:104D60002DE9F047734CA07810B10120BDE8F08721
:104D70000120A0702078002528B1FEF74EF95FEAE7
:104D8000000A02D007E0A570EFE72069401C20610F
:104D9000642800D92561694FA946A046664888F86D
:104DA000039088F804903AF08CFB386033E0624856
:104DB0003AF0DAFB3C680646207DC0072AD1002580
:104DC000204600F0AAF868B92569002D01DD681EAB
:104DD0002061FEF722F96060A16811B10DB1204693
:104DE0008847012598F8030020B9206910B92046AA
:104DF000FFF7A8FF75B198F8041098F80300014375
:104E000008D038680028C9D14FF0FF354A483AF039
:104E100058FB11E03E6039680029C8D1F4E7207DD5
:104E2000C00705D1204600F078F8A84200D2054618
:104E3000214641483AF098FB0400F0D15046FEF775
:104E4000F4F8D8F80C1044460844C8F80C00D8F818
:104E50000800FEF7EAF8B0F5FA7F13D3E1686422A0
:104E60005143B1FBF0F0C0B26070642801D900205A
:104E700001E0C0F1640060702646C4F80C90FEF7B3
:104E8000CCF8B06084F8029028466FE72DE9F04135
:104E9000074615460E4628483AF0F2FA040010D0AC
:104EA000A7604FF0FF302660206100206061FEF7B0
:104EB000B4F8E5601F496060012008712046BDE834
:104EC000F081FEE700224FF4FA711046DEE78160C0
:104ED00070470121416170470021416170470160C5
:104EE000704710B50446FEF798F82168401A401E36
:104EF000606010BD0161704710B50446FEF78DF883
:104F0000606010BD0B484078704718B101460A48F0
:104F10003AF02ABB08483AF0D4BA10B504464068C3
:104F2000FEF783F82168814201D8002010BD081ADD
:104F300010BD0000D002002038320120B80200204D
:104F40002DE9F047984614460D468246DDF820903C
:104F500013E0660806FB0857394650464A46904714
:104F6000002808DD44F30000C0EB540407EB0805FB
:104F7000A4F1010401E005DA3446002CE9D1204611
:104F8000BDE8F0873846FBE710B501460A48FCF754
:104F900063FF0446FCF7EDFF204610BD10B50C463C
:104FA0001021204624F0D1FB2046BDE810404FF4EC
:104FB000007124F09ABB00001C6A000810B501467D
:104FC000D248FCF749FF0446FCF7D3FF204610BD4A
:104FD00010B54FF0FF300C4648621021204624F0F7
:104FE000B4FB0821204624F080FB2046BDE8104099
:104FF0004FF4007124F079BB08460021FEF7BDB8DC
:105000002DE9F04F9FB0054622F034FB04462846B8
:1050100022F036FB8346002141F26A42204627F007
:1050200043FF00F0FF0A0021204600F026F9074662
:105030000021204600F028F905460021204600F016
:105040000EF981460021204600F010F98046A28A20
:10505000E08AADF87200218BADF87410638B3A448E
:10506000ADF870204844491BADF87200ADF87410DB
:10507000A3EB0800ADF8760068462EF041FB6A46C7
:105080004FF40031204625F093F96A4659461CA892
:1050900030F066F9204625F0E9FD0646208BA18A0E
:1050A000401B401AC11B881B05B2204624F091FC0E
:1050B000C0F30001606A421C06D06843C11700EBD0
:1050C0001160001200B203E009B1284600E00020A0
:1050D000BAF1010F01D1281A00B2A18A384408445C
:1050E000ADF868003044ADF86C00E18A4FF440350B
:1050F00001EB0900ADF86A00618BA1EB0800ADF887
:105100006E002946204600F0B8F80746294620469A
:1051100000F0BAF806462946204600F0A0F880467E
:105120002946204600F0A2F8BDF86810C91BADF86A
:105130006810BDF86C10BDF86A203144ADF86C10F1
:10514000A2EB0801ADF86A10BDF86E100844ADF886
:105150006E000DA82EF0D4FA0DAA2946204625F09F
:1051600027F90DAA59461AA830F0FAF81FB0BDE881
:10517000F08F00684FF0FF31416225F020BD4162A1
:1051800025F01DBD2DE9F0478946604822F0E2F97F
:1051900001285BD1484622F071FA0446484622F0C5
:1051A00069FA8046132C07D01C2C51D0152C4DD1F8
:1051B0004846BDE8F04723E74FF44037394600F052
:1051C0005CF806463946404600F05EF8054639462A
:1051D000404600F044F804463946404600F046F8A0
:1051E000AE4201DD314600E02946A04201DD024623
:1051F00000E02246914205DDAE4201DD344604E086
:105200002C4602E0A04200DD044639464046A41C7C
:1052100025F031FB204405B2484622F031FA04461D
:10522000B0F90000A84200DD054625804FF40035A6
:105230002946404625F01FFB0146B4F90000814293
:1052400003DB2946404625F016FB2080BDE8F087A9
:1052500000F021F84046BDE8F04725F0B0BC10B59D
:1052600041F6100227F020FE00B210BD10B541F645
:10527000110227F019FE00B210BD10B541F612025E
:1052800027F012FE00B210BD10B541F6130227F050
:105290000BFE00B210BDF0B591B0064600216522AC
:1052A00027F002FE07002ED0304624F092FB746AED
:1052B000C0F30000611C4FF4807501D048B906E0CE
:1052C000002802D04FF0000400E02C4601D14FF03E
:1052D0000005A4EB0500002800DC281B7843070A22
:1052E00000213046FDF749FF6846FDF72EFF0848CC
:1052F00008A9CDE9006007480390079481E8B00051
:105300006846FDF763FF11B0F0BD0000DC630508DF
:105310007F5100087351000810B5431A934209D217
:105320008318881803E010F8011D03F8011D521EB0
:10533000F9D210BD40EA01039B0703D009E008C978
:10534000121F08C0042AFAD203E011F8013B00F84A
:10535000013B521EF9D210BDD2B201E000F8012B80
:10536000491EFBD270470022F6E710B513460A46E5
:1053700004461946FFF7F0FF204610BD421E12F802
:10538000013F002BFBD111F8013B02F8013B002B40
:10539000F9D17047421C10F8011B0029FBD1801A7B
:1053A000704710B5002200E0521C835C8C5CA34265
:1053B00001D1002BF8D1D8B2E1B2401A10BD03469A
:1053C00011F8012B00F8012B002AF9D1184670477B
:1053D00000B58DB0099000920B904FF0FF300A900D
:1053E00000200C9004480690044807906A4609A8DB
:1053F00000F0A2F90DB000BD15BA040833BA0408D4
:105400002DE9F04D81EA030404F0004B21F0004542
:1054100014464FF0000A23F0004150EA050220D064
:1054200054EA01021DD0C5F30A570246C5F313031F
:10543000C1F31300C1F30A5640F4801543F48013FE
:10544000A7EB0608101BD64608F2FD3873EB0500E3
:1054500002D308F1010801E092185B41B8F1000F96
:1054600003DA00200146BDE8F08D00204FF48011E2
:10547000064684460EE0171B73EB050705D3121B87
:1054800063EB050306434CEA010C49084FEA300080
:1054900092185B4150EA0107EDD152EA030012D0A5
:1054A00082EA040083EA0501084305D0101BAB41E2
:1054B00006D20122002306E000224FF0004302E062
:1054C0006FF0010253101AEB06004CEB085110EB81
:1054D0000A0041EB0B01BDE8F04D00F072B90EB5CA
:1054E000C10F80EAE0700844CA07002140F233434C
:1054F0008DE80E000A460B4600F072F903B000BDBD
:10550000C1F30A5210B5C1F3130140F2FF3341F465
:1055100080119A4201DA002010BD40F233439A42D2
:10552000A2F2334203DC524200F044F810BD904036
:1055300010BD00F0004230F000400AD0C10D01F56E
:105540006071C0F3160042EA0151C20840071143DE
:10555000704700200146704730B5041E71F1000409
:1055600004DB4FF00044404264EB0101141E73F170
:10557000000405DB1C464FF00043524263EB04037A
:10558000994208BF904230BD30B50B46014600201D
:105590002022012409E021FA02F59D4205D303FAF5
:1055A00002F5491B04FA02F52844151EA2F1010276
:1055B000F1DC30BD202A04DB203A21FA02F0002180
:1055C000704721FA02F3D040C2F120029140084313
:1055D000194670472DE9FF4F1C4681B00021D4E9E0
:1055E000016791464FF0FF358A468846A1696D1CD8
:1055F00002988847216A834688470028F6D1BBF184
:10560000FF3F0CD026F4C066002F1ADD700615D5BA
:10561000BBF12B0F0AD0BBF12D0F0FD104E04FF0DF
:10562000FF3005B0BDE8F08F46F48066A1696D1CBF
:10563000029888477F1E8346002F02DDBBF1300FA2
:1056400003D0B9F1000F2AD025E0A1696D1C46F402
:1056500000767F1E029888478346002F05DDBBF148
:10566000780F06D0BBF1580F03D0B9F1000F10D05E
:1056700011E0B9F1000F02D0B9F1100F0BD1A169FF
:105680006D1C26F400767F1E029888478346102002
:1056900000E0082081464FEAE970009017E00A20F8
:1056A000F8E74346AAFB092803FB0980DDF800C0A0
:1056B0007F1E0AFB0C0112EB0B0A41EBEB78A16990
:1056C00046F4007605F10105029888478346002FCD
:1056D00006DD4946584646F025FA5FEA000BE0D55C
:1056E000E16902988847B00502D46FF0010098E79D
:1056F000F00718D1700610D57005514605D5002366
:10570000D1EB030163EB080200E042462068031D71
:1057100023600068C0E9001205E02068011D2160D7
:105720000068C0E900A828467BE700000268114431
:105730001378016018467047D160044951610449EB
:10574000116200211161114646F0FAB92D57000887
:105750001BBB04080029A8BF7047401C490008BFB4
:1057600020F00100704710B4B0FA80FC00FA0CF091
:1057700050EA010404BF10BC704749B1CCF12004C9
:1057800021FA04F411FA0CF118BF01212143084356
:10579000A3EB0C01CB1D4FEA00614FEA102042BF82
:1057A000002010BC704700EBC35010440029A4BF78
:1057B00010BC7047401C490008BF20F0010010BC1D
:1057C000704710B5141E73F1000408DA401C41F153
:1057D000000192185B411A4301D120F0010010BD75
:1057E0002DE9F04D92469B4611B1B1FA81F202E0EB
:1057F000B0FA80F22032904645F036FE04460F465D
:1058000040EA0A0041EA0B0153465A46084313D0C6
:10581000114653EA010019D0C8F140025046FFF783
:10582000C9FE05460E4650465946424645F01CFE06
:10583000084305D0012004E020463946BDE8F08D3C
:105840000020054346EAE0762C4337430A98630577
:10585000E40AA0EB08000022FD0A44EA47540A309B
:1058600002D500200146E9E7010510196941DDE98B
:10587000084500196941BDE8F04DA2E72DE9FE4F4A
:10588000804681EA0300C00F0C46009021F00041E1
:1058900023F00045B8EB0200A94105D2404621465D
:1058A00090461C460B46024623F00040104347D06A
:1058B000270DC7F30A00C3F30A510290401A019062
:1058C00040286BDAC3F3130040F4801B0098924623
:1058D00020B10023D2EB030A63EB0B0B019859466E
:1058E000C0F14002504645F0BFFD06460D46504609
:1058F0005946019A46F0FFF810EB08006141002478
:1059000087EA115284EAE7731A4340D0009A62B3DF
:10591000019A012A4FEA075215DC001B61EB0201D4
:105920004FF0004202EA0752CDE90042001C41F567
:10593000801132462B46FFF753FF03B0BDE8F08FCE
:1059400040462146F9E7001B61EB0201001C41F5CE
:10595000801300185B412018A2F5001747EB0301E4
:1059600040EAD570B6196D4111E06D084FEA360670
:1059700045EAC0754FEA0752001B61EB0201001CAB
:1059800041F5801149084FEA300000195141324673
:105990002B4603B0BDE8F04FFFF713BF009801227C
:1059A00040000023D0EB020263EBE0730098214635
:1059B0004FEAE074B8EB000061EB0401E9E783F023
:1059C00000435BE781F0004158E7C1F30A52C1F39D
:1059D000130140F2FF3341F480119A4202DA0020B1
:1059E0000146704740F233439A42A2F2334202DC4E
:1059F0005242FFF7DFBD45F037BD0000064C074DB2
:105A000006E0E06840F0010394E80700984710348E
:105A1000AC42F6D3FAF7BCFB106D0008306D0008FD
:105A20000EB540F2334202920022CDE90022134625
:105A3000FFF7D6FE03B000BD10B52F499FED2C1B1C
:105A40002DED020B84B0059820F000408842DCBFA9
:105A500000209DED040B32DD2849884209D10498CD
:105A600040B94FF0010000F077FA00F055FA06B0A7
:105A700010BD05DB9DED040B46F092FC06B010BD99
:105A800068469DED040B46F06FFA10F0030011D04C
:105A9000012818D09DED021B9DED000B02281AD0A5
:105AA00000F06EF851EC100B81F0004106B041ECB3
:105AB000100B10BD9DED021B9DED000B012000F0B1
:105AC00093F906B010BD9DED021B9DED000B00F09B
:105AD00057F806B010BD012000F086F951EC100B0C
